:020000040800F2
:1000000000500020412200089D1F0008A51F000885
:10001000AD1F0008B51F0008BD1F0008000000004C
:10002000000000000000000000000000C51F0008E4
:10003000D11F000800000000DD1F0008E91F0008B4
:1000400089220008892200088922000889220008E4
:1000500089220008892200088922000889220008D4
:1000600089220008892200088922000889220008C4
:1000700089220008892200088922000889220008B4
:1000800089220008892200088922000889220008A4
:100090008922000889220008892200088922000894
:1000A00089220008F51F000889220008892200081B
:1000B00089220008092000081D2000088922000864
:1000C0008922000889220008892200088922000864
:1000D00089220008312000088922000889220008AE
:1000E00089220008892200088922000800000000F7
:1000F0000000000000000000000000000000000000
:0C01000000000000000000005FF808F1A3
:1001100010B5054C237833B9044B13B10448AFF341
:1001200000800123237010BDD401002000000000D6
:1001300074A1000808B5034B1BB103490348AFF392
:10014000008008BD00000000D801002074A1000854
:10015000034613F8012B002AFBD1181A0138704707
:1001600081F0004102E000BF83F0004330B54FEA68
:1001700041044FEA430594EA050F08BF90EA020FD5
:100180001FBF54EA000C55EA020C7FEA645C7FEA68
:10019000655C00F0E2804FEA5454D4EB5555B8BF8B
:1001A0006D420CDD2C4480EA020281EA030382EAFC
:1001B000000083EA010180EA020281EA0303362D8E
:1001C00088BF30BD11F0004F4FEA01314FF4801C61
:1001D0004CEA113102D0404261EB410113F0004F73
:1001E0004FEA03334CEA133302D0524263EB43032A
:1001F00094EA050F00F0A780A4F10104D5F1200EC8
:100200000DDB02FA0EFC22FA05F2801841F1000122
:1002100003FA0EF2801843FA05F359410EE0A5F1F6
:1002200020050EF1200E012A03FA0EFC28BF4CF027
:10023000020C43FA05F3C01851EBE37101F00045DD
:1002400007D54FF0000EDCF1000C7EEB00006EEBEA
:100250000101B1F5801F1BD3B1F5001F0CD3490874
:100260005FEA30004FEA3C0C04F101044FEA4452CB
:1002700012F5800F80F09A80BCF1004F08BF5FEA52
:10028000500C50F1000041EB045141EA050130BD32
:100290005FEA4C0C404141EB0101013C28BFB1F544
:1002A000801FE9D291F0000F04BF01460020B1FA8F
:1002B00081F308BF2033A3F10B03B3F120020CDA62
:1002C0000C3208DD02F1140CC2F10C0201FA0CF040
:1002D00021FA02F10CE002F11402D8BFC2F1200CA5
:1002E00001FA02F120FA0CFCDCBF41EA0C0190405B
:1002F000E41AA2BF01EB0451294330BD6FEA0404A4
:100300001F3C1CDA0C340EDC04F11404C4F120028E
:1003100020FA04F001FA02F340EA030021FA04F3A0
:1003200045EA030130BDC4F10C04C4F1200220FAF7
:1003300002F001FA04F340EA0300294630BD21FA35
:1003400004F0294630BD94F0000F83F4801306BFFB
:1003500081F480110134013D4EE77FEA645C18BFEF
:100360007FEA655C29D094EA050F08BF90EA020F86
:1003700005D054EA000C04BF1946104630BD91EA7E
:10038000030F1EBF0021002030BD5FEA545C05D181
:100390004000494128BF41F0004130BD14F58004C0
:1003A0003CBF01F5801130BD01F0004545F0FE4134
:1003B00041F470014FF0000030BD7FEA645C1ABF69
:1003C000194610467FEA655C1CBF0B46024650EAA0
:1003D000013406BF52EA033591EA030F41F40021CC
:1003E00030BD00BF90F0000F04BF0021704730B552
:1003F0004FF4806404F132044FF000054FF0000127
:1004000050E700BF90F0000F04BF0021704730B5E7
:100410004FF4806404F1320410F0004548BF4042BC
:100420004FF000013EE700BF42004FEAE2014FEA11
:1004300031014FEA02701FBF12F07F4393F07F4FEC
:1004400081F06051704732F07F4208BF704793F0EF
:100450007F4F04BF41F40021704730B54FF4607402
:1004600001F0004521F000411CE700BF50EA010205
:1004700008BF704730B54FF000050AE050EA0102AE
:1004800008BF704730B511F0004502D5404261EB1E
:1004900041014FF4806404F132045FEA915C3FF45F
:1004A000D8AE4FF003025FEADC0C18BF03325FEAFC
:1004B000DC0C18BF033202EBDC02C2F1200300FAAD
:1004C00003FC20FA02F001FA03FE40EA0E0021FAD2
:1004D00002F11444BDE600BF70B54FF0FF0C4CF4C0
:1004E000E06C1CEA11541DBF1CEA135594EA0C0F72
:1004F00095EA0C0F00F0DEF82C4481EA030621EAAD
:100500004C5123EA4C5350EA013518BF52EA0335E7
:1005100041F4801143F4801338D0A0FB02CE4FF099
:100520000005E1FB02E506F00042E0FB03E54FF0C9
:100530000006E1FB03569CF0000F18BF4EF0010EC1
:10054000A4F1FF04B6F5007F64F5407404D25FEABD
:100550004E0E6D4146EB060642EAC62141EA555170
:100560004FEAC52040EA5E504FEACE2EB4F1FD0CB2
:1005700088BFBCF5E06F1ED8BEF1004F08BF5FEA30
:10058000500E50F1000041EB045170BD06F00046E2
:1005900046EA010140EA020081EA0301B4EB5C048F
:1005A000C2BFD4EB0C0541EA045170BD41F4801187
:1005B0004FF0000E013C00F3AB8014F1360FDEBFAC
:1005C000002001F0004170BDC4F10004203C35DA88
:1005D0000C341BDC04F11404C4F1200500FA05F30B
:1005E00020FA04F001FA05F240EA020001F00042AC
:1005F00021F0004110EBD37021FA04F642EB060122
:100600005EEA430E08BF20EAD37070BDC4F10C044B
:10061000C4F1200500FA04F320FA05F001FA04F20F
:1006200040EA020001F0004110EBD37041F10001FB
:100630005EEA430E08BF20EAD37070BDC4F1200506
:1006400000FA05F24EEA020E20FA04F301FA05F26E
:1006500043EA020321FA04F001F0004121FA04F216
:1006600020EA020000EBD3705EEA430E08BF20EAE6
:10067000D37070BD94F0000F0FD101F00046400020
:1006800041EB010111F4801F08BF013CF7D041EAA2
:10069000060195F0000F18BF704703F000465200A6
:1006A00043EB030313F4801F08BF013DF7D043EA77
:1006B0000603704794EA0C0F0CEA135518BF95EA2D
:1006C0000C0F0CD050EA410618BF52EA4306D1D1B4
:1006D00081EA030101F000414FF0000070BD50EAD3
:1006E000410606BF1046194652EA430619D094EA5D
:1006F0000C0F02D150EA013613D195EA0C0F05D147
:1007000052EA03361CBF104619460AD181EA03019A
:1007100001F0004141F0FE4141F470014FF0000052
:1007200070BD41F0FE4141F4780170BD70B54FF0ED
:10073000FF0C4CF4E06C1CEA11541DBF1CEA13556D
:1007400094EA0C0F95EA0C0F00F0A7F8A4EB05044F
:1007500081EA030E52EA03354FEA013100F0888046
:100760004FEA03334FF0805545EA131343EA12630F
:100770004FEA022245EA111545EA10654FEA0026C4
:100780000EF000419D4208BF964244F1FD0404F57D
:10079000407402D25B084FEA3202B61A65EB0305D9
:1007A0005B084FEA32024FF480104FF4002CB6EB96
:1007B000020E75EB030E22BFB61A754640EA0C0016
:1007C0005B084FEA3202B6EB020E75EB030E22BF56
:1007D000B61A754640EA5C005B084FEA3202B6EB97
:1007E000020E75EB030E22BFB61A754640EA9C0056
:1007F0005B084FEA3202B6EB020E75EB030E22BF26
:10080000B61A754640EADC0055EA060E18D04FEAE3
:10081000051545EA16754FEA06164FEAC30343EA83
:1008200052734FEAC2025FEA1C1CC0D111F4801F50
:100830000BD141EA00014FF000004FF0004CB6E749
:1008400011F4801F04BF01430020B4F1FD0C88BFE8
:10085000BCF5E06F3FF6AFAEB5EB030C04BFB6EBF3
:10086000020C5FEA500C50F1000041EB045170BDE6
:100870000EF0004E4EEA113114EB5C04C2BFD4EB13
:100880000C0541EA045170BD41F480114FF0000E97
:10089000013C90E645EA060E8DE60CEA135594EA13
:1008A0000C0F08BF95EA0C0F3FF43BAF94EA0C0F16
:1008B0000AD150EA01347FF434AF95EA0C0F7FF48B
:1008C00025AF104619462CE795EA0C0F06D152EADF
:1008D00003353FF4FDAE1046194622E750EA4106C3
:1008E00018BF52EA43067FF4C5AE50EA41047FF4D4
:1008F0000DAF52EA43057FF4EBAE12E74FF0FF3C39
:1009000006E000BF4FF0010C02E000BF4FF0010C09
:100910004DF804CD4FEA410C7FEA6C5C4FEA430C82
:1009200018BF7FEA6C5C1BD001B050EA410C0CBFD1
:1009300052EA430C91EA030F02BF90EA020F002033
:10094000704710F1000F91EA030F58BF994208BF9A
:1009500090422CBFD8176FEAE37040F00100704757
:100960004FEA410C7FEA6C5C02D150EA013C07D1AE
:100970004FEA430C7FEA6C5CD6D152EA033CD3D0F9
:100980005DF8040B704700BF8446104662468C46F3
:100990001946634600E000BF01B5FFF7B7FF002826
:1009A00048BF10F1000F01BD4DF808EDFFF7F4FF4F
:1009B0000CBF012000205DF808FB00BF4DF808EDDA
:1009C000FFF7EAFF34BF012000205DF808FB00BFFD
:1009D0004DF808EDFFF7E0FF94BF012000205DF81F
:1009E00008FB00BF4DF808EDFFF7CEFF94BF0120D4
:1009F00000205DF808FB00BF4DF808EDFFF7C4FFCD
:100A000034BF012000205DF808FB00BF4FEA410C15
:100A10007FEA6C5C02D150EA013C0AD14FEA430CF8
:100A20007FEA6C5C02D152EA033C02D14FF0000035
:100A300070474FF0010070474FEA410212F5001273
:100A400015D211D56FF47873B3EB625212D94FEA15
:100A5000C12343F0004343EA505311F0004F23FAFF
:100A600002F018BF404270474FF00000704750EA54
:100A7000013005D111F0004008BF6FF00040704711
:100A80004FF00000704700BF4A0011D212F500126B
:100A900011D20DD56FF47873B3EB62520ED44FEAD6
:100AA000C12343F0004343EA505323FA02F0704756
:100AB0004FF00000704750EA013002D14FF0FF3094
:100AC00070474FF0000070474FEA4102B2F1E04337
:100AD00024BFB3F5001CDCF1FE5C0DD901F0004C25
:100AE0004FEAC0024CEA5070B2F1004F40EB830075
:100AF00008BF20F00100704711F0804F21D113F1A1
:100B00003872BCBF01F00040704741F480114FEAD9
:100B10005252C2F11802C2F1200C10FA0CF320FA62
:100B200002F018BF40F001004FEAC1234FEAD3237F
:100B300003FA0CFC40EA0C0023FA02F34FEA4303E9
:100B4000CCE77FEA625307D150EA01331EBF4FF072
:100B5000FE4040F44000704701F0004040F0FE408D
:100B600040F40000704700BF38B50022002304465F
:100B70000D46FFF723FF28B920462946BDE8384037
:100B800000F00AB8204605F1004100F005F84042A7
:100B900061EB410138BD00BFD0B500220B4B0646CA
:100BA0000F46FFF799FCFFF76FFF0446FFF71AFCAB
:100BB0000022074BFFF790FC02460B4630463946B1
:100BC000FFF7D2FAFFF760FF2146D0BD0000F03DED
:100BD0000000F04180B586B000AF786007F10803EF
:100BE00000221A605A609A60DA607B689B88BB605A
:100BF0000123FB6002237B617B681B6807F108020D
:100C00001146184601F088FD00BF1837BD4680BD6B
:100C100080B586B000AF786007F1080300221A6043
:100C20005A609A60DA607B689B88BB600023FB6037
:100C300000233B617B681B6807F1080211461846D8
:100C400001F06AFD00BF1837BD4680BD80B483B097
:100C500000AF78600B467B807B689B681B68002236
:100C60005A6200BF7B689B681B685A6A7B889A42FD
:100C7000F8D300BF00BF0C37BD4680BC704780B5BD
:100C800084B000AFF8600B467A60FB72FB689B682B
:100C90001B6800225A6209E0FB689B681B685B6A5C
:100CA0007A689A4202D24FF0FF330DE0FB681A686F
:100CB000FB689B881946104601F0B2FE03461A46AF
:100CC000FB7A9342E8D1002318461037BD4680BD19
:100CD00080B582B000AF786039607B689B681B6824
:100CE00000225A6209E07B689B681B685B6A3A686D
:100CF0009A4202D24FF0FF330EE07B681A687B689D
:100D00009B881946104601F08BFE0346012BEAD062
:100D10007B689B681B685B6A18460837BD4680BDC8
:100D200080B582B000AF78607868FFF771FF7B68AC
:100D30009B68184602F0A0FF00BF0837BD4680BD83
:100D400080B588B000AF7860396007F10C030022ED
:100D50001A601A717868FFF73DFF7B6818687B6836
:100D60009B880022194601F072FE122001F0F0FA71
:100D70007B6818687B689B880122194601F067FE32
:100D80001E217868FFF762FF7868FFF741FF642251
:100D900000217868FFF773FF0346002B02DA4FF05B
:100DA000FF3380E0642201217868FFF768FF034683
:100DB000002B02DA6FF0010375E0642200217868ED
:100DC000FFF75DFF0346002B02DA6FF002036AE0D3
:100DD0000023FB6140E0502201217868FFF74FFFBC
:100DE0000346002B02DA6FF003035CE07821786899
:100DF000FFF76EFF78617B69002B02DA6FF0040366
:100E000051E07B692D2BCCBF01230023DBB2FB74A7
:100E1000FB69002B00DA0733DB1003F120023A44B0
:100E200012F8142C5200D2B220333B4403F8142C95
:100E3000FB69002B00DA0733DB1003F120023A4490
:100E400012F8141CFA7C0A43D2B220333B4403F854
:100E5000142CFB690133FB61FB69272BBBDD3A7B5B
:100E60007B7B1344DAB2BB7B1344DAB2FB7B1344C3
:100E7000FB763B7CFA7E9A4202D06FF0050312E0CB
:100E80003B68002B0ED03A7B3B681A707A7B3B683C
:100E90005A70BA7B3B689A70FA7B3B68DA703A7C8E
:100EA0003B681A71002318462037BD4680BD80B5C7
:100EB00086B002AF78600B46FB707B685B79002BD5
:100EC00001D0082200E00022FB781343DBB2FB7361
:100ED0007B6818687B681B795B0099B207F10F0289
:100EE00032230093012301F00FFF00BF1037BD46EE
:100EF00080BD80B582B000AF78600B46FB70FB7898
:100F000043F00403DBB219467868FFF7D0FF0120F5
:100F100001F080F9FB7823F00403DBB2194678680E
:100F2000FFF7C5FF322001F075F900BF0837BD4655
:100F300080BD80B584B000AF78600B46FB7013466F
:100F4000BB7097F9033023F00F035AB297F90230C0
:100F500013435BB2FB73FB7B19467868FFF7A7FF6F
:100F6000FB7B19467868FFF7C4FF00BF1037BD460A
:100F700080BD80B584B000AF78600B46FB7013462F
:100F8000BB70BB78002B01D0012300E00023FB7372
:100F9000FB7823F00F03DBB2FA7B19467868FFF782
:100FA000C8FFFB781B01DBB2FA7B19467868FFF7B4
:100FB000C0FF00BF1037BD4680BD80B582B000AF16
:100FC00078600B46FB70FB78002219467868FFF7C3
:100FD000D0FFFB78012B02D0FB78022B02D102203C
:100FE00001F0B6F900BF0837BD4680BD80B582B0BC
:100FF00000AF78600B46FB70FB78012219467868D9
:10100000FFF7B7FF00BF0837BD4680BD80B584B08D
:1010100000AFF860B9601346FB71FB68BA681A60EC
:10102000FB68FA791A71FB6801225A71322001F0CB
:101030008FF900223021F868FFF77BFF052001F0CF
:1010400087F900223021F868FFF773FF962001F03E
:10105000E1F800223021F868FFF76BFF962001F0DD
:10106000D9F800222021F868FFF763FF022001F081
:101070006FF92821F868FFF7A0FF0C21F868FFF747
:101080009CFF0621F868FFF798FF0121F868FFF739
:1010900094FF00BF1037BD4680BD80B582B000AF61
:1010A000786001217868FFF788FF00BF0837BD46E8
:1010B00080BD80B584B000AF78600B46FB701346EE
:1010C000BB70FB78002B03D0BB784033DBB200E071
:1010D000BB78FB73FB7B63F07F03DBB21946786858
:1010E000FFF76BFF00BF1037BD4680BD80B582B0F3
:1010F00000AF7860396007E03B685A1C3A601B78A3
:1011000019467868FFF772FF3B681B78002BF3D114
:1011100000BF00BF0837BD4680BD000080B483B06B
:1011200000AF0346FB71164B93F900300E2B21DC08
:10113000144B93F900301946134AFB795354114B61
:1011400093F900305A1C114B83FB02131344D9103E
:10115000D317C91A0B461B015B1AD11A4AB2094BA5
:101160001A70074B93F90030DBB20133DBB25AB28D
:10117000034B1A7000BF0C37BD4680BC704700BFE0
:101180000102002000020020F001002089888888E8
:1011900080B483B000AF174B93F90030002B01D11E
:1011A000002322E0144B93F900301A46134B9B5C4A
:1011B000FB71114B93F900305A1C114B83FB021346
:1011C0001344D910D317C91A0B461B015B1AD11A45
:1011D0004AB2094B1A70074B93F90030DBB2013B5E
:1011E000DBB25AB2034B1A70FB7918460C37BD4676
:1011F00080BC704701020020FF010020F0010020A8
:101200008988888880B586B000AF7860396007F13A
:101210000C0319463868FFF793FD78617B69002B52
:1012200009D1BA7B7B681A703A7B7B685A707B68FD
:1012300001229A7002E07B6800229A7000BF183782
:10124000BD4680BD80B582B000AF78607B689B787A
:10125000002B03D17B6801229A7211E07B681A7817
:101260007B681B7A9A4205D27B685A787B685B7AE6
:101270009A4201D3012300E00023DAB27B689A721C
:101280007B689B7A002B06D000224FF40051074860
:1012900001F0DDFB05E001224FF40051034801F0AD
:1012A000D6FB00BF0837BD4680BD00BF001001401F
:1012B00080B58EB002AF786039607B689B78002B78
:1012C0000DD07B681B781A467B685B7807F11C00A1
:1012D000009313461D4A112104F04AFE06E007F16F
:1012E0001C031B4A1121184604F042FE7B689B7ABE
:1012F000002B01D0174B00E0174B07F10800174AED
:10130000112104F035FE002200213868FFF7D1FEDC
:1013100007F11C0319463868FFF7E8FE0022012197
:101320003868FFF7C6FE0E493868FFF7DFFE002277
:1013300001213868FFF7BDFE07F108031946386838
:10134000FFF7D4FE00BF3037BD4680BD90A1000836
:10135000A4A10008B8A10008C0A10008C4A1000809
:10136000D4A10008B0B5AAB006AF7860396000F02B
:10137000E5FFC7F888007B689B78002B22D07B684C
:101380001B781A467B685B7819467B681B7A1C467B
:101390007B685B7A1D467B689B7A002B01D01D4BD6
:1013A00000E01D4B07F1080004930395029401919E
:1013B0000092D7F88830194A802104F0D9FDC7F887
:1013C0008C0019E07B681B7A1A467B685B7A1946A9
:1013D0007B689B7A002B01D00E4B00E00E4B07F18F
:1013E0000800029301910092D7F888300C4A8021BE
:1013F00004F0BEFDC7F88C00D7F88C309AB207F124
:1014000008016423386803F073F800BF9037BD46C5
:10141000B0BD00BFB8A10008C0A10008E8A1000845
:1014200018A2000880B5B0B002AF786039607B6860
:1014300093F84D30DBB2002B00F0E7807B68002290
:1014400083F84D207B6803F10C0107F1680340220B
:10145000184604F05EFE002387F8A73007F1680302
:101460006C49184604F068FEC7F8B400002387F8FA
:10147000B33095E0D7F8B4301B78502B04D0D7F8B0
:10148000B4301B78702B28D100237B6607F16403EE
:101490001A466149D7F8B40004F0C2FD0346012B97
:1014A0000AD007F164031A465C49D7F8B40004F087
:1014B000B7FD0346012B6AD17A6E594B1B68013A7E
:1014C000DA627B6E013B564AD360554B1B680022A3
:1014D0005A62012387F8B33059E0D7F8B4301B784B
:1014E000542B04D0D7F8B4301B78742B22D10023AE
:1014F0003B6607F160031A464A49D7F8B40004F086
:101500008FFD0346012B0AD007F160031A464649B6
:10151000D7F8B40004F084FD0346012B39D13B6EAB
:10152000632B36D83B6EDAB27B681A72012387F8D8
:10153000B3302EE0D7F8B4301B78482B04D0D7F85E
:10154000B4301B78682B25D10023FB6507F15C03C1
:101550001A463649D7F8B40004F062FD0346012B61
:101560000AD007F15C031A463149D7F8B40004F0F9
:1015700057FD0346012B0DD1FB6D632B0AD8FB6D84
:10158000DAB27B685A72012387F8B33002E000BFF9
:1015900000E000BF1F49002004F0CEFDC7F8B400F2
:1015A000D7F8B430002B7FF465AF97F8B330002B39
:1015B0001BD07B685A687B681B7A19467B685B7A0C
:1015C00007F10C000193009113461A4A502104F0D0
:1015D000CFFCC7F8A800D7F8A8309AB207F10C01E1
:1015E0006423386802F084FF10E0134BC7F8AC3076
:1015F000D7F8AC00FEF7ACFD03469AB26423D7F8E7
:10160000AC10386802F074FF00E000BFB837BD4688
:1016100080BD00BF48A200084CA2000854A20008E8
:10162000580200205CA2000864A200086CA2000816
:1016300074A200087CA2000898A2000880B582B0BD
:1016400000AF00F023FE00F0AFF800F085FA00F0E4
:10165000F1F800F01DF900F06DF900F0B7F900F0B5
:1016600003FA00F04FFA434802F006FB414800F04D
:10167000B1FD414802F04AFB404802F047FB4048B8
:1016800002F044FB3F4B404A1A603E4B20229A80B6
:101690003C4B384A9A603B48FFF742FB27223B49C4
:1016A0003B48FFF7B3FC3A48FFF7F7FC0022002164
:1016B0003748FFF7FEFC37493548FFF717FD4FF471
:1016C0007A7000F045FE3248FFF7E7FC5022002117
:1016D000314804F016FD304B4FF47A625A602E4BBD
:1016E0001D221A722C4B46225A722B4B00229A72E0
:1016F00001224FF40051294801F0A9F9012228499B
:10170000284802F080FFFFF743FD0346FB71FB7999
:10171000002B2AD0FB79013B032B28D801A252F8D9
:1017200023F000BF35170008451700084F170008C1
:101730005917000813491848FFF764FD1648FFF7CA
:1017400081FD15E012491448FFF7B2FD10E015497C
:101750001148FFF707FE0BE00F4B012283F84D20E5
:1017600010490D48FFF75EFE02E000BFCBE700BF67
:10177000C9E700BFA002002058020020E8020020B4
:1017800030030020C80300200008014004020020AC
:10179000C0030020B4A20008D403002000100140C0
:1017A000DF0300207803002080B590B000AF07F180
:1017B000180328220021184604F0A3FC3B1D002238
:1017C0001A605A609A60DA601A610123BB614FF4B3
:1017D0008033FB6100233B620123BB6202237B63F6
:1017E0004FF48033BB634FF4E013FB6307F118033E
:1017F000184601F0E1FD0346002B01D000F094FAF9
:101800000F237B600223BB600023FB604FF48063E7
:101810003B6100237B613B1D0221184602F04EF81C
:101820000346002B01D000F07FFA00BF4037BD46D1
:1018300080BD000080B500AF124B134A1A60114BF7
:10184000124A5A600F4B00229A600E4B0022DA6057
:101850000C4B4FF480421A610A4B00225A61094B2B
:1018600000229A61074B0022DA61064B00221A62BD
:10187000044801F005F90346002B01D000F054FAAA
:1018800000BF80BD0402002000540040A08601007B
:1018900080B586B000AF07F1080300221A605A60D5
:1018A0009A60DA603B4600221A605A601F4B204A59
:1018B0001A601E4B41F61F425A601C4B00229A6070
:1018C0001A4B47F22F52DA60184B00221A61174B5D
:1018D00000225A61154B00229A61144802F07CF9EB
:1018E0000346002B01D000F01FFA4FF48053BB6079
:1018F00007F1080319460D4802F04AFB0346002B86
:1019000001D000F011FA00233B6000237B603B46CE
:101910001946064802F02CFD0346002B01D000F0CA
:1019200003FA00BF1837BD4680BD00BF5802002033
:10193000002C014080B586B000AF07F108030022FB
:101940001A605A609A60DA603B4600221A605A6058
:101950001D4B4FF080421A601B4B47225A601A4BB6
:1019600000229A60184B4FF6FF72DA60164B002285
:101970001A61154B00229A61134802F02DF90346B3
:10198000002B01D000F0D0F94FF48053BB6007F179
:10199000080319460C4802F0FBFA0346002B01D05D
:1019A00000F0C2F900233B6000237B603B461946F0
:1019B000054802F0DDFC0346002B01D000F0B4F92D
:1019C00000BF1837BD4680BDA002002080B586B09C
:1019D00000AF07F1080300221A605A609A60DA60CB
:1019E0003B4600221A605A601D4B1E4A1A601C4B6F
:1019F00041F61F425A601A4B00229A60184B42F27D
:101A00000F72DA60164B00221A61154B00229A61A0
:101A1000134802F0E1F80346002B01D000F084F9EE
:101A20004FF48053BB6007F1080319460C4802F0DD
:101A3000AFFA0346002B01D000F076F900233B609B
:101A400000237B603B461946054802F091FC0346A3
:101A5000002B01D000F068F900BF1837BD4680BDEB
:101A6000E80200200004004080B586B000AF07F116
:101A7000080300221A605A609A60DA603B4600222E
:101A80001A605A601D4B1E4A1A601C4B41F61F42D9
:101A90005A601A4B00229A60184B44F61F62DA60B3
:101AA000164B00221A61154B00229A61134802F06E
:101AB00093F80346002B01D000F036F94FF4805321
:101AC000BB6007F1080319460C4802F061FA0346AF
:101AD000002B01D000F028F900233B6000237B603D
:101AE0003B461946054802F043FC0346002B01D053
:101AF00000F01AF900BF1837BD4680BD3003002042
:101B00000008004080B500AF114B124A1A60104B1C
:101B10004FF4E1325A600E4B00229A600C4B0022C7
:101B2000DA600B4B00221A61094B0C225A61084BF8
:101B300000229A61064B0022DA61054802F088FC17
:101B40000346002B01D000F0EFF800BF80BD00BFBE
:101B5000780300200038014080B588B000AF07F15D
:101B6000100300221A605A609A60DA602D4B9B695C
:101B70002C4A43F0100393612A4B9B6903F0100336
:101B8000FB60FB68274B9B69264A43F02003936167
:101B9000244B9B6903F02003BB60BB68214B9B690E
:101BA000204A43F0040393611E4B9B6903F0040336
:101BB0007B607B681B4B9B691A4A43F00803936167
:101BC000184B9B6903F008033B603B6800224FF40D
:101BD0000051154800F03BFF00222021134800F07F
:101BE00036FF4FF400533B6101237B610023BB614F
:101BF0000223FB6107F1100319460B4800F08CFD2E
:101C000020233B6101237B610023BB610223FB6135
:101C100007F110031946054800F07EFD00BF20378C
:101C2000BD4680BD00100240001001400008014088
:101C300080B582B000AF78607B681B680C4A934225
:101C400002D10120FFF76AFA7B681B68094A9342B8
:101C500002D10220FFF762FA7B681B68064A9342B2
:101C600002D10320FFF75AFA00BF0837BD4680BDF6
:101C70000004004000080040002C014080B584B002
:101C800000AF78607B681B68234A934240D1234BA6
:101C9000DB7AFB73FB7B0A2B05D0FB7B0D2B02D081
:101CA000FB7B3B2B18D11D4B93F84C30002B2AD0DB
:101CB0001A4B93F84C301A46184B134400221A73EF
:101CC000164B002283F84C200420FFF727FA134B11
:101CD000012283F84D2016E0104B93F84C303E2B38
:101CE0000DD80E4B93F84C305A1CD1B20B4A82F8E7
:101CF0004C101A46094B1344FA7B1A7303E0074B46
:101D0000002283F84C2001220549064802F07BFCA2
:101D100000BF1037BD4680BD00380140D40300200D
:101D2000DF0300207803002080B400AF72B600BF4C
:101D300000BFFDE780B485B000AF154B9B69144A26
:101D400043F001039361124B9B6903F00103BB60F5
:101D5000BB680F4BDB690E4A43F08053D3610C4BD9
:101D6000DB6903F080537B607B680A4B5B68FB6038
:101D7000FB6823F0E063FB60FB6843F00073FB60EB
:101D8000044AFB68536000BF1437BD4680BC7047EF
:101D9000001002400000014080B588B000AF7860BC
:101DA00007F1100300221A605A609A60DA607B68BB
:101DB0001B68154A934223D1144B9B69134A43F085
:101DC00008039361114B9B6903F00803FB60FB68F8
:101DD000C0233B6112237B610323FB6107F11003E6
:101DE00019460B4800F098FC084BDB69074A43F49E
:101DF0000013D361054BDB6903F40013BB60BB68C0
:101E000000BF2037BD4680BD005400400010024096
:101E1000000C014080B586B000AF78607B681B681D
:101E2000304A934214D1304B9B692F4A43F40063EC
:101E300093612D4B9B6903F400637B617B690022F6
:101E40000021192000F07FFB192000F098FB44E0EE
:101E50007B681B68B3F1804F0CD1234BDB69224AAE
:101E600043F00103D361204BDB6903F001033B61C5
:101E70003B6932E07B681B681C4A934214D11A4BC1
:101E8000DB69194A43F00203D361174BDB6903F0A6
:101E90000203FB60FB68002200211D2000F053FBC1
:101EA0001D2000F06CFB18E07B681B68104A934211
:101EB00013D10D4BDB690C4A43F00403D3610A4B89
:101EC000DB6903F00403BB60BB68002200211E2015
:101ED00000F039FB1E2000F052FB00BF1837BD4652
:101EE00080BD00BF002C01400010024000040040F3
:101EF0000008004080B588B000AF786007F110039B
:101F000000221A605A609A60DA607B681B68204A77
:101F1000934239D11F4B9B691E4A43F4804393611E
:101F20001C4B9B6903F48043FB60FB68194B9B6966
:101F3000184A43F004039361164B9B6903F00403B2
:101F4000BB60BB684FF400733B6102237B610323DA
:101F5000FB6107F1100319460F4800F0DDFB4FF459
:101F600080633B6100237B610023BB6107F11003A9
:101F70001946094800F0D0FB00220021252000F07E
:101F8000E2FA252000F0FBFA00BF2037BD4680BDF5
:101F900000380140001002400008014080B400AF4A
:101FA00000BFFDE780B400AF00BFFDE780B400AF25
:101FB00000BFFDE780B400AF00BFFDE780B400AF15
:101FC00000BFFDE780B400AF00BFBD4680BC7047D6
:101FD00080B400AF00BFBD4680BC704780B400AF86
:101FE00000BFBD4680BC704780B500AF00F094F9DB
:101FF00000BF80BD80B500AF024801F0D9FE00BF30
:1020000080BD00BF5802002080B500AF024801F03B
:10201000CFFE00BF80BD00BFE802002080B500AF4A
:10202000024801F0C5FE00BF80BD00BF30030020A4
:1020300080B500AF024802F00BFB00BF80BD00BFBF
:102040007803002080B400AF01231846BD4680BC51
:10205000704780B582B000AF7860396004F012F943
:10206000034616221A604FF0FF3318460837BD4664
:1020700080BD80B582B000AF78604FF0FF317868E6
:10208000FFF7E7FF00BFFDE780B586B000AFF8605F
:10209000B9607A6000237B610AE0AFF300800146FB
:1020A000BB685A1CBA60CAB21A707B6901337B6183
:1020B0007A697B689A42F0DB7B6818461837BD4620
:1020C00080BD80B586B000AFF860B9607A6000234B
:1020D0007B6109E0BB685A1CBA601B781846AFF3F5
:1020E00000807B6901337B617A697B689A42F1DB0E
:1020F0007B6818461837BD4680BD80B483B000AFFA
:1021000078604FF0FF3318460C37BD4680BC7047EF
:1021100080B483B000AF786039603B684FF4005200
:102120005A60002318460C37BD4680BC704780B407
:1021300083B000AF7860012318460C37BD4680BCE1
:10214000704780B485B000AFF860B9607A60002352
:1021500018461437BD4680BC7047000080B586B075
:1021600000AF7860144A154BD31A7B617B693B61E1
:10217000134B1B68002B02D1114B124A1A60104BF3
:102180001A687B6813443A699A4207D204F07AF8D5
:1021900003460C221A604FF0FF3309E0084B1B681E
:1021A000FB60074B1A687B681344054A1360FB68A1
:1021B00018461837BD4680BD0050002000040000BE
:1021C000240400208005002080B400AF00BFBD467D
:1021D00080BC704780B483B000AF7860064A7B68EB
:1021E0001360054B1B681B6800225A6200BF0C3746
:1021F000BD4680BC704700BF2804002080B400AFFB
:10220000034B1B681B685B6A1846BD4680BC704761
:102210002804002080B584B000AF7860FFF7EEFF9F
:10222000F86000BFFFF7EAFF0246FB68D31A7A683E
:102230009A42F7D800BF00BF1037BD4680BD0000EE
:10224000FFF7C2FF0B480C490C4A002302E0D458A8
:10225000C4500433C4188C42F9D3094A094C0023F2
:1022600001E013600432A242FBD304F011F8FFF73F
:10227000E5F9704700000020D4010020A4A7000861
:10228000D40100207C050020FEE7000080B500AFEF
:10229000084B1B68074A43F010031360032000F04B
:1022A00047F90F2000F008F8FFF744FD0023184617
:1022B00080BD00BF0020024080B582B000AF7860D2
:1022C000124B1A68124B1B7819464FF47A73B3FB02
:1022D000F1F3B2FBF3F3184600F05FF90346002B6D
:1022E00001D001230EE07B680F2B0AD80022796809
:1022F0004FF0FF3000F027F9064A7B681360002397
:1023000000E0012318460837BD4680BD00000020CC
:10231000080000200400002080B400AF054B1B78AB
:102320001A46054B1B681344034A136000BFBD46A1
:1023300080BC7047080000202C04002080B400AF4F
:10234000024B1B681846BD4680BC70472C04002019
:1023500080B584B000AF7860FFF7F0FFB8607B68AD
:10236000FB60FB68B3F1FF3F05D00A4B1B781A46B0
:10237000FB681344FB6000BFFFF7E0FF0246BB6849
:10238000D31AFA689A42F7D800BF00BF1037BD468B
:1023900080BD00BF0800002080B485B000AF786029
:1023A0007B6803F00703FB600C4BDB68BB60BA681B
:1023B0004FF6FF031340BB60FB681A02BB68134370
:1023C00043F0BF6343F40033BB60044ABB68D3608F
:1023D00000BF1437BD4680BC704700BF00ED00E071
:1023E00080B400AF044BDB681B0A03F007031846F8
:1023F000BD4680BC704700BF00ED00E080B483B0F4
:1024000000AF0346FB7197F90730002B0BDBFB791C
:1024100003F01F02064997F907305B09012000FA13
:1024200002F241F8232000BF0C37BD4680BC704744
:1024300000E100E080B483B000AF03463960FB7177
:1024400097F90730002B0ADB3B68DAB20C4997F9A1
:1024500007301201D2B20B4483F800230AE03B6834
:10246000DAB20849FB7903F00F03043B1201D2B240
:102470000B441A7600BF0C37BD4680BC704700BFC6
:1024800000E100E000ED00E080B489B000AFF8604A
:10249000B9607A60FB6803F00703FB61FB69C3F175
:1024A0000703042B28BF0423BB61FB690433062BFD
:1024B00002D9FB69033B00E000237B614FF0FF3250
:1024C000BB6902FA03F3DA43BB681A407B699A409E
:1024D0004FF0FF317B6901FA03F3D9437B680B406E
:1024E000134318462437BD4680BC704780B582B080
:1024F00000AF78607B68013BB3F1807F01D301239B
:102500000FE00A4A7B68013B53600F214FF0FF3018
:10251000FFF790FF054B00229A60044B07221A60D8
:10252000002318460837BD4680BD00BF10E000E01C
:1025300080B582B000AF78607868FFF72DFF00BFEC
:102540000837BD4680BD80B586B000AF0346B96090
:102550007A60FB7300237B61FFF742FF78617A6842
:10256000B9687869FFF790FF024697F90F30114676
:102570001846FFF75FFF00BF1837BD4680BD80B526
:1025800082B000AF0346FB7197F907301846FFF79A
:1025900035FF00BF0837BD4680BD80B582B000AFB3
:1025A00078607868FFF7A2FF034618460837BD46F3
:1025B00080BD80B485B000AF78600023FB737B687A
:1025C00093F82130DBB2022B08D07B6804229A6397
:1025D0007B68002283F82020012320E07B681B68B1
:1025E0001A687B681B6822F00E021A607B681B6801
:1025F0001A687B681B6822F001021A607B681A6CFB
:102600007B68DB6B012101FA02F25A607B680122D0
:1026100083F821207B68002283F82020FB7B18466A
:102620001437BD4680BC704780B584B000AF786079
:102630000023FB737B6893F82130DBB2022B05D0BB
:102640007B6804229A630123FB7351E07B681B685B
:102650001A687B681B6822F00E021A607B681B6890
:102660001A687B681B6822F001021A607B681B688D
:10267000224A934229D07B681B68214A934222D088
:102680007B681B681F4A93421AD07B681B681E4AEE
:10269000934212D07B681B681C4A93420AD07B6825
:1026A0001B681B4A934202D14FF480130EE04FF097
:1026B00080730BE04FF4803308E04FF4805305E063
:1026C0004FF4807302E0102300E00123114A5360AD
:1026D0007B68012283F821207B68002283F8202078
:1026E0007B685B6B002B03D07B685B6B78689847DB
:1026F000FB7B18461037BD4680BD00BF0800024076
:102700001C000240300002404400024058000240D9
:102710006C0002400000024080B48BB000AF7860D3
:10272000396000237B6200233B6269E101227B6AFE
:1027300002FA03F3FB613B681B68FA691340BB6153
:10274000BA69FB699A4240F058813B685B689A4AD3
:1027500093425ED0984A934275D8984A934258D093
:10276000964A93426FD8964A934252D0944A9342E3
:1027700069D8944A93424CD0924A934263D8924A81
:10278000934246D0904A93425DD8122B2AD8122BFE
:1027900059D801A252F823F013280008ED270008A9
:1027A000FF2700084128000847280008472800089C
:1027B000472800084728000847280008472800083D
:1027C000472800084728000847280008472800082D
:1027D000472800084728000847280008F527000870
:1027E00009280008794A934213D02CE03B68DB6843
:1027F0003B6229E03B68DB6804333B6224E03B68D2
:10280000DB6808333B621FE03B68DB680C333B62EC
:102810001AE03B689B68002B02D104233B6213E063
:102820003B689B68012B05D108233B627B68FA69F2
:102830001A6109E008233B627B68FA695A6103E088
:1028400000233B6200E000BFBB69FF2B01D87B681F
:1028500001E07B6804337B61BB69FF2B02D87B6A94
:102860009B0002E07B6A083B9B003B617B691A6826
:102870000F213B6901FA03F3DB431A40396A3B69D4
:1028800001FA03F31A437B691A603B685B6803F043
:102890008053002B00F0B1804D4B9B694C4A43F0B4
:1028A000010393614A4B9B6903F00103BB60BB6862
:1028B000484A7B6A9B08023352F82330FB607B6AEC
:1028C00003F003039B000F2202FA03F3DB43FA68D1
:1028D0001340FB607B68404A934213D07B683F4AB9
:1028E00093420DD07B683E4A934207D07B683D4AB5
:1028F000934201D1032306E0042304E0022302E013
:10290000012300E000237A6A02F003029200934060
:10291000FA681343FB602F497B6A9B080233FA680D
:1029200041F823203B685B6803F48013002B06D03A
:102930002D4B9A682C49BB6913438B6006E02A4BE8
:102940009A68BB69DB43284913408B603B685B682E
:1029500003F40013002B06D0234BDA682249BB692D
:102960001343CB6006E0204BDA68BB69DB431E49AA
:102970001340CB603B685B6803F40033002B06D048
:10298000194B5A681849BB6913434B6006E0164B54
:102990005A68BB69DB43144913404B603B685B6872
:1029A00003F48033002B21D00F4B1A680E49BB690A
:1029B00013430B6021E000BF000032100000311013
:1029C0000000221000002110000012100000111061
:1029D000001002400000014000080140000C0140CE
:1029E0000010014000140140000401400B4B1A6824
:1029F000BB69DB43094913400B607B6A01337B628F
:102A00003B681A687B6A22FA03F3002B7FF48EAED0
:102A100000BF00BF2C37BD4680BC7047000401409A
:102A200080B485B000AF78600B467B807B689A6885
:102A30007B881340002B02D00123FB7301E00023AD
:102A4000FB73FB7B18461437BD4680BC704780B4CF
:102A500083B000AF78600B467B8013467B707B7839
:102A6000002B03D07A887B681A6103E07B881A0404
:102A70007B681A6100BF0C37BD4680BC7047000000
:102A800080B584B000AF78607B68002B01D1012352
:102A90002BE17B6893F83D30DBB2002B06D17B68DD
:102AA000002283F83C207868FFF776F97B682422BF
:102AB00083F83D207B681B681A687B681B6822F0DE
:102AC00001021A607B681B681A687B681B6842F405
:102AD00000421A607B681B681A687B681B6822F4D6
:102AE00000421A6001F032F8F8607B685B68814A46
:102AF000934207D8FB68804A934294BF0123002386
:102B0000DBB206E0FB687D4A934294BF01230023B9
:102B1000DBB2002B01D00123E7E0FB68784AA2FB7F
:102B200003239B0CBB607B681B685B6823F03F0141
:102B30007B681B68BA680A435A607B681B681B6A1B
:102B400023F03F017B685B686A4A934202D8BB6806
:102B5000013309E0BB684FF4967202FB03F3694A44
:102B6000A2FB03239B0901337A6812680B431362AB
:102B70007B681B68DB6923F44F4222F0FF027B680D
:102B80005B685C498B4219D8FB68591E7B685B689F
:102B90005B00B1FBF3F3591C40F6FC730B40002BB8
:102BA0000AD0FB68591E7B685B685B00B1FBF3F3DE
:102BB0000133C3F30B0351E004234FE07B689B68B0
:102BC000002B11D1FB68581E7B6859680B465B00CF
:102BD0000B44B0FBF3F30133C3F30B03002B0CBF27
:102BE00001230023DBB212E0FB68581E7B685968A2
:102BF0000B469B000B4499000B44B0FBF3F30133ED
:102C0000C3F30B03002B0CBF01230023DBB2002B0B
:102C100001D0012322E07B689B68002B0ED1FB686A
:102C2000581E7B6859680B465B000B44B0FBF3F3FE
:102C30000133C3F30B0343F400430FE0FB68581E5A
:102C40007B6859680B469B000B4499000B44B0FB12
:102C5000F3F30133C3F30B0343F44043796809688A
:102C60001343CB617B681B681B6823F0C0017B6842
:102C7000DA697B681B6A1A437B681B680A431A601F
:102C80007B681B689B6823F4034323F0FF037A6887
:102C900011697A68D26811437A6812680B439360AD
:102CA0007B681B68DB6823F0FF017B685A697B68DF
:102CB0009B691A437B681B680A43DA607B681B6860
:102CC0001A687B681B6842F001021A607B68002268
:102CD0001A647B68202283F83D207B6800221A63F7
:102CE0007B68002283F83E20002318461037BD463B
:102CF00080BD00BFA08601007F841E00FF083D004C
:102D000083DE1B43D34D621080B588B002AFF860FC
:102D10007A601A460B467B8113463B81FFF70EFB18
:102D20007861FB6893F83D30DBB2202B40F0E08007
:102D30007B690093192301227049F86800F064F957
:102D40000346002B01D00223D3E0FB6893F83C300C
:102D5000012B01D10223CCE0FB68012283F83C2047
:102D6000FB681B681B6803F00103012B07D0FB689D
:102D70001B681A68FB681B6842F001021A60FB6856
:102D80001B681A68FB681B6822F400621A60FB6803
:102D9000212283F83D20FB68102283F83E20FB6847
:102DA00000221A64FB687A685A62FB683A895A857D
:102DB000FB685B8D9AB2FB681A85FB68504ADA6241
:102DC00079897B693A6AF86800F09CF80346002B21
:102DD00001D001238DE000233B61FB681B685B6928
:102DE0003B61FB681B689B693B613B6966E07A69F4
:102DF000396AF86800F022FA0346002B0DD0FB6810
:102E00001B6C042B07D1FB681B681A68FB681B68E6
:102E100042F400721A6001236BE0FB685B6A1A7867
:102E2000FB681B681A61FB685B6A5A1CFB685A6284
:102E3000FB685B8D9BB2013B9AB2FB685A85FB68CD
:102E40001B8D013B9AB2FB681A85FB681B685B69A6
:102E500003F00403042B1BD1FB681B8D002B17D040
:102E6000FB685B6A1A78FB681B681A61FB685B6A1F
:102E70005A1CFB685A62FB685B8D9BB2013B9AB29D
:102E8000FB685A85FB681B8D013B9AB2FB681A856B
:102E90007A69396AF86800F019FA0346002B0DD0F8
:102EA000FB681B6C042B07D1FB681B681A68FB6866
:102EB0001B6842F400721A6001231AE0FB681B8D44
:102EC000002B94D1FB681B681A68FB681B6842F4EE
:102ED00000721A60FB68202283F83D20FB68002204
:102EE00083F83E20FB68002283F83C20002300E0AA
:102EF000022318461837BD4680BD00BF02001000EF
:102F00000000FFFF80B588B002AFF8607A603B60D8
:102F10000B467B81FB68DB6A7B617B69082B06D0F3
:102F20007B69012B03D07B6913F5803F08D1FB68D7
:102F30001B681A68FB681B6842F480721A600BE019
:102F4000FB681B6B122B07D1FB681B681A68FB68B8
:102F50001B6842F480721A603B6800937B68002211
:102F60004FF00111F86800F04FF80346002B0DD028
:102F7000FB681B681B6803F48073B3F5807F03D183
:102F8000FB684FF400721A64032335E0FB681B6989
:102F9000B3F5804F08D17B89DBB21A46FB681B680A
:102FA00002F0FE021A611BE07B89DB11DBB203F049
:102FB0000603DBB263F00F03DAB2FB681B681A6129
:102FC0003B687A680E49F86800F098F80346002BD1
:102FD00001D0012310E07B89DAB2FB681B681A611B
:102FE0003B687A680749F86800F088F80346002BC8
:102FF00001D0012300E0002318461837BD4680BDEC
:10300000080001000200010080B584B000AFF86044
:10301000B9603B601346FB7148E03B68B3F1FF3F8A
:1030200044D0FFF78BF90246BB69D31A3A689A423B
:1030300002D33B68002B39D1BB681B0CDBB2012BE0
:103040000DD1FB681B685B69DA43BB6813409BB218
:10305000002B0CBF01230023DBB21A460CE0FB68F7
:103060001B689B69DA43BB6813409BB2002B0CBF03
:1030700001230023DBB21A46FB799A4216D1FB6882
:1030800000221A63FB68202283F83D20FB6800229F
:1030900083F83E20FB681B6C43F02002FB681A6437
:1030A000FB68002283F83C20012323E0BB681B0C53
:1030B000DBB2012B0DD1FB681B685B69DA43BB688F
:1030C00013409BB2002B0CBF01230023DBB21A4636
:1030D0000CE0FB681B689B69DA43BB6813409BB23A
:1030E000002B0CBF01230023DBB21A46FB799A4266
:1030F00093D0002318461037BD4680BD80B584B0FC
:1031000000AFF860B9607A603B6071E0FB681B68F3
:103110005B6903F48063B3F5806F23D1FB681B68A0
:103120001A68FB681B6842F400721A60FB681B682F
:103130006FF480625A61FB6800221A63FB682022E8
:1031400083F83D20FB68002283F83E20FB681B6C5F
:1031500043F00402FB681A64FB68002283F83C20F9
:10316000012367E07B68B3F1FF3F41D0FFF7E6F84A
:1031700002463B68D31A7A689A4202D37B68002BD6
:1031800036D1BB681B0CDBB2012B0CD1FB681B6872
:103190005B69DA43BB6813409BB2002B14BF012369
:1031A0000023DBB20BE0FB681B689B69DA43BB685A
:1031B00013409BB2002B14BF01230023DBB2002B72
:1031C00016D0FB6800221A63FB68202283F83D209A
:1031D000FB68002283F83E20FB681B6C43F0200252
:1031E000FB681A64FB68002283F83C20012321E07D
:1031F000BB681B0CDBB2012B0CD1FB681B685B6945
:10320000DA43BB6813409BB2002B14BF0123002399
:10321000DBB20BE0FB681B689B69DA43BB681340B9
:103220009BB2002B14BF01230023DBB2002B7FF4E1
:103230006DAF002318461037BD4680BD80B584B001
:1032400000AFF860B9607A6034E0F86800F086F8A2
:103250000346002B01D0012334E0BB68B3F1FF3FEC
:1032600028D0FFF76BF802467B68D31ABA689A42F7
:1032700002D3BB68002B1DD1FB681B685B6903F0A0
:103280008003802B16D0FB6800221A63FB68202283
:1032900083F83D20FB68002283F83E20FB681B6C0E
:1032A00043F02002FB681A64FB68002283F83C208C
:1032B000012307E0FB681B685B6903F08003802B38
:1032C000C3D1002318461037BD4680BD80B584B0F9
:1032D00000AFF860B9607A6034E0F86800F03EF85A
:1032E0000346002B01D0012334E0BB68B3F1FF3F5C
:1032F00028D0FFF723F802467B68D31ABA689A42AF
:1033000002D3BB68002B1DD1FB681B685B6903F00F
:103310000403042B16D0FB6800221A63FB682022EA
:1033200083F83D20FB68002283F83E20FB681B6C7D
:1033300043F02002FB681A64FB68002283F83C20FB
:10334000012307E0FB681B685B6903F00403042B9F
:10335000C3D1002318461037BD4680BD80B483B06A
:1033600000AF78607B681B685B6903F48063B3F52A
:10337000806F1BD17B681B686FF480625A617B6829
:1033800000221A637B68202283F83D207B6800229C
:1033900083F83E207B681B6C43F004027B681A6450
:1033A0007B68002283F83C20012300E000231846BC
:1033B0000C37BD4680BC704780B586B000AF7860E2
:1033C0007B68002B01D1012372E27B681B6803F04C
:1033D0000103002B00F08780924B5B6803F00C0325
:1033E000042B0CD08F4B5B6803F00C03082B12D11D
:1033F0008C4B5B6803F48033B3F5803F0BD1894B72
:103400001B6803F40033002B6CD07B685B68002BD7
:1034100068D101234CE27B685B68B3F5803F06D13D
:10342000804B1B687F4A43F4803313602EE07B6837
:103430005B68002B0CD17B4B1B687A4A23F48033EA
:103440001360784B1B68774A23F4802313601DE0D8
:103450007B685B68B3F5A02F0CD1724B1B68714A77
:1034600043F4802313606F4B1B686E4A43F4803330
:1034700013600BE06B4B1B686A4A23F480331360C4
:10348000684B1B68674A23F4802313607B685B6882
:10349000002B13D0FEF752FF386108E0FEF74EFF15
:1034A00002463B69D31A642B01D9032300E25D4B2A
:1034B0001B6803F40033002BF0D014E0FEF73EFF4E
:1034C000386108E0FEF73AFF02463B69D31A642BE5
:1034D00001D90323ECE1534B1B6803F40033002BA9
:1034E000F0D100E000BF7B681B6803F00203002BF3
:1034F00063D04C4B5B6803F00C03002B0BD0494BA3
:103500005B6803F00C03082B1CD1464B5B6803F48B
:103510008033002B16D1434B1B6803F00203002BB2
:1035200005D07B681B69012B01D00123C0E13D4B15
:103530001B6823F0F8027B685B69DB0039491343A1
:103540000B603AE07B681B69002B20D0364B0122D0
:103550001A60FEF7F3FE386108E0FEF7EFFE024660
:103560003B69D31A022B01D90323A1E12D4B1B6820
:1035700003F00203002BF0D02A4B1B6823F0F80263
:103580007B685B69DB00274913430B6015E0264B22
:1035900000221A60FEF7D2FE386108E0FEF7CEFE88
:1035A00002463B69D31A022B01D9032380E11D4B4C
:1035B0001B6803F00203002BF0D17B681B6803F04B
:1035C0000803002B3AD07B689B69002B19D0174B5E
:1035D00001221A60FEF7B2FE386108E0FEF7AEFE87
:1035E00002463B69D31A022B01D9032360E10D4B3C
:1035F0005B6A03F00203002BF0D0012000F0CEFA4A
:103600001CE00A4B00221A60FEF798FE38610FE0BA
:10361000FEF794FE02463B69D31A022B08D9032316
:1036200046E100BF001002400000424280044242D6
:10363000924B5B6A03F00203002BE9D17B681B68A5
:1036400003F00403002B00F0A6800023FB758B4BD6
:10365000DB6903F08053002B0DD1884BDB69874A6F
:1036600043F08053D361854BDB6903F08053BB602B
:10367000BB680123FB75824B1B6803F48073002B2E
:1036800018D17F4B1B687E4A43F480731360FEF7AA
:1036900055FE386108E0FEF751FE02463B69D31A39
:1036A000642B01D9032303E1754B1B6803F480737A
:1036B000002BF0D07B68DB68012B06D16F4B1B6AB7
:1036C0006E4A43F0010313622DE07B68DB68002B38
:1036D0000CD16A4B1B6A694A23F001031362674BE2
:1036E0001B6A664A23F0040313621CE07B68DB68F4
:1036F000052B0CD1614B1B6A604A43F00403136233
:103700005E4B1B6A5D4A43F0010313620BE05B4BA7
:103710001B6A5A4A23F001031362584B1B6A574A2B
:1037200023F0040313627B68DB68002B15D0FEF7DF
:1037300005FE38610AE0FEF701FE02463B69D31A36
:1037400041F28832934201D90323B1E04B4B1B6A0B
:1037500003F00203002BEED014E0FEF7EFFD38611A
:103760000AE0FEF7EBFD02463B69D31A41F28832CC
:10377000934201D903239BE0404B1B6A03F00203F1
:10378000002BEED1FB7D012B05D13C4BDB693B4A85
:1037900023F08053D3617B68DB69002B00F08780C6
:1037A000364B5B6803F00C03082B61D07B68DB6948
:1037B000022B46D1334B00221A60FEF7BFFD386161
:1037C00008E0FEF7BBFD02463B69D31A022B01D984
:1037D00003236DE0294B1B6803F00073002BF0D12D
:1037E0007B681B6AB3F5803F08D1244B5B6823F4E8
:1037F00000327B689B68214913434B601F4B5B6819
:1038000023F474127B68196A7B685B6A0B431B495B
:1038100013434B601B4B01221A60FEF78FFD38618A
:1038200008E0FEF78BFD02463B69D31A022B01D953
:1038300003233DE0114B1B6803F00073002BF0D015
:1038400035E0104B00221A60FEF778FD386108E081
:10385000FEF774FD02463B69D31A022B01D90323FC
:1038600026E0064B1B6803F00073002BF0D11EE02E
:103870007B68DB69012B07D1012319E000100240AE
:1038800000700040600042420B4B5B68FB60FB68CD
:1038900003F480327B681B6A9A4206D1FB6803F40A
:1038A00070127B685B6A9A4201D0012300E000231A
:1038B00018461837BD4680BD0010024080B584B060
:1038C00000AF786039607B68002B01D10123D0E024
:1038D0006A4B1B6803F007033A689A4210D9674B9A
:1038E0001B6823F0070265493B6813430B60634B79
:1038F0001B6803F007033A689A4201D00123B8E03D
:103900007B681B6803F00203002B20D07B681B68D8
:1039100003F00403002B05D0594B5B68584A43F46D
:10392000E06353607B681B6803F00803002B05D03D
:10393000534B5B68524A43F460535360504B5B688F
:1039400023F0F0027B689B684D4913434B607B6812
:103950001B6803F00103002B40D07B685B68012BE0
:1039600007D1474B1B6803F40033002B15D101230B
:103970007FE07B685B68022B07D1414B1B6803F03B
:103980000073002B09D1012373E03D4B1B6803F04A
:103990000203002B01D101236BE0394B5B6823F05C
:1039A00003027B685B68364913434B60FEF7C6FC35
:1039B000F8600AE0FEF7C2FC0246FB68D31A41F247
:1039C0008832934201D9032353E02D4B5B6803F007
:1039D0000C027B685B689B009A42EBD1274B1B680B
:1039E00003F007033A689A4210D2244B1B6823F075
:1039F000070222493B6813430B60204B1B6803F00E
:103A000007033A689A4201D0012332E07B681B68C1
:103A100003F00403002B08D0194B5B6823F4E06229
:103A20007B68DB68164913434B607B681B6803F0B7
:103A30000803002B09D0124B5B6823F460527B68AB
:103A40001B69DB000E4913434B6000F021F802466E
:103A50000B4B5B681B0903F00F030A49CB5C22FA8E
:103A600003F3094A1360094B1B681846FEF724FC50
:103A7000002318461037BD4680BD00BF002002401D
:103A800000100240CCA2000800000020040000202A
:103A900080B487B000AF0023FB600023BB6000232D
:103AA0007B6100237B6000233B611E4B5B68FB60F6
:103AB000FB6803F00C03042B02D0082B03D027E093
:103AC000194B3B6127E0FB689B0C03F00F03174A7F
:103AD000D35C7B60FB6803F48033002B10D0114B68
:103AE0005B685B0C03F00103114AD35CBB607B682D
:103AF0000D4A03FB02F2BB68B2FBF3F37B6104E007
:103B00007B680C4A02FB03F37B617B693B6102E04B
:103B1000054B3B6100BF3B6918461C37BD4680BC66
:103B2000704700BF0010024000127A00E4A20008B3
:103B3000F4A2000800093D0080B400AF024B1B68EE
:103B40001846BD4680BC70470000002080B500AF1D
:103B5000FFF7F2FF0246054B5B681B0A03F0070301
:103B60000349CB5C22FA03F3184680BD00100240E3
:103B7000DCA2000880B500AFFFF7DEFF0246054B70
:103B80005B68DB0A03F007030349CB5C22FA03F30B
:103B9000184680BD00100240DCA2000880B485B049
:103BA00000AF78600A4B1B680A4AA2FB03235B0A3A
:103BB0007A6802FB03F3FB6000BFFB685A1EFA60E1
:103BC000002BF9D100BF00BF1437BD4680BC704741
:103BD00000000020D34D621080B582B000AF786045
:103BE0007B68002B01D1012341E07B6893F83D30D5
:103BF000DBB2002B06D17B68002283F83C2078687A
:103C0000FEF708F97B68022283F83D207B681A687A
:103C10007B6804331946104600F0A6FA7B6801223F
:103C200083F846207B68012283F83E207B680122CE
:103C300083F83F207B68012283F840207B680122C3
:103C400083F841207B68012283F842207B680122AF
:103C500083F843207B68012283F844207B6801229B
:103C600083F845207B68012283F83D200023184615
:103C70000837BD4680BD000080B485B000AF7860D5
:103C80007B6893F83D30DBB2012B01D0012332E099
:103C90007B68022283F83D207B681B68184A9342A8
:103CA0000ED07B681B68B3F1804F09D07B681B681E
:103CB000144A934204D07B681B68134A934211D183
:103CC0007B681B689B6803F00703FB60FB68062B9F
:103CD00010D07B681B681A687B681B6842F0010281
:103CE0001A6007E07B681B681A687B681B6842F0F3
:103CF00001021A60002318461437BD4680BC704785
:103D0000002C0140000400400008004080B485B051
:103D100000AF78607B6893F83D30DBB2012B01D0B7
:103D200001233AE07B68022283F83D207B681B6810
:103D3000DA687B681B6842F00102DA607B681B6806
:103D4000184A93420ED07B681B68B3F1804F09D0AC
:103D50007B681B68144A934204D07B681B68134A33
:103D6000934211D17B681B689B6803F00703FB60DB
:103D7000FB68062B10D07B681B681A687B681B6881
:103D800042F001021A6007E07B681B681A687B68D2
:103D90001B6842F001021A60002318461437BD4622
:103DA00080BC7047002C0140000400400008004027
:103DB00080B584B000AF78607B681B68DB68FB600F
:103DC0007B681B681B69BB60BB6803F00203002BA8
:103DD00020D0FB6803F00203002B1BD07B681B681C
:103DE0006FF002021A617B6801221A777B681B68F8
:103DF0009B6903F00303002B03D0786800F098F967
:103E000005E0786800F08BF9786800F09AF97B6833
:103E100000221A77BB6803F00403002B20D0FB6854
:103E200003F00403002B1BD07B681B686FF00402B7
:103E30001A617B6802221A777B681B689B6903F40E
:103E40004073002B03D0786800F072F905E07868C1
:103E500000F065F9786800F074F97B6800221A7741
:103E6000BB6803F00803002B20D0FB6803F00803B5
:103E7000002B1BD07B681B686FF008021A617B68FF
:103E800004221A777B681B68DB6903F00303002BAD
:103E900003D0786800F04CF905E0786800F03FF94D
:103EA000786800F04EF97B6800221A77BB6803F04F
:103EB0001003002B20D0FB6803F01003002B1BD055
:103EC0007B681B686FF010021A617B6808221A7702
:103ED0007B681B68DB6903F44073002B03D07868B0
:103EE00000F026F905E0786800F019F9786800F02C
:103EF00028F97B6800221A77BB6803F00103002BC6
:103F00000CD0FB6803F00103002B07D07B681B6813
:103F10006FF001021A617868FDF78AFEBB6803F052
:103F20008003002B0CD0FB6803F08003002B07D02C
:103F30007B681B686FF080021A61786800F07FFA76
:103F4000BB6803F04003002B0CD0FB6803F0400378
:103F5000002B07D07B681B686FF040021A617868FD
:103F600000F0F8F8BB6803F02003002B0CD0FB68CE
:103F700003F02003002B07D07B681B686FF0200242
:103F80001A61786800F052FA00BF1037BD4680BD54
:103F900080B584B000AF786039600023FB737B6824
:103FA00093F83C30012B01D10223B4E07B6801225D
:103FB00083F83C207B68022283F83D207B681B68E5
:103FC0009B68BB60BB6823F07703BB60BB6823F4CE
:103FD0007F43BB607B681B68BA689A603B681B685C
:103FE000B3F5005F3ED0B3F5005F00F28780B3F514
:103FF000805F00F08680B3F5805F7FD8702B1AD089
:10400000702B7BD8602B50D0602B77D8502B3CD0B6
:10401000502B73D8402B58D0402B6FD8302B64D006
:10402000302B6BD8202B60D0202B67D8002B5CD096
:10403000102B5AD062E07B6818683B6899683B682F
:104040005A683B68DB6800F074F97B681B689B6802
:10405000BB60BB6843F07703BB607B681B68BA68D2
:104060009A604FE07B6818683B6899683B685A68BB
:104070003B68DB6800F05DF97B681B689A687B68C9
:104080001B6842F480429A603CE07B6818683B6899
:1040900059683B68DB681A4600F0D4F87B681B68F7
:1040A0005021184600F02BF92CE07B6818683B681B
:1040B00059683B68DB681A4600F0F2F87B681B68B9
:1040C0006021184600F01BF91CE07B6818683B680B
:1040D00059683B68DB681A4600F0B4F87B681B68D7
:1040E0004021184600F00BF90CE07B681A683B6829
:1040F0001B681946104600F002F903E00123FB7328
:1041000000E000BF7B68012283F83D207B6800222D
:1041100083F83C20FB7B18461037BD4680BD80B439
:1041200083B000AF786000BF0C37BD4680BC7047DD
:1041300080B483B000AF786000BF0C37BD4680BC50
:10414000704780B483B000AF786000BF0C37BD46C5
:1041500080BC704780B483B000AF786000BF0C377C
:10416000BD4680BC7047000080B485B000AF786069
:1041700039607B681B68FB607B682F4A93420BD0D9
:104180007B68B3F1804F07D07B682C4A934203D001
:104190007B682B4A934208D1FB6823F07003FB60D5
:1041A0003B685B68FA681343FB607B68224A934272
:1041B0000BD07B68B3F1804F07D07B681F4A9342D6
:1041C00003D07B681E4A934208D1FB6823F44073F6
:1041D000FB603B68DB68FA681343FB60FB6823F015
:1041E00080023B685B691343FB607B68FA681A6076
:1041F0003B689A687B68DA623B681A687B689A62F7
:104200007B680D4A934203D13B681A697B681A6345
:104210007B6801225A617B681B6903F00103002B54
:1042200005D07B681B6923F001027B681A6100BF1F
:104230001437BD4680BC7047002C0140000400408C
:104240000008004080B487B000AFF860B9607A60C1
:10425000FB681B6A7B61FB681B6A23F00102FB6839
:104260001A62FB689B693B613B6923F0F0033B6189
:104270007B681B013A6913433B617B6923F00A03A6
:104280007B617A69BB6813437B61FB683A699A6119
:10429000FB687A691A6200BF1C37BD4680BC704754
:1042A00080B487B000AFF860B9607A60FB681B6AC1
:1042B0007B61FB681B6A23F01002FB681A62FB68D3
:1042C0009B693B613B6923F470433B617B681B0343
:1042D0003A6913433B617B6923F0A0037B61BB68B0
:1042E0001B017A6913437B61FB683A699A61FB6839
:1042F0007A691A6200BF1C37BD4680BC704780B423
:1043000085B000AF786039607B689B68FB60FB68B4
:1043100023F07003FB603A68FB68134343F0070324
:10432000FB607B68FA689A6000BF1437BD4680BCAA
:10433000704780B487B000AFF860B9607A603B60C6
:10434000FB689B687B617B6923F47F437B613B68EF
:104350001A027B681A43BB6813437A6913437B6173
:10436000FB687A699A6000BF1C37BD4680BC704705
:1043700080B485B000AF786039607B6893F83C30DA
:10438000012B01D1022346E07B68012283F83C2007
:104390007B68022283F83D207B681B685B68FB60BA
:1043A0007B681B689B68BB60FB6823F07003FB6045
:1043B0003B681B68FA681343FB607B681B68FA68FC
:1043C0005A607B681B68164A93420ED07B681B6854
:1043D000B3F1804F09D07B681B68124A934204D026
:1043E0007B681B68104A93420CD1BB6823F08003A2
:1043F000BB603B685B68BA681343BB607B681B6843
:10440000BA689A607B68012283F83D207B680022AD
:1044100083F83C20002318461437BD4680BC704703
:10442000002C0140000400400008004080B483B02C
:1044300000AF786000BF0C37BD4680BC704780B4C9
:1044400083B000AF786000BF0C37BD4680BC7047BA
:1044500080B582B000AF78607B68002B01D101236A
:1044600042E07B6893F84130DBB2002B06D17B68D9
:10447000002283F840207868FDF73CFD7B68242209
:1044800083F841207B681B68DA687B681B6822F42C
:104490000052DA60786800F0B7FD7B681B681A6923
:1044A0007B681B6822F490421A617B681B685A691A
:1044B0007B681B6822F02A025A617B681B68DA68F5
:1044C0007B681B6842F40052DA607B6800225A6401
:1044D0007B68202283F841207B68202283F84220D9
:1044E0007B6800225A63002318460837BD4680BD0A
:1044F00080B58AB002AFF860B9603B601346FB80BC
:1045000000237B61FB6893F84130DBB2202B75D12F
:10451000BB68002B02D0FB88002B01D101236EE089
:10452000FB6800225A64FB68212283F84120FDF7D2
:1045300005FF7861FB68FA889A84FB68FA88DA8458
:10454000FB689B68B3F5805F08D1FB681B69002B93
:1045500004D10023FB61BB68BB6103E0BB68FB6166
:104560000023BB612EE03B6800937B690022802121
:10457000F86800F01CFB0346002B05D0FB682022E6
:1045800083F8412003233AE0FB69002B0BD1BB6980
:104590001B881A46FB681B68C2F308025A60BB6995
:1045A0000233BB6107E0FB691A78FB681B685A603D
:1045B000FB690133FB61FB68DB8C9BB2013B9AB268
:1045C000FB68DA84FB68DB8C9BB2002BCBD13B68A9
:1045D00000937B6900224021F86800F0E8FA034666
:1045E000002B05D0FB68202283F84120032306E03E
:1045F000FB68202283F84120002300E002231846B4
:104600002037BD4680BD80B584B000AFF860B9608A
:104610001346FB80FB6893F84230DBB2202B12D1AB
:10462000BB68002B02D0FB88002B01D101230BE0DB
:10463000FB6800221A63FB881A46B968F86800F024
:104640000FFB034600E0022318461037BD4680BD2D
:1046500080B5BAB000AF78607B681B681B68C7F88C
:10466000E4307B681B68DB68C7F8E0307B681B6858
:104670005B69C7F8DC300023C7F8D8300023C7F8DF
:10468000D430D7F8E43003F00F03C7F8D830D7F8A8
:10469000D830002B0FD1D7F8E43003F02003002BE3
:1046A00009D0D7F8E03003F02003002B03D078685E
:1046B00000F0ECFB5BE2D7F8D830002B00F0DE8096
:1046C000D7F8DC3003F00103002B06D1D7F8E03037
:1046D00003F49073002B00F0D180D7F8E43003F09E
:1046E0000103002B0BD0D7F8E03003F48073002BCC
:1046F00005D07B685B6C43F001027B685A64D7F895
:10470000E43003F00403002B0BD0D7F8DC3003F0C7
:104710000103002B05D07B685B6C43F002027B68D1
:104720005A64D7F8E43003F00203002B0BD0D7F81B
:10473000DC3003F00103002B05D07B685B6C43F099
:1047400004027B685A64D7F8E43003F00803002BB6
:1047500011D0D7F8E03003F02003002B05D1D7F8B3
:10476000DC3003F00103002B05D07B685B6C43F069
:1047700008027B685A647B685B6C002B00F0F28156
:10478000D7F8E43003F02003002B08D0D7F8E0304E
:1047900003F02003002B02D0786800F077FB7B68E1
:1047A0001B685B6903F04003002B14BF0123002347
:1047B000DBB2C7F8D4307B685B6C03F00803002BD6
:1047C00003D1D7F8D430002B4FD0786800F081FAAD
:1047D0007B681B685B6903F04003002B41D07B685A
:1047E0001B681433C7F89C30D7F89C3053E8003F5F
:1047F000C7F89830D7F8983023F04003C7F8D03086
:104800007B681B681433D7F8D020C7F8A820C7F8F6
:10481000A430D7F8A410D7F8A82041E80023C7F89F
:10482000A030D7F8A030002BD9D17B68DB6B002BF0
:1048300013D07B68DB6B7E4A5A637B68DB6B184660
:10484000FDF7F2FE0346002B16D07B68DB6B5B6B3B
:104850007A68D26B104698470EE0786800F093F9BA
:104860000AE0786800F08FF906E0786800F08BF9CC
:104870007B6800225A6475E100BF73E17B681B6BA3
:10488000012B40F04F81D7F8E43003F01003002BE8
:1048900000F04881D7F8E03003F01003002B00F05F
:1048A00041810023BB607B681B681B68BB607B6821
:1048B0001B685B68BB60BB687B681B685B6903F057
:1048C0004003002B00F0B6807B68DB6B1B685B68E5
:1048D000A7F8BE30B7F8BE30002B00F045817B68EA
:1048E0009B8DB7F8BE209A4280F03E817B68B7F876
:1048F000BE20DA857B68DB6B9B69202B00F088800B
:104900007B681B680C33C7F88830D7F8883053E8C9
:10491000003FC7F88430D7F8843023F48073C7F899
:10492000B8307B681B680C33D7F8B820C7F89420E0
:10493000C7F89030D7F89010D7F8942041E80023BA
:10494000C7F88C30D7F88C30002BD9D17B681B6826
:1049500014337B677B6F53E8003F3B673B6F23F06B
:104960000103C7F8B4307B681B681433D7F8B42050
:10497000C7F88020FB67F96FD7F8802041E8002353
:10498000BB67BB6F002BE1D17B681B6814333B66B0
:104990003B6E53E8003FFB65FB6D23F04003C7F817
:1049A000B0307B681B681433D7F8B020FA66BB665A
:1049B000B96EFA6E41E800237B667B6E002BE3D173
:1049C0007B68202283F842207B6800221A637B6880
:1049D0001B680C33FB64FB6C53E8003FBB64BB6C8F
:1049E00023F01003C7F8AC307B681B680C33D7F892
:1049F000AC20BA657B65796DBA6D41E800233B65F3
:104A00003B6D002BE3D17B68DB6B1846FDF7D1FDD6
:104A10007B6802225A637B689A8D7B68DB8D9BB230
:104A2000D31A9BB21946786800F0B6F89CE000BF34
:104A3000974D00087B689A8D7B68DB8D9BB2D31AFB
:104A4000A7F8CE307B68DB8D9BB2002B00F08E8008
:104A5000B7F8CE30002B00F089807B681B680C33E0
:104A6000BB63BB6B53E8003F7B637B6B23F49073AA
:104A7000C7F8C8307B681B680C33D7F8C8207A6445
:104A80003B64396C7A6C41E80023FB63FB6B002BC1
:104A9000E3D17B681B6814337B627B6A53E8003F79
:104AA0003B623B6A23F00103C7F8C4307B681B6894
:104AB0001433D7F8C4203A63FB62F96A3A6B41E8D1
:104AC0000023BB62BB6A002BE3D17B68202283F802
:104AD00042207B6800221A637B681B680C333B61B1
:104AE0003B6953E8003FFB60FB6823F01003C7F805
:104AF000C0307B681B680C33D7F8C020FA61BB61FB
:104B0000B969FA6941E800237B617B69002BE3D135
:104B10007B6802225A63B7F8CE301946786800F0F5
:104B20003BF823E0D7F8E43003F08003002B09D0F2
:104B3000D7F8E03003F08003002B03D0786800F052
:104B40003EF914E0D7F8E43003F04003002B0ED018
:104B5000D7F8E03003F04003002B08D0786800F06D
:104B60007DF904E000BF02E000BF00E000BFE837CD
:104B7000BD4680BD80B483B000AF786000BF0C3705
:104B8000BD4680BC704780B483B000AF786000BF82
:104B90000C37BD4680BC704780B483B000AF7860EE
:104BA0000B467B8000BF0C37BD4680BC704780B58C
:104BB00086B000AFF860B9603B601346FB713BE024
:104BC0003B6AB3F1FF3F37D0FDF7B8FB02463B68C5
:104BD000D31A3A6A9A4202D33B6A002B01D10323CB
:104BE0003AE0FB681B68DB6803F00403002B23D06A
:104BF000BB68802B20D0BB68402B1DD0FB681B6896
:104C00001B6803F00803082B16D100237B61FB68A7
:104C10001B681B687B61FB681B685B687B617B6949
:104C2000F86800F056F8FB6808225A64FB68002216
:104C300083F8402001230FE0FB681B681A68BB68FB
:104C40001340BA689A420CBF01230023DBB21A4614
:104C5000FB799A42B4D0002318461837BD4680BD70
:104C600080B485B000AFF860B9601346FB80FB6884
:104C7000BA689A62FB68FA889A85FB68FA88DA85CE
:104C8000FB6800225A64FB68222283F84220FB68FA
:104C90001B69002B07D0FB681B68DA68FB681B6880
:104CA00042F48072DA60FB681B685A69FB681B6813
:104CB00042F001025A61FB681B68DA68FB681B68F6
:104CC00042F02002DA60002318461437BD4680BC4B
:104CD000704780B495B000AF78607B681B680C3378
:104CE0007B637B6B53E8003F3B633B6B23F4907328
:104CF000FB647B681B680C33FA6C3A64FB63F96BEA
:104D00003A6C41E80023BB63BB6B002BE5D17B68A9
:104D10001B6814333B623B6A53E8003FFB61FB694D
:104D200023F00103BB647B681B681433BA6CFA621E
:104D3000BB62B96AFA6A41E800237B627B6A002B96
:104D4000E5D17B681B6B012B19D17B681B680C3389
:104D5000FB60FB6853E8003FBB60BB6823F01003B7
:104D60007B647B681B680C337A6CBA617B61796900
:104D7000BA6941E800233B613B69002BE5D17B68C0
:104D8000202283F842207B6800221A6300BF543738
:104D9000BD4680BC704780B584B000AF78607B684A
:104DA0005B6AFB60FB680022DA85FB680022DA841C
:104DB000F868FFF7E8FE00BF1037BD4680BD80B43D
:104DC00085B000AF78607B6893F84130DBB2212B6F
:104DD0003ED17B689B68B3F5805F14D17B681B690B
:104DE000002B10D17B681B6AFB60FB681B881A468E
:104DF0007B681B68C2F308025A607B681B6A9A1CB6
:104E00007B681A6208E07B681B6A591C7A68116229
:104E10001A787B681B685A607B68DB8C9BB2013B0D
:104E20009BB27A681946D184002B0FD17B681B682E
:104E3000DA687B681B6822F08002DA607B681B6896
:104E4000DA687B681B6842F04002DA60002300E009
:104E5000022318461437BD4680BC704780B582B027
:104E600000AF78607B681B68DA687B681B6822F09B
:104E70004002DA607B68202283F841207868FFF7DF
:104E800079FE002318460837BD4680BD80B58CB03A
:104E900000AF78607B6893F84230DBB2222B40F0A1
:104EA000AE807B689B68B3F5805F17D17B681B6918
:104EB000002B13D10023FB627B689B6ABB627B687B
:104EC0001B685B689BB2C3F308039AB2BB6A1A8083
:104ED0007B689B6A9A1C7B689A6226E07B689B6A67
:104EE000FB620023BB627B689B68B3F5805F07D0E1
:104EF0007B689B68002B0AD17B681B69002B06D15D
:104F00007B681B685B68DAB2FB6A1A7008E07B6832
:104F10001B685B68DBB203F07F03DAB2FB6A1A70CE
:104F20007B689B6A5A1C7B689A627B68DB8D9BB2AC
:104F3000013B9BB27A681946D185002B5DD17B6815
:104F40001B68DA687B681B6822F02002DA607B68E5
:104F50001B68DA687B681B6822F48072DA607B6801
:104F60001B685A697B681B6822F001025A617B68E2
:104F7000202283F842207B6800225A637B681B6BE7
:104F8000012B35D17B6800221A637B681B680C33C8
:104F90007B617B6953E8003F3B613B6923F0100371
:104FA0007B627B681B680C337A6A3A62FB61F96941
:104FB0003A6A41E80023BB61BB69002BE5D17B68FD
:104FC0001B681B6803F01003102B0AD10023FB6041
:104FD0007B681B681B68FB607B681B685B68FB6009
:104FE000FB687B689B8D19467868FFF7D5FD02E06A
:104FF0007868FCF743FE002302E0002300E0022370
:1050000018463037BD4680BD80B584B000AF7860AB
:105010007B681B681B6923F440517B68DA687B68F6
:105020001B680A431A617B689A687B681B691A438C
:105030007B685B691343BB607B681B68DB6823F498
:10504000B05323F00C037A681268B9680B43D3603D
:105050007B681B685B6923F440717B689A697B6895
:105060001B680A435A617B681B682C4A934203D130
:10507000FEF780FDF86002E0FEF768FDF860FA6870
:1050800013469B0013449A001A447B685B689B009C
:10509000B2FBF3F3224AA2FB03235B091901FA686E
:1050A00013469B0013449A001A447B685B689B007C
:1050B000B2FBF3F21A4BA3FB02035B09642000FB73
:1050C00003F3D31A1B013233154AA2FB03235B09F6
:1050D00003F0F0031944FA6813469B0013449A0046
:1050E0001A447B685B689B00B2FBF3F20C4BA3FB9A
:1050F00002035B09642000FB03F3D31A1B01323364
:10510000074AA2FB03235B0903F00F027B681B68BD
:105110000A449A6000BF1037BD4680BD0038014088
:105120001F85EB51002B2DE9F0471D46BBBF03F156
:1051300000431D4600232D2388B01446B8BF1446F3
:10514000129A109E1370149BDDF84CA023F02008D7
:10515000B8F1460F05D0B8F1450F00D10136022352
:1051600000E0032307AA049206AACDE902A2CDE932
:10517000003622462B4601F06BF9B8F1470F07467F
:1051800019D1119BDB070ED500EB06090022002385
:1051900020462946FBF708FC08B1CDF81C903022C8
:1051A000079B4B451ED33846079B159ADB1B1360A4
:1051B00008B0BDE8F087B8F1460F00EB0609E5D16D
:1051C0000378302B0AD10022002320462946FBF722
:1051D000EBFB18B9C6F10106CAF80060DAF8003036
:1051E0009944D3E7591C07911A70D9E7F7B50029FC
:1051F000B6BF2D232B23494209290270437029DDB4
:105200000DF107031D460A27B1FBF7F61A4607FB07
:105210001614303402F8014C0C46632C314603F16D
:10522000FF33F1DC3031941E03F8011C2346411C8E
:10523000AB420AD30DF109039B1AAC4288BF00238D
:1052400002330344181A03B0F0BD13F8016B01F8E0
:10525000016FEDE7302330318370C170031DF1E73A
:105260002DE9F04F91B00C46DDF8688016461F46D8
:10527000054600F0BDFF036818460893FAF768FF7B
:1052800000230E93D8F800300990073323F007036A
:1052900003F1080294F818A0D4F800B0C8F8002070
:1052A000D3E9008929F000430B93CDF828804FF013
:1052B000FF32DDE90A01C4E912899C4BFBF7A6FB2A
:1052C00070BBDDE90A014FF0FF32984BFBF780FB22
:1052D00030BB0022002340464946FBF76FFB10B16C
:1052E0002D2384F84330924A924BBAF1470F8CBF7A
:1052F0009046984603234FF0000923612BF00403E6
:10530000236033462146284600970FAA00F0D4F9BF
:10531000013040F090804FF0FF3011B0BDE8F08FC9
:1053200042464B4640464946FBF770FB48B14B4668
:10533000002BB8BF2D23804AB8BF84F843307F4B81
:10534000D3E763680AF0DF015A1C3FD1062363608C
:1053500000224BF48063236006920EAACDE904A2DA
:105360000DAA03920DF13302CDE901326368424682
:10537000009328464B460A91FFF7D4FE0A998046CF
:1053800047290D9928D1C81C02DB6368994240DD8A
:10539000AAF1020A5FFA8AFA5246013904F1500072
:1053A0000D91FFF723FF0E9A81461318012A2361FE
:1053B00002DC2268D20701D5013323619DF8333026
:1053C000002B9ED02D2384F843309AE74729BFD184
:1053D000002BBDD10123BAE7BAF1650FDCD9BAF1D0
:1053E000660F18D1002963680BDD216113B92268AB
:1053F000D00702D501330B4423614FF00009A165AA
:10540000DCE713B92268D20701D50233F4E70123A0
:10541000F2E74FF0670A0E9B994205DB2368216192
:10542000D807EAD54B1CE7E70029CCBF0122C1F120
:1054300002021344E0E723685A0507D42369424671
:1054400031462846B84701302BD164E7BAF1650FE1
:1054500040F2DC80D4E9120100220023FBF7A4FA19
:10546000002833D0012331462846354AB847013059
:105470003FF451AFDDE90D38434502DB2368D8071F
:105480000FD5DDE9082331462846B84701303FF4FF
:1054900042AF4FF0000908F1FF3804F11A0AC8457D
:1054A00009DC23689B0700F10281E0680F9B9842AA
:1054B000B8BF184631E70123524631462846B8475F
:1054C00001303FF428AF09F10109E8E70D9B002BFB
:1054D00038DC012331462846194AB84701303FF4E9
:1054E0001AAFDDE90D3959EA030302D12368D90760
:1054F000D7D5DDE9082331462846B84701303FF4C7
:105500000AAF4FF0000A04F11A0B0D9B5B425345A2
:1055100001DC4B4693E701235A4631462846B847FB
:1055200001303FF4F8AE0AF1010AEEE7FFFFEF7F2A
:10553000FAA20008F6A2000802A30008FEA20008D2
:10554000D2A40008A36DDDF838A05345A8BF534688
:10555000002B994636DC4FF0000B29EAE97904F17B
:105560001A02A36D0A93A3EB09035B4531DC0D9B83
:105570009A453ADC2368DA0737D40D9BAAEB030976
:105580000A9BAAEB03039945A8BF9946B9F1000FFE
:1055900033DC4FF0000829EAE97904F11A0B0D9B7E
:1055A000AAEB0303A3EB090343457FF77AAF01237B
:1055B0005A4631462846B84701303FF4ACAE08F1B0
:1055C0000108ECE7424631462846B8470130C2D1CF
:1055D000A1E60123314628460A92B84701303FF43C
:1055E0009AAE0A9A0BF1010BBBE73146DDE90823BD
:1055F0002846B8470130C0D18DE60A9A4B4631465D
:1056000028464244B8470130C3D184E6DDF838A0CB
:10561000BAF1010F01DCDB0736D5012342463146E2
:105620002846B84701303FF476AEDDE9082331461D
:105630002846B84701303FF46EAED4E9120100228B
:1056400000230AF1FF3AFBF7AFF9C0B9534608F15E
:10565000010231462846B84701300CD15BE60123F0
:105660005A4631462846B84701303FF454AE08F157
:105670000108D045F3DB4B4604F15002E0E64FF061
:10568000000804F11A0BF4E701234246E1E7012385
:105690004A4631462846B84701303FF43CAE08F14F
:1056A0000108E3680F995B1A4345F0DCFDE64FF013
:1056B000000804F11909F4E72DE9F0471646984669
:1056C0008A680B6907469342B8BF1346336091F866
:1056D00043200C46DDF820900AB101333360236883
:1056E000990642BF336802333360256815F006051A
:1056F00006D104F1190AE36832689B1AAB422BDC2D
:1057000094F843302268003B18BF0123920630D43E
:105710004146384604F14302C847013023D023688C
:10572000226903F00603042B14BF002533684FF0F1
:10573000000608BFE56804F11A0408BFED1A54F822
:10574000123C08BF25EAE5759342C4BF9B1AED18C9
:10575000B5421AD1002008E001235246414638469E
:10576000C847013003D14FF0FF30BDE8F087013565
:10577000C1E73020E11881F843005A1C94F8451025
:105780002244023382F84310C2E7012322464146F5
:105790003846C8470130E6D00136D9E72DE9FF4742
:1057A0000F7E9146782F80460C469A460C9E01F15A
:1057B000430207D8622F0AD8002F00F0D180582F5B
:1057C00000F0B88004F1420684F842703AE0A7F194
:1057D0006303152BF6D801A151F823F035580008C2
:1057E00049580008C5570008C5570008C5570008A4
:1057F000C557000849580008C5570008C557000894
:10580000C5570008C55700084759000873580008D5
:1058100001590008C5570008C55700086959000814
:10582000C557000873580008C5570008C557000839
:105830000959000833681A1D1B68326004F14206DA
:1058400084F8423001239CE033682068191D3160E0
:10585000060601D51D6803E04506FBD5B3F90050E7
:10586000002D03DA2D236D4284F843300A23584873
:1058700011E021683368080653F8045B02D4490636
:1058800048BFADB26F2F336014BF0A2308235048BE
:10589000002184F843106668002EA66005DB2168AD
:1058A0002E4321F0040121604BD01646B5FBF3F1E5
:1058B00003FB1157C75D06F8017D2F46BB420D461D
:1058C000F4D9082B0BD12368DF0708D52369616859
:1058D0009942DEBF302306F8013C06F1FF36921BE9
:1058E00022614B4621464046CDF800A003AAFFF7AF
:1058F000E3FE01304AD14FF0FF3004B0BDE8F0873D
:10590000236843F0200323607827324884F84570E9
:10591000236831681F0651F8045B02D45F0648BF54
:10592000ADB23160D90744BF43F0200323601DB1FD
:105930001023ADE72648E9E7236823F0200323601E
:10594000F6E71646BDE733682568181D61693060C3
:105950002E061B6801D5196002E06806FBD5198088
:10596000002316462361BCE7336800211A1D32600C
:105970001E686268304600F0B2FC08B1801B6060AF
:1059800063682361002384F84330AAE7324649461E
:1059900040462369D0470130ADD023689B0713D41C
:1059A000E068039B9842B8BF1846A6E70123324639
:1059B00049464046D04701309DD00135E368039900
:1059C0005B1AAB42F2DCEBE7002504F11906F5E7C0
:1059D00006A3000817A300082DE9F04F87B0039332
:1059E0008B6891465A1EB2F5AE7F82BF6FF4AE75DA
:1059F00003EB050B40F25D130A464FF0000588BF2C
:105A00008B600B68804643F4F06342F81C3B0C4605
:105A100098BF4FF0000B1646AA462F46CDE9045515
:105A200001920295A2685AB1D9F800301B784E2B2A
:105A300062D8402B3AD8A3F12B01C8B20E2838D92E
:105A40001FB1236823F4807323600AF1FF3ABAF18F
:105A5000010F00F21481019B9E4200F2058101209A
:105A600007B0BDE8F08FA3F161020D2AE8D801A1CB
:105A700051F822F0BD5B0008415A0008415A000865
:105A8000415A0008195C0008F35B0008415A0008FD
:105A9000415A0008CB5B0008415A0008415A0008EF
:105AA000415A0008415A0008875B0008A3F14102EF
:105AB000DBE70E29C4D801A050F821F0775B00087D
:105AC000415A0008775B0008075C0008415A00084B
:105AD000195B00085D5B00085D5B00085D5B00080A
