:020000040800F2
:100000000050002011140008D1120008D912000875
:10001000E1120008E9120008F112000800000000D7
:1000200000000000000000000000000091780008BF
:10003000F912000800000000717A00081D43000852
:1000400059140008591400085914000859140008DC
:1000500059140008591400085914000859140008CC
:1000600059140008591400085914000859140008BC
:1000700059140008591400085914000859140008AC
:10008000591400085914000859140008591400089C
:10009000591400085914000859140008591400088C
:1000A000591400085914000859140008591400087C
:1000B00059140008591400080513000859140008C1
:1000C000591400085914000859140008591400085C
:1000D000591400081913000859140008591400088D
:1000E00059140008591400085914000800000000B1
:1000F0000000000000000000000000000000000000
:0C01000000000000000000005FF808F1A3
:1001100010B5054C237833B9044B13B10448AFF341
:1001200000800123237010BD740000200000000037
:10013000A093000808B5034B1BB103490348AFF374
:10014000008008BD0000000078000020A093000897
:10015000034613F8012B002AFBD1181A0138704707
:1001600080B586B000AF786007F1080300221A60FE
:100170005A609A60DA607B689B88BB600123FB60F1
:1001800002237B617B681B6807F108021146184651
:1001900001F04CFB00BF1837BD4680BD80B586B06E
:1001A00000AF786007F1080300221A605A609A6075
:1001B000DA607B689B88BB600023FB6000233B61A7
:1001C0007B681B6807F108021146184601F02EFBF8
:1001D00000BF1837BD4680BD80B483B000AF7860E3
:1001E0000B467B807B689B681B6800225A6200BFBD
:1001F0007B689B681B685A6A7B889A42F8D300BF69
:1002000000BF0C37BD4680BC704780B584B000AFDE
:10021000F8600B467A60FB72FB689B681B680022E3
:100220005A6209E0FB689B681B685B6A7A689A42BD
:1002300002D24FF0FF330DE0FB681A68FB689B8821
:100240001946104601F076FC03461A46FB7A9342A3
:10025000E8D1002318461037BD4680BD80B582B076
:1002600000AF786039607B689B681B6800225A6227
:1002700009E07B689B681B685B6A3A689A4202D215
:100280004FF0FF330EE07B681A687B689B88194645
:10029000104601F04FFC0346012BEAD07B689B68B7
:1002A0001B685B6A18460837BD4680BD80B582B0C2
:1002B00000AF78607868FFF771FF7B689B6818462D
:1002C00002F0ACFD00BF0837BD4680BD80B588B0E8
:1002D00000AF7860396007F10C0300221A601A71D0
:1002E0007868FFF73DFF7B6818687B689B88002271
:1002F000194601F036FC122001F0E2F87B6818681C
:100300007B689B880122194601F02BFC1E2178682E
:10031000FFF762FF7868FFF741FF642200217868E9
:10032000FFF773FF0346002B02DA4FF0FF3380E044
:10033000642201217868FFF768FF0346002B02DA88
:100340006FF0010375E0642200217868FFF75DFF1C
:100350000346002B02DA6FF002036AE00023FB6120
:1003600040E0502201217868FFF74FFF0346002B41
:1003700002DA6FF003035CE078217868FFF76EFF24
:1003800078617B69002B02DA6FF0040351E07B692E
:100390002D2BCCBF01230023DBB2FB74FB69002BA8
:1003A00000DA0733DB1003F120023A4412F8142C70
:1003B0005200D2B220333B4403F8142CFB69002BCB
:1003C00000DA0733DB1003F120023A4412F8141C60
:1003D000FA7C0A43D2B220333B4403F8142CFB6965
:1003E0000133FB61FB69272BBBDD3A7B7B7B13442D
:1003F000DAB2BB7B1344DAB2FB7B1344FB763B7C63
:10040000FA7E9A4202D06FF0050312E03B68002B9F
:100410000ED03A7B3B681A707A7B3B685A70BA7B85
:100420003B689A70FA7B3B68DA703A7C3B681A71D9
:10043000002318462037BD4680BD80B586B002AF88
:1004400078600B46FB707B685B79002B01D008223B
:1004500000E00022FB781343DBB2FB737B68186873
:100460007B681B795B0099B207F10F02322300937E
:10047000012301F0EBFC00BF1037BD4680BD80B505
:1004800082B000AF78600B46FB70FB7843F004034A
:10049000DBB219467868FFF7D0FF012000F0A2FF19
:1004A000FB7823F00403DBB219467868FFF7C5FF39
:1004B000322000F097FF00BF0837BD4680BD80B5F1
:1004C00084B000AF78600B46FB701346BB7097F9A1
:1004D000033023F00F035AB297F9023013435BB293
:1004E000FB73FB7B19467868FFF7A7FFFB7B194678
:1004F0007868FFF7C4FF00BF1037BD4680BD80B5E8
:1005000084B000AF78600B46FB701346BB70BB78BD
:10051000002B01D0012300E00023FB73FB7823F0C4
:100520000F03DBB2FA7B19467868FFF7C8FFFB7848
:100530001B01DBB2FA7B19467868FFF7C0FF00BFEA
:100540001037BD4680BD80B582B000AF78600B46E5
:10055000FB70FB78002219467868FFF7D0FFFB7824
:10056000012B02D0FB78022B02D1022000F0A8FF61
:1005700000BF0837BD4680BD80B582B000AF78604F
:100580000B46FB70FB78012219467868FFF7B7FF2E
:1005900000BF0837BD4680BD80B584B000AFF860AD
:1005A000B9601346FB71FB68BA681A60FB68FA7998
:1005B0001A71FB6801225A71322000F081FF00227B
:1005C0003021F868FFF77BFF052000F079FF00225B
:1005D0003021F868FFF773FF962000F003FF002238
:1005E0003021F868FFF76BFF962000F0FBFE002239
:1005F0002021F868FFF763FF022000F061FF282147
:10060000F868FFF7A0FF0C21F868FFF79CFF0621B0
:10061000F868FFF798FF0121F868FFF794FF00BF23
:100620001037BD4680BD80B582B000AF7860012133
:100630007868FFF788FF00BF0837BD4680BD80B5EA
:1006400084B000AF78600B46FB701346BB70FB783C
:10065000002B03D0BB784033DBB200E0BB78FB73E8
:10066000FB7B63F07F03DBB219467868FFF76BFF13
:1006700000BF1037BD4680BD80B582B000AF786046
:10068000396007E03B685A1C3A601B781946786865
:10069000FFF772FF3B681B78002BF3D100BF00BF50
:1006A0000837BD4680BD00000FB480B5A2B000AFD2
:1006B00007F194033B60381D3B68D7F890208021F8
:1006C00007F0FCFCC7F88400D7F88430002B1BDD52
:1006D000D7F88430802B02D98023C7F884300E4BA2
:1006E0001B684FF0FF31184604F069F8D7F88430E2
:1006F0009AB2391D6423094802F0CCFF064B1B68EF
:10070000184604F0A7F800E000BF8837BD46BDE8F2
:10071000804004B0704700BF940100202C010020ED
:1007200080B584B000AF3B1D19460848FFF7CEFDE9
:10073000F860FB68002B05D1BA79054B1A703A793D
:10074000044B1A7000BF1037BD4680BDEC0100207D
:100750009C0100209D01002080B582B000AF3223B3
:100760007B601A4B1B78DAB2194B1B78DBB29A42CA
:1007700007D8184B1B78DAB2174B1B78DBB29A42BA
:1007800012D903F0A7FE3860144B1B683A68D31ADD
:100790007A689A4214D84FF40051114801F0F9F9DF
:1007A0000E4A3B6813600BE001224FF400510C48E5
:1007B00001F0D7F903F08EFE0346084A136000E00B
:1007C00000BF00BF0837BD4680BD00BF9C010020B0
:1007D000000000209D01002001000020F801002001
:1007E0000010014080B58CB002AF244B1B78DBB207
:1007F0001A46234B1B78DBB207F114000093134613
:10080000204A112107F0C8FB1F4B1B78DBB21A46A8
:100810001E4B1B78DBB23846009313461C4A11214D
:1008200007F0BAFB002200211A48FFF708FF1A4917
:100830001848FFF721FF002200211648FFF7FFFEAE
:1008400007F1140319461348FFF716FF0022012190
:100850001048FFF7F4FE10490E48FFF70DFF002285
:1008600001210C48FFF7EBFE3B4619460948FFF70C
:1008700003FF00BF2837BD4680BD00BF9C0100209C
:100880009D01002054940008000000200100002079
:1008900068940008E401002078940008F0B587B05F
:1008A00006AF03F017FE0446134B1B78DBB29C46E1
:1008B000124B1B78DBB29E46114B1B68114A126823
:1008C0001149096811480068114D2D78EDB22E4686
:1008D000104D2D78EDB2059504960390029101928A
:1008E00000937346624621460B48FFF7DDFE00BFCA
:1008F0000437BD46F0BD00BF9C0100209D010020D3
:1009000004000020080000200C000020100000203F
:1009100000000020010000208C940008B0B58AB0CF
:1009200004AF07F1100107F114023B4603933B1D8E
:10093000029307F10803019307F10C0300930B46A0
:100940002049214807F05EFB0346062B2ED103F019
:1009500069FD7B691D4A13603B691D4A1360FB6892
:100960001C4A1360BB681C4A13607B68DAB21B4BDD
:100970001A703B68DAB21A4B1A7003F079FD134B08
:100980001968134B1A68134B1868134B1B68134CE8
:100990002478E4B22546124C2478E4B202940195FE
:1009A000009303460F48FFF77FFE06E006490E4816
:1009B000FFF77AFE0D48FFF777FE00BF1837BD46F8
:1009C000B0BD00BFC8940008A001002004000020B2
:1009D000080000200C000020100000200000002073
:1009E00001000020F0940008189500082C950008DC
:1009F00080B500AF00F032FD00F0D8F800F0C0F98B
:100A000000F01AF900F092F900F044F9444802F0BD
:100A100005FA434800F0C6FC424B434A1A60414B7A
:100A200020229A803F4B3E4A9A603E48FFF73EFCA8
:100A300027223E493E48FFF7AFFD3D48FFF7F3FD53
:100A4000002200213A48FFF7FAFD3A493848FFF7FB
:100A500013FE4FF47A7000F033FD3548FFF7E3FDE5
:100A600001224FF40051344801F07BF80122334950
:100A7000334802F09AFE03F06BFC324803F019FE93
:100A80000346314A1360314A0021012003F01FFF61
:100A900003462F4A13602F4A0221102004F036F833
:100AA00003462D4A13602D4A0221102004F02EF82F
:100AB00003462B4A13602B4A00212B4803F01FFDED
:100AC00003462A4A13602A4A00212A4803F017FDE8
:100AD0000346294A1360294A0021294803F00FFDE3
:100AE0000346284A1360284A0021284803F007FDDE
:100AF0000346274A1360274A0021274803F0FFFCDA
:100B00000346264A1360264A0021264803F0F7FCD4
:100B10000346254A136003F05FFC0023184680BD9E
:100B2000E4000020EC0100200008014090000020BB
:100B3000E401002060950008001001409E010020A3
:100B40002C010020AC96000894010020BC960008FF
:100B5000980100207C9600088C01002094960008E3
:100B600090010020A4950008E50E00087401002003
:100B7000C8950008F90E000878010020EC950008DF
:100B80001D0F00087C01002010960008550F00087A
:100B90008001002034960008810F000884010020A5
:100BA00058960008AD0F00088801002080B590B06D
:100BB00000AF07F1180328220021184607F08CFA2D
:100BC0003B1D00221A605A609A60DA601A610123A4
:100BD000BB614FF48033FB6100233B620123BB62A6
:100BE00002237B634FF48033BB634FF4E013FB635A
:100BF00007F11803184601F081FC0346002B01D0D1
:100C000000F0FCF90F237B600223BB600023FB6034
:100C10004FF480633B6100237B613B1D022118463A
:100C200001F0EEFE0346002B01D000F0E7F900BF13
:100C30004037BD4680BD000080B500AF124B134A5F
:100C40001A60114B124A5A600F4B00229A600E4BE9
:100C50000022DA600C4B4FF480421A610A4B0022EA
:100C60005A61094B00229A61074B0022DA61064B58
:100C700000221A62044800F0A5FF0346002B01D0B1
:100C800000F0BCF900BF80BD90000020005400407F
:100C9000A086010080B586B000AF07F108030022EE
:100CA0001A605A609A60DA603B4600221A605A6005
:100CB0001D4B4FF080421A601B4B47225A601A4B63
:100CC00000229A60184B4FF6FF72DA60164B002232
:100CD0001A61154B00229A61134802F04FF803463F
:100CE000002B01D000F08AF94FF48053BB6007F16C
:100CF000080319460C4802F01DFA0346002B01D0E8
:100D000000F07CF900233B6000237B603B461946E2
:100D1000054802F0FFFB0346002B01D000F06EF9FE
:100D200000BF1837BD4680BDE400002080B500AF8D
:100D3000114B124A1A60104B4FF4E1325A600E4BBD
:100D400000229A600C4B0022DA600B4B00221A61E1
:100D5000094B0C225A61084B00229A61064B002273
:100D6000DA61054802F046FC0346002B01D000F092
:100D700045F900BF80BD00BF2C01002000380140B4
:100D800080B588B000AF07F1100300221A605A60E6
:100D90009A60DA602A4B9B69294A43F010039361F9
:100DA000274B9B6903F01003FB60FB68244B9B6996
:100DB000234A43F020039361214B9B6903F02003F6
:100DC000BB60BB681E4B9B691D4A43F004039361E3
:100DD0001B4B9B6903F004037B607B68184B9B698A
:100DE000174A43F008039361154B9B6903F008030E
:100DF0003B603B6800224FF40051124800F0B1FE06
:100E00004FF400533B6101237B610023BB6102234C
:100E1000FB6107F1100319460A4800F007FD202383
:100E20003B6100237B610023BB6107F1100319467E
:100E3000054800F0FBFC00BF2037BD4680BD00BF69
:100E400000100240001001400008014080B582B04F
:100E500000AF78607B681B681C4A934231D11C4B01
:100E60001B78DBB23E2B0BD8194B1B78DBB25A1C1C
:100E7000D1B2174A11701A46164B1978164B99546D
:100E8000144B1B782E2B17D1114B1B78DBB21A4653
:100E9000114B002199540E4B00221A7003F07AFA7C
:100EA0000346022B08D10D4B1B68002B04D00B4BC3
:100EB0001B68184603F0E6FD01220649084802F0C7
:100EC00074FC00BF0837BD4680BD00BF003801403C
:100ED000E00100209E010020A001002098010020D8
:100EE0002C01002080B582B000AF786042F2107013
:100EF00003F097FBFAE7000080B582B000AF78609E
:100F0000054B1B684FF0FF31184603F069FDFFF7F2
:100F100005FD00BFF4E700BF9801002080B584B054
:100F200000AF786003F0D6FAF860F9680748FFF779
:100F3000BBFB074B1B68FA681344FB60FFF70CFC14
:100F4000F86803F089FB00BFEFE700BF6C9500086D
:100F50000800002080B584B000AF786003F0BAFAD2
:100F6000F860064B1B68FA681344FB60FFF796FCB9
:100F7000F86803F071FB00BFF3E700BF100000202A
:100F800080B584B000AF786003F0A4FAF860064B37
:100F90001B68FA681344FB60FFF724FCF86803F051
:100FA0005BFB00BFF3E700BF0C00002080B584B0FE
:100FB00000AF786003F08EFAF860064B1B68FA68A1
:100FC0001344FB60FFF7ACFBF86803F045FB00BF80
:100FD000F3E700BF0400002080B582B000AF786066
:100FE0007B681B68044A934201D100F04DFA00BFB0
:100FF0000837BD4680BD00BF0008004080B400AF88
:1010000000BFBD4680BC704780B584B000AF184BB0
:101010009B69174A43F001039361154B9B6903F0E9
:101020000103BB60BB68124BDB69114A43F080537C
:10103000D3610F4BDB6903F080537B607B68002238
:101040000F216FF0010000F014FB0A4B5B68FB609E
:10105000FB6823F0E063FB60FB6843F00073FB6018
:10106000044AFB68536000BF1037BD4680BD00BF17
:10107000001002400000014080B588B000AF7860E9
:1010800007F1100300221A605A609A60DA607B68E8
:101090001B68154A934223D1144B9B69134A43F0B2
:1010A00008039361114B9B6903F00803FB60FB6825
:1010B000C0233B6112237B610323FB6107F1100313
:1010C00019460B4800F0B2FB084BDB69074A43F4B2
:1010D0000013D361054BDB6903F40013BB60BB68ED
:1010E00000BF2037BD4680BD0054004000100240C4
:1010F000000C014080B485B000AF78607B681B684D
:10110000B3F1804F0BD1084BDB69074A43F0010371
:10111000D361054BDB6903F00103FB60FB6800BF93
:101120001437BD4680BC70470010024080B588B0BF
:1011300000AF786007F1100300221A605A609A60CD
:10114000DA607B681B68204A934239D11F4B9B6948
:101150001E4A43F4804393611C4B9B6903F4804314
:10116000FB60FB68194B9B69184A43F004039361C9
:10117000164B9B6903F00403BB60BB684FF400731C
:101180003B6102237B610323FB6107F110031946D6
:101190000F4800F04BFB4FF480633B6100237B6101
:1011A0000023BB6107F110031946094800F03EFB1C
:1011B00000220521252000F05CFA252000F075FAB8
:1011C00000BF2037BD4680BD0038014000100240FE
:1011D0000008014080B58EB000AF78600023FB624C
:1011E0000023BB62002387F83330344BDB69334A7A
:1011F00043F00403D361314BDB6903F00403FB606C
:10120000FB6807F1100207F114031146184601F0BC
:1012100067FD3B6AFB62FB6A002B03D101F038FDDE
:10122000786304E001F034FD03465B007B637B6B75
:10123000234AA2FB03239B0C013BBB62214B224AA6
:101240001A60204B40F2E732DA601E4ABB6A5360F4
:101250001C4B00221A611B4B00229A60194B002282
:101260009A61184801F08AFD034687F8333097F8F1
:101270003330002B1BD1134801F01AFE034687F8C8
:10128000333097F83330002B11D11E2000F00DFAC7
:101290007B680F2B08D8002279681E2000F0E9F93E
:1012A0000A4A7B68136002E0012387F8333097F81D
:1012B000333018463837BD4680BD00BF00100240AD
:1012C00083DE1B43FC0100200008004018000020C2
:1012D00080B400AF00BFFDE780B400AF00BFFDE702
:1012E00080B400AF00BFFDE780B400AF00BFFDE7F2
:1012F00080B400AF00BFFDE780B400AF00BFBD46C3
:1013000080BC704780B500AF024801F023FE00BFEB
:1013100080BD00BFFC01002080B500AF024802F094
:1013200069FA00BF80BD00BF2C01002080B586B0E7
:1013300000AF7860144A154BD31A7B617B693B611F
:10134000134B1B68002B02D1114B124A1A60104B31
:101350001A687B6813443A699A4207D206F022FF62
:1013600003460C221A604FF0FF3309E0084B1B685C
:10137000FB60074B1A687B681344054A1360FB68DF
:1013800018461837BD4680BD0050002000040000FC
:10139000440200208041002080B400AF00BFBD4661
:1013A00080BC704780B483B000AF7860064A7B6829
:1013B0001360054B1B681B6800225A6200BF0C3784
:1013C000BD4680BC704700BF4802002080B400AF1B
:1013D000034B1B681B685B6A1846BD4680BC7047A0
:1013E0004802002080B584B000AF7860FFF7EEFFC0
:1013F000F86000BFFFF7EAFF0246FB68D31A7A687D
:101400009A42F7D800BF00BF1037BD4680BD00002C
:10141000FFF7C2FF0B480C490C4A002302E0D458E6
:10142000C4500433C4188C42F9D3094A094C002330
:1014300001E013600432A242FBD306F0B9FEFFF7CD
:10144000D7FA704700000020740000205898000868
:101450007400002080410020FEE7000080B500AF4E
:10146000084B1B68074A43F010031360032000F089
:10147000F5F80F20FFF7AEFEFFF7C6FD0023184674
:1014800080BD00BF0020024080B400AF054B1B7838
:101490001A46054B1B681344034A136000BFBD4640
:1014A00080BC70471C0000204C02002080B400AFBC
:1014B000024B1B681846BD4680BC70474C0200209A
:1014C00080B584B000AF7860FFF7F0FFB8607B684C
:1014D000FB60FB68B3F1FF3F05D00A4B1B781A464F
:1014E000FB681344FB6000BFFFF7E0FF0246BB68E8
:1014F000D31AFA689A42F7D800BF00BF1037BD462A
:1015000080BD00BF1C00002080B485B000AF7860B3
:101510007B6803F00703FB600C4BDB68BB60BA68B9
:101520004FF6FF031340BB60FB681A02BB6813430E
:1015300043F0BF6343F40033BB60044ABB68D3602D
:1015400000BF1437BD4680BC704700BF00ED00E00F
:1015500080B400AF044BDB681B0A03F00703184696
:10156000BD4680BC704700BF00ED00E080B483B092
:1015700000AF0346FB7197F90730002B0BDBFB79BB
:1015800003F01F02064997F907305B09012000FAB2
:1015900002F241F8232000BF0C37BD4680BC7047E3
:1015A00000E100E080B483B000AF03463960FB7116
:1015B00097F90730002B0ADB3B68DAB20C4997F940
:1015C00007301201D2B20B4483F800230AE03B68D3
:1015D000DAB20849FB7903F00F03043B1201D2B2DF
:1015E0000B441A7600BF0C37BD4680BC704700BF65
:1015F00000E100E000ED00E080B489B000AFF860E9
:10160000B9607A60FB6803F00703FB61FB69C3F113
:101610000703042B28BF0423BB61FB690433062B9B
:1016200002D9FB69033B00E000237B614FF0FF32EE
:10163000BB6902FA03F3DA43BB681A407B699A403C
:101640004FF0FF317B6901FA03F3D9437B680B400C
:10165000134318462437BD4680BC704780B582B01E
:1016600000AF78607868FFF74FFF00BF0837BD46CE
:1016700080BD80B586B000AF0346B9607A60FB7369
:1016800000237B61FFF764FF78617A68B968786945
:10169000FFF7B2FF024697F90F3011461846FFF7E1
:1016A00081FF00BF1837BD4680BD80B582B000AF56
:1016B0000346FB7197F907301846FFF757FF00BF45
:1016C0000837BD4680BD80B485B000AF7860002388
:1016D000FB737B6893F82130DBB2022B08D07B6868
:1016E00004229A637B68002283F82020012320E0F3
:1016F0007B681B681A687B681B6822F00E021A6000
:101700007B681B681A687B681B6822F001021A60FC
:101710007B681A6C7B68DB6B012101FA02F25A606C
:101720007B68012283F821207B68002283F8202037
:10173000FB7B18461437BD4680BC704780B584B02B
:1017400000AF78600023FB737B6893F82130DBB235
:10175000022B05D07B6804229A630123FB7351E0BE
:101760007B681B681A687B681B6822F00E021A608F
:101770007B681B681A687B681B6822F001021A608C
:101780007B681B68224A934229D07B681B68214AE8
:10179000934222D07B681B681F4A93421AD07B6811
:1017A0001B681E4A934212D07B681B681C4A9342F6
:1017B0000AD07B681B681B4A934202D14FF4801306
:1017C0000EE04FF080730BE04FF4803308E04FF4ED
:1017D000805305E04FF4807302E0102300E0012302
:1017E000114A53607B68012283F821207B68002224
:1017F00083F820207B685B6B002B03D07B685B6BDE
:1018000078689847FB7B18461037BD4680BD00BFFF
:10181000080002401C000240300002404400024028
:10182000580002406C0002400000024080B48BB0BF
:1018300000AF7860396000237B6200233B6269E17E
:1018400001227B6A02FA03F3FB613B681B68FA69B9
:101850001340BB61BA69FB699A4240F058813B680A
:101860005B689A4A93425ED0984A934275D8984AE8
:10187000934258D0964A93426FD8964A934252D098
:10188000944A934269D8944A93424CD0924A9342E4
:1018900063D8924A934246D0904A93425DD8122B25
:1018A0002AD8122B59D801A252F823F02719000880
:1018B0000119000813190008551900085B190008E0
:1018C0005B1900085B1900085B1900085B19000828
:1018D0005B1900085B1900085B1900085B19000818
:1018E0005B1900085B1900085B1900085B19000808
:1018F000091900081D190008794A934213D02CE0F9
:101900003B68DB683B6229E03B68DB6804333B6291
:1019100024E03B68DB6808333B621FE03B68DB6820
:101920000C333B621AE03B689B68002B02D1042316
:101930003B6213E03B689B68012B05D108233B62A7
:101940007B68FA691A6109E008233B627B68FA69DF
:101950005A6103E000233B6200E000BFBB69FF2B3C
:1019600001D87B6801E07B6804337B61BB69FF2B96
:1019700002D87B6A9B0002E07B6A083B9B003B61CC
:101980007B691A680F213B6901FA03F3DB431A40B4
:10199000396A3B6901FA03F31A437B691A603B68B1
:1019A0005B6803F08053002B00F0B1804D4B9B69C6
:1019B0004C4A43F0010393614A4B9B6903F00103D6
:1019C000BB60BB68484A7B6A9B08023352F82330ED
:1019D000FB607B6A03F003039B000F2202FA03F310
:1019E000DB43FA681340FB607B68404A934213D0A4
:1019F0007B683F4A93420DD07B683E4A934207D0B2
:101A00007B683D4A934201D1032306E0042304E0AE
:101A1000022302E0012300E000237A6A02F00302BD
:101A200092009340FA681343FB602F497B6A9B083E
:101A30000233FA6841F823203B685B6803F48013A3
:101A4000002B06D02D4B9A682C49BB6913438B6041
:101A500006E02A4B9A68BB69DB43284913408B6038
:101A60003B685B6803F40013002B06D0234BDA6855
:101A70002249BB691343CB6006E0204BDA68BB699F
:101A8000DB431E491340CB603B685B6803F40033C3
:101A9000002B06D0194B5A681849BB6913434B6099
:101AA00006E0164B5A68BB69DB43144913404B6090
:101AB0003B685B6803F48033002B21D00F4B1A681E
:101AC0000E49BB6913430B6021E000BF00003210D8
:101AD0000000311000002210000021100000121040
:101AE00000001110001002400000014000080140F9
:101AF000000C0140001001400014014000040140AE
:101B00000B4B1A68BB69DB43094913400B607B6AC6
:101B100001337B623B681A687B6A22FA03F3002B6D
:101B20007FF48EAE00BF00BF2C37BD4680BC70472F
:101B30000004014080B485B000AF78600B467B8024
:101B40007B689A687B881340002B02D00123FB73CB
:101B500001E00023FB73FB7B18461437BD4680BCB5
:101B6000704780B483B000AF78600B467B8013462B
:101B70007B707B78002B03D07A887B681A6103E046
:101B80007B881A047B681A6100BF0C37BD4680BC95
:101B9000704780B485B000AF78600B467B807B686F
:101BA000DB68FB607A88FB6813401A04FB68D94342
:101BB0007B880B401A437B681A6100BF1437BD460F
:101BC00080BC704780B584B000AF78607B68002B24
:101BD00001D101232BE17B6893F83D30DBB2002B70
:101BE00006D17B68002283F83C207868FFF744FA2E
:101BF0007B68242283F83D207B681B681A687B6819
:101C00001B6822F001021A607B681B681A687B68F7
:101C10001B6842F400421A607B681B681A687B6884
:101C20001B6822F400421A6001F032F8F8607B6809
:101C30005B68814A934207D8FB68804A934294BF0D
:101C400001230023DBB206E0FB687D4A934294BF88
:101C500001230023DBB2002B01D00123E7E0FB6866
:101C6000784AA2FB03239B0CBB607B681B685B6804
:101C700023F03F017B681B68BA680A435A607B689F
:101C80001B681B6A23F03F017B685B686A4A9342CA
:101C900002D8BB68013309E0BB684FF4967202FBBF
:101CA00003F3694AA2FB03239B0901337A68126894
:101CB0000B4313627B681B68DB6923F44F4222F0FD
:101CC000FF027B685B685C498B4219D8FB68591E30
:101CD0007B685B685B00B1FBF3F3591C40F6FC7357
:101CE0000B40002B0AD0FB68591E7B685B685B00C9
:101CF000B1FBF3F30133C3F30B0351E004234FE0D3
:101D00007B689B68002B11D1FB68581E7B68596863
:101D10000B465B000B44B0FBF3F30133C3F30B033F
:101D2000002B0CBF01230023DBB212E0FB68581E1E
:101D30007B6859680B469B000B4499000B44B0FB31
:101D4000F3F30133C3F30B03002B0CBF0123002378
:101D5000DBB2002B01D0012322E07B689B68002BC3
:101D60000ED1FB68581E7B6859680B465B000B441C
:101D7000B0FBF3F30133C3F30B0343F400430FE071
:101D8000FB68581E7B6859680B469B000B44990002
:101D90000B44B0FBF3F30133C3F30B0343F44043B1
:101DA000796809681343CB617B681B681B6823F063
:101DB000C0017B68DA697B681B6A1A437B681B6811
:101DC0000A431A607B681B689B6823F4034323F073
:101DD000FF037A6811697A68D26811437A681268D9
:101DE0000B4393607B681B68DB6823F0FF017B6813
:101DF0005A697B689B691A437B681B680A43DA60EF
:101E00007B681B681A687B681B6842F001021A60D5
:101E10007B6800221A647B68202283F83D207B685F
:101E200000221A637B68002283F83E2000231846B4
:101E30001037BD4680BD00BFA08601007F841E0014
:101E4000FF083D0083DE1B43D34D621080B588B090
:101E500002AFF8607A601A460B467B8113463B81DD
:101E6000FFF724FB7861FB6893F83D30DBB2202B51
:101E700040F0E0807B690093192301227049F868E3
:101E800000F064F90346002B01D00223D3E0FB6885
:101E900093F83C30012B01D10223CCE0FB680122F6
:101EA00083F83C20FB681B681B6803F00103012BCF
:101EB00007D0FB681B681A68FB681B6842F00102C8
:101EC0001A60FB681B681A68FB681B6822F40062D2
:101ED0001A60FB68212283F83D20FB68102283F8FA
:101EE0003E20FB6800221A64FB687A685A62FB682D
:101EF0003A895A85FB685B8D9AB2FB681A85FB6844
:101F0000504ADA6279897B693A6AF86800F09CF88D
:101F10000346002B01D001238DE000233B61FB68C9
:101F20001B685B693B61FB681B689B693B613B69A4
:101F300066E07A69396AF86800F022FA0346002BF5
:101F40000DD0FB681B6C042B07D1FB681B681A685B
:101F5000FB681B6842F400721A6001236BE0FB68A7
:101F60005B6A1A78FB681B681A61FB685B6A5A1C1B
:101F7000FB685A62FB685B8D9BB2013B9AB2FB68BF
:101F80005A85FB681B8D013B9AB2FB681A85FB687A
:101F90001B685B6903F00403042B1BD1FB681B8DDA
:101FA000002B17D0FB685B6A1A78FB681B681A6104
:101FB000FB685B6A5A1CFB685A62FB685B8D9BB2CC
:101FC000013B9AB2FB685A85FB681B8D013B9AB2B4
:101FD000FB681A857A69396AF86800F019FA0346CD
:101FE000002B0DD0FB681B6C042B07D1FB681B6812
:101FF0001A68FB681B6842F400721A6001231AE039
:10200000FB681B8D002B94D1FB681B681A68FB686A
:102010001B6842F400721A60FB68202283F83D209E
:10202000FB68002283F83E20FB68002283F83C20F6
:10203000002300E0022318461837BD4680BD00BFCC
:10204000020010000000FFFF80B588B002AFF8600A
:102050007A603B600B467B81FB68DB6A7B617B6956
:10206000082B06D07B69012B03D07B6913F5803FD9
:1020700008D1FB681B681A68FB681B6842F4807211
:102080001A600BE0FB681B6B122B07D1FB681B6807
:102090001A68FB681B6842F480721A603B68009300
:1020A0007B6800224FF00111F86800F04FF80346FA
:1020B000002B0DD0FB681B681B6803F48073B3F51D
:1020C000807F03D1FB684FF400721A64032335E06C
:1020D000FB681B69B3F5804F08D17B89DBB21A46D8
:1020E000FB681B6802F0FE021A611BE07B89DB11B2
:1020F000DBB203F00603DBB263F00F03DAB2FB6876
:102100001B681A613B687A680E49F86800F098F815
:102110000346002B01D0012310E07B89DAB2FB6873
:102120001B681A613B687A680749F86800F088F80C
:102130000346002B01D0012300E000231846183786
:10214000BD4680BD080001000200010080B584B0DA
:1021500000AFF860B9603B601346FB7148E03B6834
:10216000B3F1FF3F44D0FFF7A1F90246BB69D31A90
:102170003A689A4202D33B68002B39D1BB681B0CEA
:10218000DBB2012B0DD1FB681B685B69DA43BB68CE
:1021900013409BB2002B0CBF01230023DBB21A4675
:1021A0000CE0FB681B689B69DA43BB6813409BB279
:1021B000002B0CBF01230023DBB21A46FB799A42A5
:1021C00016D1FB6800221A63FB68202283F83D20A9
:1021D000FB68002283F83E20FB681B6C43F0200262
:1021E000FB681A64FB68002283F83C20012323E08B
:1021F000BB681B0CDBB2012B0DD1FB681B685B6954
:10220000DA43BB6813409BB2002B0CBF01230023B1
:10221000DBB21A460CE0FB681B689B69DA43BB68BB
:1022200013409BB2002B0CBF01230023DBB21A46E4
:10223000FB799A4293D0002318461037BD4680BDE3
:1022400080B584B000AFF860B9607A603B6071E03F
:10225000FB681B685B6903F48063B3F5806F23D16F
:10226000FB681B681A68FB681B6842F400721A60FE
:10227000FB681B686FF480625A61FB6800221A6376
:10228000FB68202283F83D20FB68002283F83E2073
:10229000FB681B6C43F00402FB681A64FB680022B5
:1022A00083F83C20012367E07B68B3F1FF3F41D016
:1022B000FFF7FCF802463B68D31A7A689A4202D3C9
:1022C0007B68002B36D1BB681B0CDBB2012B0CD119
:1022D000FB681B685B69DA43BB6813409BB2002B49
:1022E00014BF01230023DBB20BE0FB681B689B6972
:1022F000DA43BB6813409BB2002B14BF01230023B9
:10230000DBB2002B16D0FB6800221A63FB68202288
:1023100083F83D20FB68002283F83E20FB681B6C9D
:1023200043F02002FB681A64FB68002283F83C201B
:10233000012321E0BB681B0CDBB2012B0CD1FB6835
:102340001B685B69DA43BB6813409BB2002B14BF68
:1023500001230023DBB20BE0FB681B689B69DA43B7
:10236000BB6813409BB2002B14BF01230023DBB2D8
:10237000002B7FF46DAF002318461037BD4680BD9B
:1023800080B584B000AFF860B9607A6034E0F86876
:1023900000F086F80346002B01D0012334E0BB682F
:1023A000B3F1FF3F28D0FFF781F802467B68D31ACC
:1023B000BA689A4202D3BB68002B1DD1FB681B6828
:1023C0005B6903F08003802B16D0FB6800221A6340
:1023D000FB68202283F83D20FB68002283F83E2022
:1023E000FB681B6C43F02002FB681A64FB68002248
:1023F00083F83C20012307E0FB681B685B6903F05E
:102400008003802BC3D1002318461037BD4680BD02
:1024100080B584B000AFF860B9607A6034E0F868E5
:1024200000F03EF80346002B01D0012334E0BB68E6
:10243000B3F1FF3F28D0FFF739F802467B68D31A83
:10244000BA689A4202D3BB68002B1DD1FB681B6897
:102450005B6903F00403042B16D0FB6800221A63A7
:10246000FB68202283F83D20FB68002283F83E2091
:10247000FB681B6C43F02002FB681A64FB680022B7
:1024800083F83C20012307E0FB681B685B6903F0CD
:102490000403042BC3D1002318461037BD4680BD6A
:1024A00080B483B000AF78607B681B685B6903F41D
:1024B0008063B3F5806F1BD17B681B686FF480620B
:1024C0005A617B6800221A637B68202283F83D20D2
:1024D0007B68002283F83E207B681B6C43F004027B
:1024E0007B681A647B68002283F83C20012300E0AB
:1024F000002318460C37BD4680BC704780B586B0B7
:1025000000AF78607B68002B01D1012372E27B6809
:102510001B6803F00103002B00F08780924B5B687F
:1025200003F00C03042B0CD08F4B5B6803F00C03FF
:10253000082B12D18C4B5B6803F48033B3F5803FDA
:102540000BD1894B1B6803F40033002B6CD07B68E4
:102550005B68002B68D101234CE27B685B68B3F5B4
:10256000803F06D1804B1B687F4A43F48033136061
:102570002EE07B685B68002B0CD17B4B1B687A4A92
:1025800023F480331360784B1B68774A23F480234D
:1025900013601DE07B685B68B3F5A02F0CD1724B14
:1025A0001B68714A43F4802313606F4B1B686E4AAB
:1025B00043F4803313600BE06B4B1B686A4A23F4CF
:1025C00080331360684B1B68674A23F480231360D1
:1025D0007B685B68002B13D0FEF768FF386108E06A
:1025E000FEF764FF02463B69D31A642B01D903232B
:1025F00000E25D4B1B6803F40033002BF0D014E0C5
:10260000FEF754FF386108E0FEF750FF02463B69D1
:10261000D31A642B01D90323ECE1534B1B6803F459
:102620000033002BF0D100E000BF7B681B6803F093
:102630000203002B63D04C4B5B6803F00C03002BB0
:102640000BD0494B5B6803F00C03082B1CD1464BA5
:102650005B6803F48033002B16D1434B1B6803F0F7
:102660000203002B05D07B681B69012B01D00123DD
:10267000C0E13D4B1B6823F0F8027B685B69DB001F
:10268000394913430B603AE07B681B69002B20D06B
:10269000364B01221A60FEF709FF386108E0FEF7A9
:1026A00005FF02463B69D31A022B01D90323A1E19E
:1026B0002D4B1B6803F00203002BF0D02A4B1B6844
:1026C00023F0F8027B685B69DB00274913430B604A
:1026D00015E0264B00221A60FEF7E8FE386108E09C
:1026E000FEF7E4FE02463B69D31A022B01D903230D
:1026F00080E11D4B1B6803F00203002BF0D17B68C7
:102700001B6803F00803002B3AD07B689B69002B01
:1027100019D0174B01221A60FEF7C8FE386108E095
:10272000FEF7C4FE02463B69D31A022B01D90323EC
:1027300060E10D4B5B6A03F00203002BF0D0012037
:1027400000F0FEFA1CE00A4B00221A60FEF7AEFE13
:1027500038610FE0FEF7AAFE02463B69D31A022B4E
:1027600008D9032346E100BF0010024000004242A6
:1027700080044242924B5B6A03F00203002BE9D1D2
:102780007B681B6803F00403002B00F0A680002385
:10279000FB758B4BDB6903F08053002B0DD1884B0D
:1027A000DB69874A43F08053D361854BDB6903F0D3
:1027B0008053BB60BB680123FB75824B1B6803F42D
:1027C0008073002B18D17F4B1B687E4A43F48073C3
:1027D0001360FEF76BFE386108E0FEF767FE024605
:1027E0003B69D31A642B01D9032303E1754B1B68A2
:1027F00003F48073002BF0D07B68DB68012B06D1DB
:102800006F4B1B6A6E4A43F0010313622DE07B6835
:10281000DB68002B0CD16A4B1B6A694A23F0010369
:102820001362674B1B6A664A23F0040313621CE0C1
:102830007B68DB68052B0CD1614B1B6A604A43F057
:10284000040313625E4B1B6A5D4A43F0010313628B
:102850000BE05B4B1B6A5A4A23F001031362584B8F
:102860001B6A574A23F0040313627B68DB68002B62
:1028700015D0FEF71BFE38610AE0FEF717FE024690
:102880003B69D31A41F28832934201D90323B1E064
:102890004B4B1B6A03F00203002BEED014E0FEF753
:1028A00005FE38610AE0FEF701FE02463B69D31AD5
:1028B00041F28832934201D903239BE0404B1B6ACB
:1028C00003F00203002BEED1FB7D012B05D13C4B25
:1028D000DB693B4A23F08053D3617B68DB69002BC3
:1028E00000F08780364B5B6803F00C03082B61D047
:1028F0007B68DB69022B46D1334B00221A60FEF75E
:10290000D5FD386108E0FEF7D1FD02463B69D31AD8
:10291000022B01D903236DE0294B1B6803F00073E0
:10292000002BF0D17B681B6AB3F5803F08D1244BA4
:102930005B6823F400327B689B68214913434B603A
:102940001F4B5B6823F474127B68196A7B685B6AAF
:102950000B431B4913434B601B4B01221A60FEF7CC
:10296000A5FD386108E0FEF7A1FD02463B69D31AD8
:10297000022B01D903233DE0114B1B6803F00073C8
:10298000002BF0D035E0104B00221A60FEF78EFDD0
:10299000386108E0FEF78AFD02463B69D31A022B34
:1029A00001D9032326E0064B1B6803F00073002BBC
:1029B000F0D11EE07B68DB69012B07D1012319E010
:1029C0000010024000700040600042420B4B5B6808
:1029D000FB60FB6803F480327B681B6A9A4206D175
:1029E000FB6803F470127B685B6A9A4201D0012392
:1029F00000E0002318461837BD4680BD0010024095
:102A000080B584B000AF786039607B68002B01D15D
:102A10000123D0E06A4B1B6803F007033A689A422F
:102A200010D9674B1B6823F0070265493B681343C5
:102A30000B60634B1B6803F007033A689A4201D0AE
:102A40000123B8E07B681B6803F00203002B20D051
:102A50007B681B6803F00403002B05D0594B5B68AF
:102A6000584A43F4E06353607B681B6803F0080333
:102A7000002B05D0534B5B68524A43F460535360BC
:102A8000504B5B6823F0F0027B689B684D49134311
:102A90004B607B681B6803F00103002B40D07B6810
:102AA0005B68012B07D1474B1B6803F40033002BF5
:102AB00015D101237FE07B685B68022B07D1414B76
:102AC0001B6803F00073002B09D1012373E03D4B19
:102AD0001B6803F00203002B01D101236BE0394B8B
:102AE0005B6823F003027B685B68364913434B60E5
:102AF000FEF7DCFCF8600AE0FEF7D8FC0246FB6853
:102B0000D31A41F28832934201D9032353E02D4B6B
:102B10005B6803F00C027B685B689B009A42EBD118
:102B2000274B1B6803F007033A689A4210D2244BE4
:102B30001B6823F0070222493B6813430B60204BBC
:102B40001B6803F007033A689A4201D0012332E080
:102B50007B681B6803F00403002B08D0194B5B68EB
:102B600023F4E0627B68DB68164913434B607B68A3
:102B70001B6803F00803002B09D0124B5B6823F499
:102B800060527B681B69DB000E4913434B6000F009
:102B900021F802460B4B5B681B0903F00F030A493F
:102BA000CB5C22FA03F3094A1360094B1B681846F1
:102BB000FEF710FB002318461037BD4680BD00BF4E
:102BC0000020024000100240CC96000814000020B3
:102BD0001800002080B487B000AF0023FB60002302
:102BE000BB6000237B6100237B6000233B611E4BA5
:102BF0005B68FB60FB6803F00C03042B02D0082B1E
:102C000003D027E0194B3B6127E0FB689B0C03F0E6
:102C10000F03174AD35C7B60FB6803F48033002BFF
:102C200010D0114B5B685B0C03F00103114AD35CBD
:102C3000BB607B680D4A03FB02F2BB68B2FBF3F397
:102C40007B6104E07B680C4A02FB03F37B617B69D8
:102C50003B6102E0054B3B6100BF3B6918461C37F6
:102C6000BD4680BC704700BF0010024000127A00D1
:102C7000E4960008F496000800093D0080B400AF17
:102C8000024B1B681846BD4680BC704714000020EC
:102C900080B500AFFFF7F2FF0246054B5B681B0AE9
:102CA00003F007030349CB5C22FA03F3184680BD07
:102CB00000100240DC96000880B500AFFFF7DEFF91
:102CC0000246054B5B68DB0A03F007030349CB5C54
:102CD00022FA03F3184680BD00100240DC9600087B
:102CE00080B483B000AF786039607B680F221A60CF
:102CF000114B5B6803F003027B685A600E4B5B6804
:102D000003F0F0027B689A600B4B5B6803F4E062AF
:102D10007B68DA60084B5B68DB0803F4E0627B6881
:102D20001A61064B1B6803F007023B681A6000BF7C
:102D30000C37BD4680BC70470010024000200240A6
:102D400080B485B000AF78600A4B1B680A4AA2FBCA
:102D500003235B0A7A6802FB03F3FB6000BFFB6896
:102D60005A1EFA60002BF9D100BF00BF1437BD46D0
:102D700080BC704714000020D34D621080B582B033
:102D800000AF78607B68002B01D1012341E07B68B4
:102D900093F83D30DBB2002B06D17B68002283F82C
:102DA0003C207868FEF7A6F97B68022283F83D2074
:102DB0007B681A687B6804331946104600F0A6FA4F
:102DC0007B68012283F846207B68012283F83E203D
:102DD0007B68012283F83F207B68012283F8402032
:102DE0007B68012283F841207B68012283F842201E
:102DF0007B68012283F843207B68012283F844200A
:102E00007B68012283F845207B68012283F83D20FE
:102E1000002318460837BD4680BD000080B485B049
:102E200000AF78607B6893F83D30DBB2012B01D0B6
:102E3000012332E07B68022283F83D207B681B6817
:102E4000184A93420ED07B681B68B3F1804F09D0BB
:102E50007B681B68144A934204D07B681B68134A42
:102E6000934211D17B681B689B6803F00703FB60EA
:102E7000FB68062B10D07B681B681A687B681B6890
:102E800042F001021A6007E07B681B681A687B68E1
:102E90001B6842F001021A60002318461437BD4631
:102EA00080BC7047002C0140000400400008004036
:102EB00080B485B000AF78607B6893F83D30DBB2BA
:102EC000012B01D001233AE07B68022283F83D20E8
:102ED0007B681B68DA687B681B6842F00102DA6075
:102EE0007B681B68184A93420ED07B681B68B3F15D
:102EF000804F09D07B681B68144A934204D07B68DA
:102F00001B68134A934211D17B681B689B6803F0CE
:102F10000703FB60FB68062B10D07B681B681A68F0
:102F20007B681B6842F001021A6007E07B681B683F
:102F30001A687B681B6842F001021A600023184679
:102F40001437BD4680BC7047002C0140000400408F
:102F50000008004080B584B000AF78607B681B68D3
:102F6000DB68FB607B681B681B69BB60BB6803F0A8
:102F70000203002B20D0FB6803F00203002B1BD0C0
:102F80007B681B686FF002021A617B6801221A7766
:102F90007B681B689B6903F00303002B03D07868F0
:102FA00000F098F905E0786800F08BF9786800F097
:102FB0009AF97B6800221A77BB6803F00403002BA0
:102FC00020D0FB6803F00403002B1BD07B681B6838
:102FD0006FF004021A617B6802221A777B681B6813
:102FE0009B6903F44073002B03D0786800F072F9FA
:102FF00005E0786800F065F9786800F074F97B689E
:1030000000221A77BB6803F00803002B20D0FB686E
:1030100003F00803002B1BD07B681B686FF00802CD
:103020001A617B6804221A777B681B68DB6903F0EE
:103030000303002B03D0786800F04CF905E07868B2
:1030400000F03FF9786800F04EF97B6800221A77AB
:10305000BB6803F01003002B20D0FB6803F01003C3
:10306000002B1BD07B681B686FF010021A617B6815
:1030700008221A777B681B68DB6903F44073002B16
:1030800003D0786800F026F905E0786800F019F9B7
:10309000786800F028F97B6800221A77BB6803F093
:1030A0000103002B0CD0FB6803F00103002B07D0B9
:1030B0007B681B686FF001021A617868FDF78CFF6E
:1030C000BB6803F08003002B0CD0FB6803F0800387
:1030D000002B07D07B681B686FF080021A6178684C
:1030E00000F07FFABB6803F04003002B0CD0FB68B4
:1030F00003F04003002B07D07B681B686FF0400291
:103100001A61786800F0F8F8BB6803F02003002B20
:103110000CD0FB6803F02003002B07D07B681B68F2
:103120006FF020021A61786800F052FA00BF103781
:10313000BD4680BD80B584B000AF786039600023A3
:10314000FB737B6893F83C30012B01D10223B4E080
:103150007B68012283F83C207B68022283F83D20B3
:103160007B681B689B68BB60BB6823F07703BB6010
:10317000BB6823F47F43BB607B681B68BA689A60B6
:103180003B681B68B3F5005F3ED0B3F5005F00F20B
:103190008780B3F5805F00F08680B3F5805F7FD8CD
:1031A000702B1AD0702B7BD8602B50D0602B77D827
:1031B000502B3CD0502B73D8402B58D0402B6FD87D
:1031C000302B64D0302B6BD8202B60D0202B67D8CD
:1031D000002B5CD0102B5AD062E07B6818683B68EB
:1031E00099683B685A683B68DB6800F074F97B6853
:1031F0001B689B68BB60BB6843F07703BB607B6860
:103200001B68BA689A604FE07B6818683B689968E9
:103210003B685A683B68DB6800F05DF97B681B68B7
:103220009A687B681B6842F480429A603CE07B6845
:1032300018683B6859683B68DB681A4600F0D4F8A8
:103240007B681B685021184600F02BF92CE07B6846
:1032500018683B6859683B68DB681A4600F0F2F86A
:103260007B681B686021184600F01BF91CE07B6836
:1032700018683B6859683B68DB681A4600F0B4F888
:103280007B681B684021184600F00BF90CE07B6856
:103290001A683B681B681946104600F002F903E003
:1032A0000123FB7300E000BF7B68012283F83D200F
:1032B0007B68002283F83C20FB7B18461037BD4614
:1032C00080BD80B483B000AF786000BF0C37BD46CE
:1032D00080BC704780B483B000AF786000BF0C370B
:1032E000BD4680BC704780B483B000AF786000BF3B
:1032F0000C37BD4680BC704780B483B000AF7860A7
:1033000000BF0C37BD4680BC7047000080B485B05C
:1033100000AF786039607B681B68FB607B682F4A70
:1033200093420BD07B68B3F1804F07D07B682C4A67
:10333000934203D07B682B4A934208D1FB6823F069
:103340007003FB603B685B68FA681343FB607B6853
:10335000224A93420BD07B68B3F1804F07D07B6841
:103360001F4A934203D07B681E4A934208D1FB68F0
:1033700023F44073FB603B68DB68FA681343FB602F
:10338000FB6823F080023B685B691343FB607B684A
:10339000FA681A603B689A687B68DA623B681A6868
:1033A0007B689A627B680D4A934203D13B681A6935
:1033B0007B681A637B6801225A617B681B6903F092
:1033C0000103002B05D07B681B6923F001027B6899
:1033D0001A6100BF1437BD4680BC7047002C014005
:1033E000000400400008004080B487B000AFF860DF
:1033F000B9607A60FB681B6A7B61FB681B6A23F01B
:103400000102FB681A62FB689B693B613B6923F020
:10341000F0033B617B681B013A6913433B617B69A5
:1034200023F00A037B617A69BB6813437B61FB6805
:103430003A699A61FB687A691A6200BF1C37BD4617
:1034400080BC704780B487B000AFF860B9607A6024
:10345000FB681B6A7B61FB681B6A23F01002FB6838
:103460001A62FB689B693B613B6923F470433B61D3
:103470007B681B033A6913433B617B6923F0A0031C
:103480007B61BB681B017A6913437B61FB683A6906
:103490009A61FB687A691A6200BF1C37BD4680BC1E
:1034A000704780B485B000AF786039607B689B68F6
:1034B000FB60FB6823F07003FB603A68FB68134312
:1034C00043F00703FB607B68FA689A6000BF14371B
:1034D000BD4680BC704780B487B000AFF860B9606B
:1034E0007A603B60FB689B687B617B6923F47F4368
:1034F0007B613B681A027B681A43BB6813437A6995
:1035000013437B61FB687A699A6000BF1C37BD4634
:1035100080BC704780B485B000AF786039607B684C
:1035200093F83C30012B01D1022346E07B68012255
:1035300083F83C207B68022283F83D207B681B686F
:103540005B68FB607B681B689B68BB60FB6823F063
:103550007003FB603B681B68FA681343FB607B6881
:103560001B68FA685A607B681B68164A93420ED043
:103570007B681B68B3F1804F09D07B681B68124AD7
:10358000934204D07B681B68104A93420CD1BB68FD
:1035900023F08003BB603B685B68BA681343BB6081
:1035A0007B681B68BA689A607B68012283F83D20BB
:1035B0007B68002283F83C20002318461437BD4660
:1035C00080BC7047002C014000040040000800400F
:1035D00080B483B000AF786000BF0C37BD4680BCBC
:1035E000704780B483B000AF786000BF0C37BD4631
:1035F00080BC704780B582B000AF78607B68002BDC
:1036000001D1012342E07B6893F84130DBB2002B0B
:1036100006D17B68002283F840207868FDF786FD9C
:103620007B68242283F841207B681B68DA687B680A
:103630001B6822F40052DA60786800F0B7FD7B68FE
:103640001B681A697B681B6822F490421A617B68C8
:103650001B685A697B681B6822F02A025A617B68E2
:103660001B68DA687B681B6842F40052DA607B688A
:1036700000225A647B68202283F841207B68202244
:1036800083F842207B6800225A63002318460837DB
:10369000BD4680BD80B58AB002AFF860B9603B60BE
:1036A0001346FB8000237B61FB6893F84130DBB25B
:1036B000202B75D1BB68002B02D0FB88002B01D1D9
:1036C00001236EE0FB6800225A64FB68212283F824
:1036D0004120FDF7EBFE7861FB68FA889A84FB686D
:1036E000FA88DA84FB689B68B3F5805F08D1FB68D1
:1036F0001B69002B04D10023FB61BB68BB6103E0A5
:10370000BB68FB610023BB612EE03B6800937B69D3
:1037100000228021F86800F01CFB0346002B05D036
:10372000FB68202283F8412003233AE0FB69002B49
:103730000BD1BB691B881A46FB681B68C2F30802E1
:103740005A60BB690233BB6107E0FB691A78FB680A
:103750001B685A60FB690133FB61FB68DB8C9BB221
:10376000013B9AB2FB68DA84FB68DB8C9BB2002BCE
:10377000CBD13B6800937B6900224021F86800F0C0
:10378000E8FA0346002B05D0FB68202283F841208D
:10379000032306E0FB68202283F84120002300E099
:1037A000022318462037BD4680BD80B584B000AFE7
:1037B000F860B9601346FB80FB6893F84230DBB2D7
:1037C000202B12D1BB68002B02D0FB88002B01D12B
:1037D00001230BE0FB6800221A63FB881A46B968D4
:1037E000F86800F00FFB034600E00223184610378C
:1037F000BD4680BD80B5BAB000AF78607B681B68FD
:103800001B68C7F8E4307B681B68DB68C7F8E030EA
:103810007B681B685B69C7F8DC300023C7F8D830C9
:103820000023C7F8D430D7F8E43003F00F03C7F80B
:10383000D830D7F8D830002B0FD1D7F8E43003F0C8
:103840002003002B09D0D7F8E03003F02003002B31
:1038500003D0786800F0ECFB5BE2D7F8D830002B9F
:1038600000F0DE80D7F8DC3003F00103002B06D136
:10387000D7F8E03003F49073002B00F0D180D7F834
:10388000E43003F00103002B0BD0D7F8E03003F451
:103890008073002B05D07B685B6C43F001027B6872
:1038A0005A64D7F8E43003F00403002B0BD0D7F8A8
:1038B000DC3003F00103002B05D07B685B6C43F028
:1038C00002027B685A64D7F8E43003F00203002B4D
:1038D0000BD0D7F8DC3003F00103002B05D07B6858
:1038E0005B6C43F004027B685A64D7F8E43003F061
:1038F0000803002B11D0D7F8E03003F02003002B91
:1039000005D1D7F8DC3003F00103002B05D07B682C
:103910005B6C43F008027B685A647B685B6C002B2D
:1039200000F0F281D7F8E43003F02003002B08D038
:10393000D7F8E03003F02003002B02D0786800F0C5
:1039400077FB7B681B685B6903F04003002B14BFA7
:1039500001230023DBB2C7F8D4307B685B6C03F033
:103960000803002B03D1D7F8D430002B4FD0786850
:1039700000F081FA7B681B685B6903F04003002B51
:1039800041D07B681B681433C7F89C30D7F89C3053
:1039900053E8003FC7F89830D7F8983023F0400339
:1039A000C7F8D0307B681B681433D7F8D020C7F82D
:1039B000A820C7F8A430D7F8A410D7F8A82041E869
:1039C0000023C7F8A030D7F8A030002BD9D17B68EE
:1039D000DB6B002B13D07B68DB6B7E4A5A637B6802
:1039E000DB6B1846FDF7AAFE0346002B16D07B685A
:1039F000DB6B5B6B7A68D26B104698470EE0786899
:103A000000F093F90AE0786800F08FF906E0786832
:103A100000F08BF97B6800225A6475E100BF73E106
:103A20007B681B6B012B40F04F81D7F8E43003F02B
:103A30001003002B00F04881D7F8E03003F01003AA
:103A4000002B00F041810023BB607B681B681B6872
:103A5000BB607B681B685B68BB60BB687B681B687E
:103A60005B6903F04003002B00F0B6807B68DB6BE2
:103A70001B685B68A7F8BE30B7F8BE30002B00F0BB
:103A800045817B689B8DB7F8BE209A4280F03E81CD
:103A90007B68B7F8BE20DA857B68DB6B9B69202BDF
:103AA00000F088807B681B680C33C7F88830D7F833
:103AB000883053E8003FC7F88430D7F8843023F4C7
:103AC0008073C7F8B8307B681B680C33D7F8B82010
:103AD000C7F89420C7F89030D7F89010D7F8942002
:103AE00041E80023C7F88C30D7F88C30002BD9D1AF
:103AF0007B681B6814337B677B6F53E8003F3B6731
:103B00003B6F23F00103C7F8B4307B681B681433A4
:103B1000D7F8B420C7F88020FB67F96FD7F880206A
:103B200041E80023BB67BB6F002BE1D17B681B68BA
:103B300014333B663B6E53E8003FFB65FB6D23F09F
:103B40004003C7F8B0307B681B681433D7F8B02047
:103B5000FA66BB66B96EFA6E41E800237B667B6E3F
:103B6000002BE3D17B68202283F842207B6800226F
:103B70001A637B681B680C33FB64FB6C53E8003FE3
:103B8000BB64BB6C23F01003C7F8AC307B681B68C8
:103B90000C33D7F8AC20BA657B65796DBA6D41E816
:103BA00000233B653B6D002BE3D17B68DB6B184644
:103BB000FDF789FD7B6802225A637B689A8D7B68DA
:103BC000DB8D9BB2D31A9BB21946786800F0B6F829
:103BD0009CE000BF3B3F00087B689A8D7B68DB8DD3
:103BE0009BB2D31AA7F8CE307B68DB8D9BB2002B3B
:103BF00000F08E80B7F8CE30002B00F089807B6813
:103C00001B680C33BB63BB6B53E8003F7B637B6B70
:103C100023F49073C7F8C8307B681B680C33D7F85F
:103C2000C8207A643B64396C7A6C41E80023FB63FA
:103C3000FB6B002BE3D17B681B6814337B627B6AD0
:103C400053E8003F3B623B6A23F00103C7F8C430EE
:103C50007B681B681433D7F8C4203A63FB62F96AA7
:103C60003A6B41E80023BB62BB6A002BE3D17B685F
:103C7000202283F842207B6800221A637B681B683D
:103C80000C333B613B6953E8003FFB60FB6823F06A
:103C90001003C7F8C0307B681B680C33D7F8C0200E
:103CA000FA61BB61B969FA6941E800237B617B690C
:103CB000002BE3D17B6802225A63B7F8CE30194655
:103CC000786800F03BF823E0D7F8E43003F0800395
:103CD000002B09D0D7F8E03003F08003002B03D08D
:103CE000786800F03EF914E0D7F8E43003F04003C0
:103CF000002B0ED0D7F8E03003F04003002B08D0A3
:103D0000786800F07DF904E000BF02E000BF00E049
:103D100000BFE837BD4680BD80B483B000AF786097
:103D200000BF0C37BD4680BC704780B483B000AF85
:103D3000786000BF0C37BD4680BC704780B483B04C
:103D400000AF78600B467B8000BF0C37BD4680BC5F
:103D5000704780B586B000AFF860B9603B6013462D
:103D6000FB713BE03B6AB3F1FF3F37D0FDF79EFBB1
:103D700002463B68D31A3A6A9A4202D33B6A002B46
:103D800001D103233AE0FB681B68DB6803F00403FE
:103D9000002B23D0BB68802B20D0BB68402B1DD0CC
:103DA000FB681B681B6803F00803082B16D100236F
:103DB0007B61FB681B681B687B61FB681B685B6839
:103DC0007B617B69F86800F056F8FB6808225A644A
:103DD000FB68002283F8402001230FE0FB681B688A
:103DE0001A68BB681340BA689A420CBF01230023CB
:103DF000DBB21A46FB799A42B4D000231846183732
:103E0000BD4680BD80B485B000AFF860B960134690
:103E1000FB80FB68BA689A62FB68FA889A85FB683F
:103E2000FA88DA85FB6800225A64FB68222283F84C
:103E30004220FB681B69002B07D0FB681B68DA680F
:103E4000FB681B6842F48072DA60FB681B685A6981
:103E5000FB681B6842F001025A61FB681B68DA6864
:103E6000FB681B6842F02002DA6000231846143712
:103E7000BD4680BC704780B495B000AF78607B6869
:103E80001B680C337B637B6B53E8003F3B633B6BEE
:103E900023F49073FB647B681B680C33FA6C3A6400
:103EA000FB63F96B3A6C41E80023BB63BB6B002BEF
:103EB000E5D17B681B6814333B623B6A53E8003FE3
:103EC000FB61FB6923F00103BB647B681B6814334F
:103ED000BA6CFA62BB62B96AFA6A41E800237B6293
:103EE0007B6A002BE5D17B681B6B012B19D17B68AA
:103EF0001B680C33FB60FB6853E8003FBB60BB688A
:103F000023F010037B647B681B680C337A6CBA6106
:103F10007B617969BA6941E800233B613B69002B09
:103F2000E5D17B68202283F842207B6800221A6357
:103F300000BF5437BD4680BC704780B584B000AF29
:103F400078607B685B6AFB60FB680022DA85FB684F
:103F50000022DA84F868FFF7E8FE00BF1037BD469C
:103F600080BD80B485B000AF78607B6893F8413045
:103F7000DBB2212B3ED17B689B68B3F5805F14D107
:103F80007B681B69002B10D17B681B6AFB60FB6898
:103F90001B881A467B681B68C2F308025A607B685C
:103FA0001B6A9A1C7B681A6208E07B681B6A591CB2
:103FB0007A6811621A787B681B685A607B68DB8CB0
:103FC0009BB2013B9BB27A681946D184002B0FD17A
:103FD0007B681B68DA687B681B6822F08002DA6005
:103FE0007B681B68DA687B681B6842F04002DA6015
:103FF000002300E0022318461437BD4680BC7047FA
:1040000080B582B000AF78607B681B68DA687B6837
:104010001B6822F04002DA607B68202283F841208E
:104020007868FFF779FE002318460837BD4680BD43
:1040300080B58CB000AF78607B6893F84230DBB21B
:10404000222B40F0AE807B689B68B3F5805F17D170
:104050007B681B69002B13D10023FB627B689B6A82
:10406000BB627B681B685B689BB2C3F308039AB2B0
:10407000BB6A1A807B689B6A9A1C7B689A6226E0FE
:104080007B689B6AFB620023BB627B689B68B3F51D
:10409000805F07D07B689B68002B0AD17B681B6917
:1040A000002B06D17B681B685B68DAB2FB6A1A706A
:1040B00008E07B681B685B68DBB203F07F03DAB261
:1040C000FB6A1A707B689B6A5A1C7B689A627B68E1
:1040D000DB8D9BB2013B9BB27A681946D185002BE0
:1040E0005DD17B681B68DA687B681B6822F0200260
:1040F000DA607B681B68DA687B681B6822F4807270
:10410000DA607B681B685A697B681B6822F00102D1
:104110005A617B68202283F842207B6800225A6320
:104120007B681B6B012B35D17B6800221A637B688F
:104130001B680C337B617B6953E8003F3B613B6943
:1041400023F010037B627B681B680C337A6A3A6247
:10415000FB61F9693A6A41E80023BB61BB69002B46
:10416000E5D17B681B681B6803F01003102B0AD194
:104170000023FB607B681B681B68FB607B681B6817
:104180005B68FB60FB687B689B8D19467868FFF76E
:10419000D5FD02E07868FCF759FE002302E0002319
:1041A00000E0022318463037BD4680BD80B584B09C
:1041B00000AF78607B681B681B6923F440517B6803
:1041C000DA687B681B680A431A617B689A687B68B7
:1041D0001B691A437B685B691343BB607B681B6880
:1041E000DB6823F4B05323F00C037A681268B968D3
:1041F0000B43D3607B681B685B6923F440717B6869
:104200009A697B681B680A435A617B681B682C4A61
:10421000934203D1FEF750FDF86002E0FEF738FD4F
:10422000F860FA6813469B0013449A001A447B68AE
:104230005B689B00B2FBF3F3224AA2FB03235B09FA
:104240001901FA6813469B0013449A001A447B68CC
:104250005B689B00B2FBF3F21A4BA3FB02035B0902
:10426000642000FB03F3D31A1B013233154AA2FB6F
:1042700003235B0903F0F0031944FA6813469B001B
:1042800013449A001A447B685B689B00B2FBF3F20C
:104290000C4BA3FB02035B09642000FB03F3D31A5E
:1042A0001B013233074AA2FB03235B0903F00F0211
:1042B0007B681B680A449A6000BF1037BD4680BD0A
:1042C000003801401F85EB5180B483B000AF034636
:1042D0003960FB7197F90730002B0ADB3B68DAB2D3
:1042E0000C4997F907301201D2B20B4483F800232E
:1042F0000AE03B68DAB20849FB7903F00F03043B9C
:104300001201D2B20B441A7600BF0C37BD4680BCF6
:10431000704700BF00E100E000ED00E080B500AFB5
:10432000054B1B6802F01EFD0346012B01D003F074
:10433000C3FB00BF80BD00BF10E000E080B500AF50
:1043400000216FF00400FFF7BFFF00BF80BD000039
:1043500080B483B000AFEFF305833B603B68002B74
:1043600003D06FF005037B600CE0094B1B68002B4A
:1043700005D1074B01221A6000237B6002E04FF059
:10438000FF337B607B6818460C37BD4680BC7047A6
:104390005002002080B582B000AF02F0E3FC03467B
:1043A000002B04D0022B05D102237B600CE00323F9
:1043B0007B6009E0074B1B68012B02D101237B6066
:1043C00001E000237B6000BF7B6818460837BD46CC
:1043D00080BD00BF5002002080B582B000AFEFF377
:1043E00005833B603B68002B03D06FF005037B60C7
:1043F00010E00B4B1B68012B09D1FFF79FFF084B07
:1044000002221A6002F02EF800237B6002E04FF0D7
:10441000FF337B607B6818460837BD4680BD00BF10
:104420005002002080B582B000AFEFF305833B60FF
:104430003B68002B03D06FF005037B6013E002F0B4
:1044400091FC0346002B02D0022B03D007E001238E
:104450007B6008E002F076F800237B6003E04FF019
:10446000FF337B6000BF7B6818460837BD4680BDC0
:1044700080B582B000AFEFF305833B603B68002B53
:1044800003D06FF005037B601FE002F06BFC034676
:10449000002B02D0022B10D012E001237B6002F02F
:1044A0005FF80346012B0FD002F05CFC0346002BA3
:1044B0000AD14FF0FF337B6006E000237B6004E00D
:1044C0004FF0FF337B6000E000BF7B681846083781
:1044D000BD4680BD80B582B000AFEFF305833B6081
:1044E0003B68002B03D002F0E7F8786002E002F0AE
:1044F000D5F878607B6818460837BD4680BD80B522
:104500008EB004AFF860B9607A6000233B61EFF3CE
:1045100005837B617B69002B7ED1FB68002B7BD000
:1045200080233B621823FB6100237B624FF0FF3343
:10453000BB617B68002B45D07B681B68002B02D0D9
:104540007B681B687B627B689B69002B02D07B6861
:104550009B69FB61FB69002B08D0FB69382B05D8F0
:104560007B685B6803F00103002B01D0002354E05B
:104570007B685B69002B03D07B685B699B083B62AF
:104580007B689B68002B0ED07B68DB68A72B0AD961
:104590007B681B69002B06D07B685B69002B02D00F
:1045A0000123BB6110E07B689B68002B0CD17B680A
:1045B000DB68002B08D17B681B69002B04D100232A
:1045C000BB6101E00023BB61BB69012B10D17B689B
:1045D0001B697A68926802920193FB690093BB6839
:1045E0003A6A796AF86801F0C9FC03463B6113E056
:1045F000BB69002B10D13B6A9AB207F110030193FB
:10460000FB690093BB68796AF86801F017FD0346FF
:10461000012B01D000233B613B6918462837BD467A
:1046200080BD80B584B000AF7860EFF30583BB60D8
:10463000BB68002B03D06FF00503FB6007E000238D
:10464000FB607B68002B02D0786801F0D5FEFB6828
:1046500018461037BD4680BD80B586B000AF786083
:10466000EFF30583FB60FB68002B03D06FF00503BD
:104670007B6119E000237B6102F010F80346BB6008
:10468000BB687A68D31A3B613B69002B09D03B6950
:10469000002B06DB07F108033969184601F02CFEF0
:1046A00002E06FF003037B617B6918461837BD4653
:1046B00080BD80B588B000AF78600023FB61EFF368
:1046C0000583BB60BB68002B74D17B68002B03D0D3
:1046D0007B685B68BB6101E00023BB61BB6903F0E1
:1046E0000103002B02D001237B6101E000237B61E9
:1046F000BB6903F00803002B5CD14FF0FF333B6133
:104700007B68002B15D07B689B68002B06D07B68EC
:10471000DB684F2B02D901233B610CE07B689B686F
:10472000002B08D17B68DB68002B04D100233B61A0
:1047300001E000233B613B69012B12D17B69002B17
:1047400007D07B689B681946042000F0ACFCF86138
:1047500016E07B689B681946012000F0A4FCF86114
:104760000EE03B69002B0BD17B69002B04D00420A9
:1047700000F081FCF86103E0012000F07CFCF861AE
:10478000FB69002B0CD07B68002B03D07B681B6877
:10479000FB6001E00023FB60F968F86901F068FB49
:1047A000FB69002B06D07B69002B03D0FB6943F02B
:1047B0000103FB61FB6918462037BD4680BD80B50B
:1047C00086B000AF786039607B6823F001033B61FD
:1047D0007B6803F00103FB6000237B61EFF305833B
:1047E000BB60BB68002B03D06FF005037B612CE03E
:1047F0003B69002B03D16FF003037B6125E0FB686D
:10480000002B11D03968386900F09DFC0346012B5C
:104810001BD03B68002B03D06FF001037B6114E0D9
:104820006FF002037B6110E03968386901F042F8EB
:104830000346012B09D03B68002B03D06FF0010326
:104840007B6102E06FF002037B617B6918461837D9
:10485000BD4680BD80B586B000AF78607B6823F030
:1048600001033B617B6803F00103FB6000237B6174
:10487000EFF30583BB60BB68002B03D06FF005032B
:104880007B611FE03B69002B03D16FF003037B6169
:1048900018E0FB68002B09D0386900F01FFC0346C4
:1048A000012B0FD06FF002037B610BE0002300228D
:1048B0000021386900F0ECFC0346012B02D06FF0B8
:1048C00002037B617B6918461837BD4680BD80B501
:1048D0008AB002AFF860B9607A600023FB61EFF341
:1048E00005833B613B69002B75D1FB68002B72D0BF
:1048F000BA68FB689A426ED84FF0FF33BB617B68A1
:10490000002B15D07B689B68002B06D07B68DB688A
:104910004F2B02D90123BB610CE07B689B68002B05
:1049200008D17B68DB68002B04D10023BB6101E068
:104930000023BB61BB69B3F1FF3F4CD0FB68012B87
:1049400028D1BB69012B0AD17B689B6803220092A6
:1049500000220021012000F099FAF86105E003220D
:104960000021012000F00FFBF861FB69002B22D031
:10497000BB68002B1FD0002300220021F86900F043
:1049800087FC0346012B16D0F86901F025F90023B6
:10499000FB6110E0BB69012B08D17B689B681A465C
:1049A000B968F86800F006FCF86104E0B968F868D6
:1049B00000F039FCF861FB69002B0CD07B68002B00
:1049C00003D07B681B687B6101E000237B61796910
:1049D000F86901F04DFAFB6918462037BD4680BDE5
:1049E00080B586B000AF786039607B683B6100239A
:1049F0007B613B69002B03D16FF003037B6139E0DE
:104A0000EFF30583FB60FB68002B22D03B68002B93
:104A100003D06FF003037B612CE00023BB6007F140
:104A200008031A460021386901F054F80346012BA7
:104A300003D06FF002037B611CE0BB68002B19D030
:104A40000F4B4FF080521A60BFF34F8FBFF36F8F41
:104A500010E03968386900F02DFF0346012B09D0BA
:104A60003B68002B03D06FF001037B6102E06FF025
:104A700002037B617B6918461837BD4680BD00BFC5
:104A800004ED00E080B586B000AF78607B683B61E4
:104A900000237B613B69002B03D16FF003037B6133
:104AA0002CE0EFF30583FB60FB68002B1AD000239A
:104AB000BB6007F108031946386900F089FD034619
:104AC000012B03D06FF002037B6117E0BB68002B62
:104AD00014D00D4B4FF080521A60BFF34F8FBFF3CD
:104AE0006F8F0BE0002300220021386900F0D0FB1B
:104AF0000346012B02D06FF002037B617B691846ED
:104B00001837BD4680BD00BF04ED00E080B58AB017
:104B100002AFF860B9607A600023FB61EFF30583B0
:104B20003B613B69002B5FD1FB68002B5CD0BB680D
:104B3000002B59D04FF0FF33BB617B68002B29D08D
:104B40007B689B68002B12D07B68DB684F2B0ED9EB
:104B50007B681B69002B0AD07B685A69FB68B968BF
:104B600001FB03F39A4202D30123BB6114E07B688B
:104B70009B68002B10D17B68DB68002B0CD17B6815
:104B80001B69002B08D17B685B69002B04D10023D3
:104B9000BB6101E00023BB61BB69012B0BD17B68CA
:104BA0001A697B689B6800210091B968F86800F079
:104BB0006DF9F86108E0BB69002B05D10022B968E6
:104BC000F86800F0E0F9F861FB69002B0CD07B6815
:104BD000002B03D07B681B687B6101E000237B61B5
:104BE0007969F86901F044F9FB6918462037BD4638
:104BF00080BD000080B485B000AFF860B9607A6015
:104C0000FB68064A1A60BB68054A1A607B68802206
:104C10001A6000BF1437BD4680BC704754020020A4
:104C2000FC02002080B485B000AFF860B9607A6003
:104C3000FB68074A1A60BB68064A1A607B684FF433
:104C400080721A6000BF1437BD4680BC704700BF39
:104C5000FC040020A405002080B483B000AF78607D
:104C60007B6803F108027B685A607B684FF0FF3273
:104C70009A607B6803F108027B68DA607B6803F165
:104C800008027B681A617B6800221A6000BF0C373B
:104C9000BD4680BC704780B483B000AF78607B684D
:104CA00000221A6100BF0C37BD4680BC704780B43B
:104CB00085B000AF786039607B685B68FB603B68FB
:104CC000FA685A60FB689A683B689A60FB689B6860
:104CD0003A685A60FB683A689A603B687A681A6179
:104CE0007B681B685A1C7B681A6000BF1437BD467E
:104CF00080BC704780B485B000AF786039603B6895
:104D00001B68BB60BB68B3F1FF3F03D17B681B69C5
:104D1000FB600CE07B680833FB6002E0FB685B68CB
:104D2000FB60FB685B681B68BA689A42F6D2FB6856
:104D30005A683B685A603B685B683A689A603B68AF
:104D4000FA689A60FB683A685A603B687A681A6148
:104D50007B681B685A1C7B681A6000BF1437BD460D
:104D600080BC704780B485B000AF78607B681B69F9
:104D7000FB607B685B687A6892689A607B689B6876
:104D80007A6852685A60FB685B687A689A4203D115
:104D90007B689A68FB685A607B6800221A61FB682E
:104DA0001B685A1EFB681A60FB681B68184614379C
:104DB000BD4680BC7047000080B584B000AF78600D
:104DC00039607B68FB60FB68002B0BD14FF0500310
:104DD00083F31188BFF36F8FBFF34F8FBB6000BFAA
:104DE00000BFFDE702F0EAFDFB681A68FB68DB6BB9
:104DF000F968096C01FB03F31A44FB689A60FB68CD
:104E000000229A63FB681A68FB685A60FB681A689C
:104E1000FB68DB6B013BF968096C01FB03F31A4487
:104E2000FB68DA60FB68FF2283F84420FB68FF22FE
:104E300083F845203B68002B14D1FB681B69002BCD
:104E40001AD0FB681033184601F0B8FD0346002B5A
:104E500012D00D4B4FF080521A60BFF34F8FBFF34B
:104E60006F8F09E0FB6810331846FFF7F5FEFB680B
:104E700024331846FFF7F0FE02F0D0FD0123184658
:104E80001037BD4680BD00BF04ED00E080B58EB098
:104E900002AFF860B9607A603B60FB68002B0BD111
:104EA0004FF0500383F31188BFF36F8FBFF34F8F21
:104EB000BB6200BF00BFFDE73B68002B0BD14FF08A
:104EC000500383F31188BFF36F8FBFF34F8F7B6263
:104ED00000BF00BFFDE77B68002B02D0BB68002B42
:104EE00001D0012300E00023002B0BD14FF0500331
:104EF00083F31188BFF36F8FBFF34F8F3B6200BF07
:104F000000BFFDE77B68002B02D1BB68002B01D1FD
:104F1000012300E00023002B0BD14FF0500383F35B
:104F20001188BFF36F8FBFF34F8FFB6100BF00BFCE
:104F3000FDE750237B617B69502B0BD04FF0500372
:104F400083F31188BFF36F8FBFF34F8FBB6100BF37
:104F500000BFFDE77B693B68FB62FB6A002B0DD05D
:104F6000FB6A012283F8462097F83820FB6A0093F9
:104F700013467A68B968F86800F040F8FB6A18468A
:104F80003037BD4680BD80B58AB002AFF860B960E9
:104F90001346FB71FB68002B0BD14FF0500383F3DA
:104FA0001188BFF36F8FBFF34F8F3B6100BF00BF0E
:104FB000FDE7FB68BA6802FB03F3FB61FB69503352
:104FC000184602F0FDFDB861BB69002B11D0BB692A
:104FD0007B617B6950337B61BB69002283F846208B
:104FE000FA79BB69009313467A69B968F86800F0EA
:104FF00005F8BB6918462037BD4680BD80B584B032
:1050000000AFF860B9607A60FB70BB68002B03D119
:10501000BB69BA691A6002E0BB697A681A60BB6949
:10502000FA68DA63BB69BA681A640121B869FFF7E4
:10503000C3FEBB69FA7883F84C2000BF1037BD4629
:1050400080BD80B582B000AF78607B68002B0ED049
:105050007B6800229A607B6800221A607B680022CD
:10506000DA60002300220021786800F011F900BF07
:105070000837BD4680BD80B586B000AF0346FB71E2
:1050800001237B6100233B61FB791A46396978690A
:10509000FFF779FFF860F868FFF7D3FFFB68184661
:1050A0001837BD4680BD80B588B002AF0346396071
:1050B000FB7101237B6100233B61FB7900933B681B
:1050C000002239697869FFF7E1FEF860F868FFF7B8
:1050D000B8FFFB6818461837BD4680BD90B587B04D
:1050E00000AF78607B683B613B69002B0BD14FF0D0
:1050F000500383F31188BFF36F8FBFF34F8FFB60B3
:1051000000BF00BFFDE73B699C6801F01DFE034640
:105110009C4211D13B69DB685A1E3B69DA603B69EE
:10512000DB68002B05D1002300220021386900F044
:10513000AFF801237B6101E000237B617B691846A6
:105140001C37BD4690BD90B587B000AF7860396020
:105150007B683B613B69002B0BD14FF0500383F31D
:105160001188BFF36F8FBFF34F8FFB6000BF00BF8D
:10517000FDE73B699C6801F0E7FD03469C4207D1CF
:105180003B69DB685A1C3B69DA6001237B610CE0F8
:105190003968386900F08EFB78617B69002B04D098
:1051A0003B69DB685A1C3B69DA607B6918461C372F
:1051B000BD4690BD80B58AB002AFF860B9607A6034
:1051C000FB68002B0BD14FF0500383F31188BFF322
:1051D0006F8FBFF34F8FBB6100BF00BFFDE7BA68A1
:1051E000FB689A420BD94FF0500383F31188BFF349
:1051F0006F8FBFF34F8F7B6100BF00BFFDE70223BE
:1052000000937B6800220021F868FFF73FFEF861F9
:10521000FB69002B02D0FB69BA689A63FB691846E8
:105220002037BD4680BD80B586B000AF786039605C
:105230007B68002B0BD14FF0500383F31188BFF331
:105240006F8FBFF34F8F3B6100BF00BFFDE73A6830
:105250007B689A420BD94FF0500383F31188BFF358
:105260006F8FBFF34F8FFB6000BF00BFFDE70222CF
:1052700000217868FFF787FE78617B69002B02D0F8
:105280007B693A689A637B6918461837BD4680BDCA
:1052900080B58EB000AFF860B9607A603B600023E3
:1052A0007B63FB683B633B6B002B0BD14FF05003E0
:1052B00083F31188BFF36F8FBFF34F8FBB6200BFC3
:1052C00000BFFDE7BB68002B03D13B6B1B6C002BC1
:1052D00001D1012300E00023002B0BD14FF050033C
:1052E00083F31188BFF36F8FBFF34F8F7B6200BFD3
:1052F00000BFFDE73B68022B03D13B6BDB6B012B4F
:1053000001D1012300E00023002B0BD14FF050030B
:1053100083F31188BFF36F8FBFF34F8F3B6200BFE2
:1053200000BFFDE701F01EFD0346002B02D17B68A4
:10533000002B01D1012300E00023002B0BD14FF003
:10534000500383F31188BFF36F8FBFF34F8FFB615F
:1053500000BF00BFFDE702F031FB3B6B9A6B3B6B7C
:10536000DB6B9A4202D33B68022B29D13A68B968B9
:10537000386B00F06CFCF8623B6B5B6A002B10D062
:105380003B6B2433184601F019FB0346002B13D066
:105390003F4B4FF080521A60BFF34F8FBFF36F8FB8
:1053A0000AE0FB6A002B07D0394B4FF080521A609D
:1053B000BFF34F8FBFF36F8F02F030FB012363E029
:1053C0007B68002B03D102F029FB00235CE07B6BA0
:1053D000002B06D107F11403184601F053FB0123FB
:1053E0007B6302F01BFB01F0ADF802F0E7FA3B6BC8
:1053F00093F844305BB2B3F1FF3F03D13B6B002223
:1054000083F844203B6B93F845305BB2B3F1FF3F28
:1054100003D13B6B002283F8452002F0FFFA3A1DCE
:1054200007F114031146184601F042FB0346002B16
:1054300024D1386B00F003FD0346002B18D03B6BE2
:1054400010337A681146184601F066FA386B00F09E
:105450008EFC01F085F80346002B7FF47CAF0C4BEB
:105460004FF080521A60BFF34F8FBFF36F8F72E718
:10547000386B00F07CFC01F073F86CE7386B00F0DF
:1054800076FC01F06DF8002318463837BD4680BD24
:1054900004ED00E080B590B000AFF860B9607A60CC
:1054A0003B60FB68BB63BB6B002B0BD14FF0500321
:1054B00083F31188BFF36F8FBFF34F8FBB6200BFC1
:1054C00000BFFDE7BB68002B03D1BB6B1B6C002B3F
:1054D00001D1012300E00023002B0BD14FF050033A
:1054E00083F31188BFF36F8FBFF34F8F7B6200BFD1
:1054F00000BFFDE73B68022B03D1BB6BDB6B012BCD
:1055000001D1012300E00023002B0BD14FF0500309
:1055100083F31188BFF36F8FBFF34F8F3B6200BFE0
:1055200000BFFDE702F00CFBEFF311824FF05003D8
:1055300083F31188BFF36F8FBFF34F8FFA61BB61A5
:10554000FB697B63BB6B9A6BBB6BDB6B9A4202D3D1
:105550003B68022B2FD1BB6B93F8453087F8333073
:10556000BB6B9B6BFB623A68B968B86B00F06FFB72
:1055700097F93330B3F1FF3F12D1BB6B5B6A002B5D
:1055800016D0BB6B2433184601F018FA0346002BE3
:105590000ED07B68002B0BD07B6801221A6007E0DD
:1055A00097F833300133DBB25AB2BB6B83F8452036
:1055B0000123FB6301E00023FB637B6B7B617B6961
:1055C00083F3118800BFFB6B18464037BD4680BD92
:1055D00080B58EB000AF786039607B683B633B6B11
:1055E000002B0BD14FF0500383F31188BFF36F8F63
:1055F000BFF34F8F3B6200BF00BFFDE73B6B1B6CEF
:10560000002B0BD04FF0500383F31188BFF36F8F43
:10561000BFF34F8FFB6100BF00BFFDE73B6B1B6813
:10562000002B03D13B6B9B68002B01D1012300E0D1
:105630000023002B0BD14FF0500383F31188BFF3ED
:105640006F8FBFF34F8FBB6100BF00BFFDE702F05C
:1056500077FAEFF311824FF0500383F31188BFF311
:105660006F8FBFF34F8F7A613B617B69FB623B6B4E
:105670009B6BBB623B6BDB6BBA6A9A422BD23B6B78
:1056800093F8453087F82730BB6A5A1C3B6B9A6306
:1056900097F92730B3F1FF3F12D13B6B5B6A002BC8
:1056A00016D03B6B2433184601F088F90346002BD3
:1056B0000ED03B68002B0BD03B6801221A6007E03C
:1056C00097F827300133DBB25AB23B6B83F84520A1
:1056D00001237B6301E000237B63FB6AFB60FB68C3
:1056E00083F3118800BF7B6B18463837BD4680BDF9
:1056F00080B58CB000AFF860B9607A600023FB62BF
:10570000FB68BB62BB6A002B0BD14FF0500383F3E5
:105710001188BFF36F8FBFF34F8F3B6200BF00BF95
:10572000FDE7BB68002B03D1BB6A1B6C002B01D1CA
:10573000012300E00023002B0BD14FF0500383F333
:105740001188BFF36F8FBFF34F8FFB6100BF00BFA6
:10575000FDE701F007FB0346002B02D17B68002B1D
:1057600001D1012300E00023002B0BD14FF05003A7
:1057700083F31188BFF36F8FBFF34F8FBB6100BFFF
:1057800000BFFDE702F01AF9BB6A9B6B7B627B6A84
:10579000002B1FD0B968B86A00F0C3FA7B6A5A1EA2
:1057A000BB6A9A63BB6A1B69002B0FD0BB6A1033BC
:1057B000184601F003F90346002B07D03C4B4FF08D
:1057C00080521A60BFF34F8FBFF36F8F02F026F93C
:1057D000012369E07B68002B03D102F01FF900234D
:1057E00062E0FB6A002B06D107F11003184601F0B6
:1057F00049F90123FB6202F011F900F0A3FE02F067
:10580000DDF8BB6A93F844305BB2B3F1FF3F03D1DC
:10581000BB6A002283F84420BB6A93F845305BB230
:10582000B3F1FF3F03D1BB6A002283F8452002F0A9
:10583000F5F83A1D07F110031146184601F038F942
:105840000346002B23D1B86A00F0E3FA0346002B8D
:1058500017D0BB6A24337A681146184601F05CF809
:10586000B86A00F084FA00F07BFE0346002B89D171
:105870000F4B4FF080521A60BFF34F8FBFF36F8F03
:1058800080E7B86A00F073FA00F06AFE7AE7B86A57
:1058900000F06DFA00F064FEB86A00F0BAFA034650
:1058A000002B3FF46FAF002318463037BD4680BD54
:1058B00004ED00E080B58EB000AF78603960002361
:1058C0007B637B68FB6200233B63FB6A002B0BD18D
:1058D0004FF0500383F31188BFF36F8FBFF34F8FE7
:1058E0003B6200BF00BFFDE7FB6A1B6C002B0BD0C7
:1058F0004FF0500383F31188BFF36F8FBFF34F8FC7
:10590000FB6100BF00BFFDE701F02CFA0346002B4E
:1059100002D13B68002B01D1012300E00023002BC2
:105920000BD14FF0500383F31188BFF36F8FBFF398
:105930004F8FBB6100BF00BFFDE702F03FF8FB6A7D
:105940009B6BBB62BB6A002B24D0BB6A5A1EFB6AEE
:105950009A63FB6A1B68002B04D101F07DFB0246B1
:10596000FB6A9A60FB6A1B69002B0FD0FB6A10333D
:10597000184601F023F80346002B07D0544B4FF094
:1059800080521A60BFF34F8FBFF36F8F02F046F85B
:10599000012398E03B68002B12D13B6B002B0BD00E
:1059A0004FF0500383F31188BFF36F8FBFF34F8F16
:1059B0007B6100BF00BFFDE702F030F8002382E00A
:1059C0007B6B002B06D107F10C03184601F05AF847
:1059D00001237B6302F022F800F0B4FD01F0EEFF3A
:1059E000FB6A93F844305BB2B3F1FF3F03D1FB6A2B
:1059F000002283F84420FB6A93F845305BB2B3F190
:105A0000FF3F03D1FB6A002283F8452002F006F82D
:105A10003A4607F10C031146184601F049F80346CF
:105A2000002B32D1F86A00F0F4F90346002B26D09F
:105A3000FB6A1B68002B09D101F0C0FFFB6A9B6861
:105A4000184601F0ADF9386301F0E8FFFB6A243332
:105A50003A681146184600F05FFFF86A00F087F9CF
:105A600000F07EFD0346002B7FF467AF184B4FF02C
:105A700080521A60BFF34F8FBFF36F8F5DE7F86AF4
:105A800000F075F900F06CFD57E7F86A00F06FF967
:105A900000F066FDF86A00F0BCF90346002B3FF405
:105AA0004CAF3B6B002B0DD001F088FFF86A00F083
:105AB000B7F87862FB6A9B68796A184601F048FA81
:105AC00001F0ACFF002318463837BD4680BD00BF4B
:105AD00004ED00E080B58EB000AFF860B9607A6088
