:020000040800F2
:1000000000500020E9130008811100088911000840
:100010009111000899110008A111000800000000CA
:10002000000000000000000000000000A91100080E
:10003000B511000800000000C1110008CD11000832
:10004000311400083114000831140008311400087C
:10005000311400083114000831140008311400086C
:10006000311400083114000831140008311400085C
:10007000311400083114000831140008311400084C
:10008000311400083114000831140008311400083C
:10009000311400083114000831140008311400082C
:1000A000311400083114000831140008311400081C
:1000B000311400083114000831140008311400080C
:1000C00031140008311400083114000831140008FC
:1000D00031140008D9110008311400083114000847
:1000E0003114000831140008311400080000000029
:1000F0000000000000000000000000000000000000
:0C01000000000000000000005FF808F1A3
:10010C0010B5054C237833B9044B13B10448AFF345
:10011C0000800123237010BD680000200000000047
:10012C00245D000808B5034B1BB103490348AFF32A
:10013C00008008BD000000006C000020245D000859
:10014C00034613F8012B002AFBD1181A013870470B
:10015C0080B586B000AF786007F1080300221A6002
:10016C005A609A60DA607B689B88BB600123FB60F5
:10017C0002237B617B681B6807F108021146184655
:10018C0001F098FB00BF1837BD4680BD80B586B026
:10019C0000AF786007F1080300221A605A609A6079
:1001AC00DA607B689B88BB600023FB6000233B61AB
:1001BC007B681B6807F108021146184601F07AFBB0
:1001CC0000BF1837BD4680BD80B483B000AF7860E7
:1001DC000B467B807B689B681B6800225A6200BFC1
:1001EC007B689B681B685A6A7B889A42F8D300BF6D
:1001FC0000BF0C37BD4680BC704780B584B000AFE3
:10020C00F8600B467A60FB72FB689B681B680022E7
:10021C005A6209E0FB689B681B685B6A7A689A42C1
:10022C0002D24FF0FF330DE0FB681A68FB689B8825
:10023C001946104601F0C2FC03461A46FB7A93425B
:10024C00E8D1002318461037BD4680BD80B582B07A
:10025C0000AF786039607B689B681B6800225A622B
:10026C0009E07B689B681B685B6A3A689A4202D219
:10027C004FF0FF330EE07B681A687B689B88194649
:10028C00104601F09BFC0346012BEAD07B689B686F
:10029C001B685B6A18460837BD4680BD80B582B0C6
:1002AC0000AF78607868FFF771FF7B689B68184631
:1002BC0002F0B0FD00BF0837BD4680BD80B588B0E8
:1002CC0000AF786039600023FB6000233B747868D2
:1002DC00FFF73EFF7B6818687B689B8800221946F5
:1002EC0001F083FC122001F001F97B6818687B682F
:1002FC009B880122194601F078FC1E217868FFF7D3
:10030C0063FF7868FFF742FF642200217868FFF7EB
:10031C0074FF0346002B02DA4FF0FF3380E06422B7
:10032C0001217868FFF769FF0346002B02DA6FF0B2
:10033C00010375E0642200217868FFF75EFF034635
:10034C00002B02DA6FF002036AE00023FB6140E04D
:10035C00502201217868FFF750FF0346002B02DA88
:10036C006FF003035CE078217868FFF76FFF78612A
:10037C007B69002B02DA6FF0040351E07B692D2BB3
:10038C00CCBF01230023DBB2FB74FB69002B00DA2A
:10039C000733DB1003F120023A4412F8142C5200FC
:1003AC00D2B220333B4403F8142CFB69002B00DA47
:1003BC000733DB1003F120023A4412F8141CFA7CC8
:1003CC000A43D2B220333B4403F8142CFB690133AB
:1003DC00FB61FB69272BBBDD3A7B7B7B1344DAB2D9
:1003EC00BB7B1344DAB2FB7B1344FB763B7CFA7E7B
:1003FC009A4202D06FF0050312E03B68002B0ED03E
:10040C003A7B3B681A707A7B3B685A70BA7B3B68C4
:10041C009A70FA7B3B68DA703A7C3B681A7100235D
:10042C0018462037BD4680BD80B586B002AF7860D7
:10043C000B46FB707B685B79002B01D0082200E037
:10044C000022FB781343DBB2FB737B6818687B6874
:10045C001B795B0099B207F10F0232230093012341
:10046C0001F020FD00BF1037BD4680BD80B582B0C5
:10047C0000AF78600B46FB70FB7843F00403DBB2F3
:10048C0019467868FFF7D0FF012000F091FFFB7848
:10049C0023F00403DBB219467868FFF7C5FF32205E
:1004AC0000F086FF00BF0837BD4680BD80B584B024
:1004BC0000AF78600B46FB701346BB7097F90330A6
:1004CC0023F00F035AB297F9023013435BB2FB735C
:1004DC00FB7B19467868FFF7A7FFFB7B194678680A
:1004EC00FFF7C4FF00BF1037BD4680BD80B584B098
:1004FC0000AF78600B46FB701346BB70BB78002BCB
:10050C0001D0012300E00023FB73FB7823F00F03E1
:10051C00DBB2FA7B19467868FFF7C8FFFB781B0142
:10052C00DBB2FA7B19467868FFF7C0FF00BF1037C3
:10053C00BD4680BD80B582B000AF78600B46FB70C5
:10054C00FB78002219467868FFF7D0FFFB78012B67
:10055C0002D0FB78022B02D1022000F0C7FF00BFB3
:10056C000837BD4680BD80B582B000AF78600B46C1
:10057C00FB70FB78012219467868FFF7B7FF00BFC4
:10058C000837BD4680BD80B584B000AFF860B96057
:10059C001346FB71FB68BA681A60FB68FA791A712A
:1005AC00FB6801225A71322000F0A0FF002230219A
:1005BC00F868FFF77BFF052000F098FF0022302140
:1005CC00F868FFF773FF962000F0F2FE002230214E
:1005DC00F868FFF76BFF962000F0EAFE002220215E
:1005EC00F868FFF763FF022000F080FF2821F8680D
:1005FC00FFF7A0FF0C21F868FFF79CFF0621F868B5
:10060C00FFF798FF0121F868FFF794FF00BF103740
:10061C00BD4680BD80B582B000AF7860012178689E
:10062C00FFF788FF00BF0837BD4680BD80B584B09A
:10063C0000AF78600B46FB701346BB70FB78002B49
:10064C0003D0BB784033DBB200E0BB78FB73FB7BA1
:10065C0063F07F03DBB219467868FFF76BFF00BFCE
:10066C001037BD4680BD80B582B000AF7860396070
:10067C0007E03B685A1C3A601B7819467868FFF70C
:10068C0072FF3B681B78002BF3D100BF00BF08370B
:10069C00BD4680BD80B586B000AF7860396007F18B
:1006AC000C0319463868FFF709FE78617B69002B4B
:1006BC0009D1BA7B7B681A703A7B7B685A707B686D
:1006CC0001229A7002E07B6800229A7000BF1837F2
:1006DC00BD4680BD80B582B000AF78607B689B78EA
:1006EC00002B03D17B6801229A7211E07B681A7887
:1006FC007B681B7A9A4205D27B685A787B685B7A56
:10070C009A4201D3012300E00023DAB27B689A728B
:10071C0000224FF40051084801F067FA642000F001
:10072C00E5FE01224FF40051034801F05EFA00BFD0
:10073C000837BD4680BD00BF0010014080B58EB0AB
:10074C0002AF786039607B689B78002B0DD07B689A
:10075C001B781A467B685B7807F11C0000931346E4
:10076C001F4A112103F0F6FC06E007F11C031D4A99
:10077C001121184603F0EEFC7B685A687B689B7A63
:10078C00002B01D0184B00E0184B07F10800009328
:10079C001346174A112103F0DDFC002200213868B2
:1007AC00FFF744FF07F11C0319463868FFF75BFF9E
:1007BC00002201213868FFF739FF0E493868FFF72E
:1007CC0052FF002201213868FFF730FF07F10803C0
:1007DC0019463868FFF747FF00BF3037BD4680BD6C
:1007EC003C5D0008505D0008645D00086C5D00080D
:1007FC00705D0008805D0008F0B5ABB006AF7860A6
:10080C0039607B689B78002B23D07B681B781E4655
:10081C007B685B7819467B685B687A68127A144649
:10082C007A68527A15467A68927A002A01D01D4A63
:10083C0000E01D4A07F10C00049203950294019309
:10084C0000913346194A802103F084FCC7F88C00D0
:10085C001AE07B685A687B681B7A19467B685B7A5E
:10086C001C467B689B7A002B01D00E4B00E00E4B94
:10087C0007F10C0002930194009113460C4A80215D
:10088C0003F068FCC7F88C00D7F88C309AB207F1EB
:10089C000C016423386802F081FD00BF9437BD461B
:1008AC00F0BD00BF645D00086C5D0008945D00083D
:1008BC00BC5D000880B485B000AFF860B9607A60A8
:1008CC00FA68BB689A4201D2BB6806E0FA687B689A
:1008DC009A4201D97B6800E0FB6818461437BD4684
:1008EC0080BC704780B5B0B002AF786039607B686F
:1008FC0093F84D30DBB2002B00F006817B680022B0
:10090C0083F84D207B6803F10C0107F1680340224A
:10091C00184603F0CAFC002387F8A73007F16803D8
:10092C007B49184603F0D4FCC7F8B400002387F8C1
:10093C00B330B4E0D7F8B4301B78502B04D0D7F8D0
:10094C00B4301B78702B31D100237B6607F1640324
:10095C001A467049D7F8B40003F030FC0346012B5B
:10096C0015D007F164031A466B49D7F8B40003F0AD
:10097C0025FC0346012B0AD007F164031A4667498C
:10098C00D7F8B40003F01AFC0346012B7ED17B6E22
:10099C004EF660224FF4FA711846FFF78BFF0246B1
:1009AC007B685A60012387F8B3306FE0D7F8B43016
:1009BC001B78542B04D0D7F8B4301B78742B2DD162
:1009CC0000233B6607F160031A465549D7F8B4007B
:1009DC0003F0F4FB0346012B15D007F160031A4614
:1009EC005049D7F8B40003F0E9FB0346012B0AD0B9
:1009FC0007F160031A464C49D7F8B40003F0DEFB4C
:100A0C000346012B44D13B6E632B41D83B6EDAB2CB
:100A1C007B681A72012387F8B33039E0D7F8B43009
:100A2C001B78482B04D0D7F8B4301B78682B30D106
:100A3C000023FB6507F15C031A463C49D7F8B40068
:100A4C0003F0BCFB0346012B15D007F15C031A46DF
:100A5C003749D7F8B40003F0B1FB0346012B0AD099
:100A6C0007F15C031A463349D7F8B40003F0A6FB30
:100A7C000346012B0DD1FB6D632B0AD8FB6DDAB24B
:100A8C007B685A72012387F8B33002E000BF00E0A4
:100A9C0000BF1F49002003F01BFCC7F8B400D7F8B7
:100AAC00B430002B7FF446AF97F8B330002B1BD03B
:100ABC007B685A687B681B7A19467B685B7A07F1FE
:100ACC000C000193009113461B4A502103F042FB8A
:100ADC00C7F8A800D7F8A8309AB207F10C01642324
:100AEC00386802F05BFC10E0144BC7F8AC30D7F858
:100AFC00AC00FFF725FB03469AB26423D7F8AC1081
:100B0C00386802F04BFC00E000BFB837BD4680BD32
:100B1C00E45D0008E85D0008F05D0008F85D000881
:100B2C00005E0008085E0008105E0008145E0008F5
:100B3C001C5E0008245E0008285E0008445E000865
:100B4C0080B582B000AF00F06FFC00F089F800F0C7
:100B5C0071F900F0CBF800F043F900F0F5F83448E7
:100B6C0002F058F9324800F003FC324B324A1A605A
:100B7C00304B20229A802F4B2D4A9A602D48FFF73C
:100B8C008DFB27222D492E48FFF7FDFC2C48FFF743
:100B9C0041FD002200212A48FFF748FD2949284839
:100BAC00FFF761FD4FF47A7000F0A0FC2448FFF7CA
:100BBC0031FD50220021244803F06FFB224B4FF4EF
:100BCC007A625A60204B1D221A721F4B46225A72AF
:100BDC001D4B00229A7201224FF400511B4801F068
:100BEC0004F801221A491B4802F063FC1A4B1B68DB
:100BFC007B6018491448FFF775FE184B1B687A6820
:100C0C00D21A114B5B689A42F0D3144A7B6813607A
:100C1C0008490D48FFF73EFD0B48FFF75BFD0849FF
:100C2C000948FFF78BFD0B490748FFF7E5FDDDE7AA
:100C3C00D800002070010020000801408400002032
:100C4C0068010020605E00087C010020001001405B
:100C5C008701002020010020D8010020CC010020B9
:100C6C0080B590B000AF07F1180328220021184678
:100C7C0003F013FB3B1D00221A605A609A60DA6085
:100C8C001A610123BB614FF48033FB6100233B628B
:100C9C000123BB6202237B634FF48033BB634FF4AD
:100CAC00E013FB6307F11803184601F053FC0346ED
:100CBC00002B01D000F078F90F237B600223BB607E
:100CCC000023FB604FF480633B6100237B613B1D81
:100CDC000221184601F0C0FE0346002B01D000F0A3
:100CEC0063F900BF4037BD4680BD000080B500AF42
:100CFC00124B134A1A60114B124A5A600F4B0022C6
:100D0C009A600E4B0022DA600C4B4FF480421A6151
:100D1C000A4B00225A61094B00229A61074B0022B0
:100D2C00DA61064B00221A62044800F077FF034692
:100D3C00002B01D000F038F900BF80BD84000020EA
:100D4C0000540040A086010080B586B000AF07F1CA
:100D5C00080300221A605A609A60DA603B4600224F
:100D6C001A605A601D4B4FF080421A601B4B472291
:100D7C005A601A4B00229A60184B4FF6FF72DA60D9
:100D8C00164B00221A61154B00229A61134801F090
:100D9C00F1FF0346002B01D000F006F94FF480530D
:100DAC00BB6007F1080319460C4802F07DF80346B6
:100DBC00002B01D000F0F8F800233B6000237B608F
:100DCC003B461946054802F03BFA0346002B01D07E
:100DDC0000F0EAF800BF1837BD4680BDD8000020EF
:100DEC0080B500AF114B124A1A60104B4FF4E13230
:100DFC005A600E4B00229A600C4B0022DA600B4BAF
:100E0C0000221A61094B0C225A61084B00229A618C
:100E1C00064B0022DA61054802F070FA0346002BFB
:100E2C0001D000F0C1F800BF80BD00BF2001002040
:100E3C000038014080B588B000AF07F110030022E4
:100E4C001A605A609A60DA602A4B9B69294A43F00F
:100E5C0010039361274B9B6903F01003FB60FB6845
:100E6C00244B9B69234A43F020039361214B9B69DC
:100E7C0003F02003BB60BB681E4B9B691D4A43F00B
:100E8C00040393611B4B9B6903F004037B607B6839
:100E9C00184B9B69174A43F008039361154B9B69E8
:100EAC0003F008033B603B6801224FF400511248E9
:100EBC0000F09BFE4FF400533B6101237B61002348
:100ECC00BB610223FB6107F1100319460A4800F0CD
:100EDC00F1FC20233B6100237B610023BB6107F104
:100EEC0010031946054800F0E5FC00BF2037BD464D
:100EFC0080BD00BF001002400010014000080140FE
:100F0C0080B584B000AF78607B681B68224A93423E
:100F1C003DD1224BDB7AFB73FB7B0A2B05D0FB7B91
:100F2C000D2B02D0FB7B3B2B15D11C4B93F84C307B
:100F3C00002B27D0194B93F84C301A46174B1344FF
:100F4C0000221A73154B002283F84C20134B0122FC
:100F5C0083F84D2016E0114B93F84C303E2B0DD8F6
:100F6C000E4B93F84C305A1CD1B20C4A82F84C10F0
:100F7C001A460A4B1344FA7B1A7303E0074B002200
:100F8C0083F84C2001220649064802F092FA00BF71
:100F9C001037BD4680BD00BF003801407C010020E9
:100FAC00870100202001002080B400AF72B600BF82
:100FBC0000BFFDE780B485B000AF154B9B69144AA8
:100FCC0043F001039361124B9B6903F00103BB6077
:100FDC00BB680F4BDB690E4A43F08053D3610C4B5B
:100FEC00DB6903F080537B607B680A4B5B68FB60BA
:100FFC00FB6823F0E063FB60FB6843F00073FB606D
:10100C00044AFB68536000BF1437BD4680BC704770
:10101C00001002400000014080B588B000AF78603D
:10102C0007F1100300221A605A609A60DA607B683C
:10103C001B68154A934223D1144B9B69134A43F006
:10104C0008039361114B9B6903F00803FB60FB6879
:10105C00C0233B6112237B610323FB6107F1100367
:10106C0019460B4800F026FC084BDB69074A43F491
:10107C000013D361054BDB6903F40013BB60BB6841
:10108C0000BF2037BD4680BD005400400010024018
:10109C00000C014080B485B000AF78607B681B68A1
:1010AC00B3F1804F0BD1084BDB69074A43F00103C6
:1010BC00D361054BDB6903F00103FB60FB6800BFE8
:1010CC001437BD4680BC70470010024080B588B014
:1010DC0000AF786007F1100300221A605A609A6022
:1010EC00DA607B681B68204A934239D11F4B9B699D
:1010FC001E4A43F4804393611C4B9B6903F4804369
:10110C00FB60FB68194B9B69184A43F0040393611D
:10111C00164B9B6903F00403BB60BB684FF4007370
:10112C003B6102237B610323FB6107F1100319462A
:10113C000F4800F0BFFB4FF480633B6100237B61E1
:10114C000023BB6107F110031946094800F0B2FBFC
:10115C0000220021252000F0C4FA252000F0DDFA41
:10116C0000BF2037BD4680BD003801400010024052
:10117C000008014080B400AF00BFFDE780B400AFB1
:10118C0000BFFDE780B400AF00BFFDE780B400AF47
:10119C0000BFFDE780B400AF00BFFDE780B400AF37
:1011AC0000BFBD4680BC704780B400AF00BFBD46D9
:1011BC0080BC704780B400AF00BFBD4680BC704798
:1011CC0080B500AF00F076F900BF80BD80B500AFF0
:1011DC00024802F093F900BF80BD00BF200100203F
:1011EC0080B400AF01231846BD4680BC704780B563
:1011FC0082B000AF7860396003F00CF90346162218
:10120C001A604FF0FF3318460837BD4680BD80B5D5
:10121C0082B000AF78604FF0FF317868FFF7E7FFDE
:10122C0000BFFDE780B586B000AFF860B9607A60AA
:10123C0000237B610AE0AFF300800146BB685A1CB7
:10124C00BA60CAB21A707B6901337B617A697B68B8
:10125C009A42F0DB7B6818461837BD4680BD80B5D6
:10126C0086B000AFF860B9607A6000237B6109E05A
:10127C00BB685A1CBA601B781846AFF300807B69B8
:10128C0001337B617A697B689A42F1DB7B68184693
:10129C001837BD4680BD80B483B000AF78604FF086
:1012AC00FF3318460C37BD4680BC704780B483B002
:1012BC0000AF786039603B684FF400525A600023ED
:1012CC0018460C37BD4680BC704780B483B000AF65
:1012DC007860012318460C37BD4680BC704780B43B
:1012EC0085B000AFF860B9607A60002318461437F7
:1012FC00BD4680BC7047000080B586B000AF7860FA
:10130C00144A154BD31A7B617B693B61134B1B68E9
:10131C00002B02D1114B124A1A60104B1A687B68D1
:10132C0013443A699A4207D203F074F803460C222C
:10133C001A604FF0FF3309E0084B1B68FB60074B4A
:10134C001A687B681344054A1360FB681846183703
:10135C00BD4680BD0050002000040000D0010020DC
:10136C002803002080B400AF00BFBD4680BC70478E
:10137C0080B483B000AF7860064A7B681360054B7D
:10138C001B681B6800225A6200BF0C37BD4680BC2C
:10139C00704700BFD401002080B400AF034B1B6822
:1013AC001B685B6A1846BD4680BC7047D4010020A0
:1013BC0080B584B000AF7860FFF7EEFFF86000BF37
:1013CC00FFF7EAFF0246FB68D31A7A689A42F7D80D
:1013DC0000BF00BF1037BD4680BD0000FFF7C2FF45
:1013EC000B480C490C4A002302E0D458C450043377
:1013FC00C4188C42F9D3094A094C002301E013604C
:10140C000432A242FBD303F00BF8FFF799FB7047B1
:10141C000000002068000020B06000086800002078
:10142C0028030020FEE7000080B500AF084B1B68C6
:10143C00074A43F010031360032000F047F90F2014
:10144C0000F008F8FFF7B6FD0023184680BD00BF7A
:10145C000020024080B582B000AF7860124B1A6851
:10146C00124B1B7819464FF47A73B3FBF1F3B2FBB2
:10147C00F3F3184600F05FF90346002B01D001236B
:10148C000EE07B680F2B0AD8002279684FF0FF30F2
:10149C0000F027F9064A7B681360002300E0012363
:1014AC0018460837BD4680BD00000020080000200B
:1014BC000400002080B400AF054B1B781A46054B86
:1014CC001B681344034A136000BFBD4680BC7047C1
:1014DC0008000020D801002080B400AF024B1B682C
:1014EC001846BD4680BC7047D801002080B584B03A
:1014FC0000AF7860FFF7F0FFB8607B68FB60FB68BB
:10150C00B3F1FF3F05D00A4B1B781A46FB68134416
:10151C00FB6000BFFFF7E0FF0246BB68D31AFA6816
:10152C009A42F7D800BF00BF1037BD4680BD00BF40
:10153C000800002080B485B000AF78607B6803F0B1
:10154C000703FB600C4BDB68BB60BA684FF6FF030C
:10155C001340BB60FB681A02BB68134343F0BF63C4
:10156C0043F40033BB60044ABB68D36000BF14373C
:10157C00BD4680BC704700BF00ED00E080B400AFFA
:10158C00044BDB681B0A03F007031846BD4680BCFE
:10159C00704700BF00ED00E080B483B000AF03469D
:1015AC00FB7197F90730002B0BDBFB7903F01F0263
:1015BC00064997F907305B09012000FA02F241F85D
:1015CC00232000BF0C37BD4680BC704700E100E013
:1015DC0080B483B000AF03463960FB7197F90730D4
:1015EC00002B0ADB3B68DAB20C4997F90730120181
:1015FC00D2B20B4483F800230AE03B68DAB2084904
:10160C00FB7903F00F03043B1201D2B20B441A76A0
:10161C0000BF0C37BD4680BC704700BF00E100E046
:10162C0000ED00E080B489B000AFF860B9607A607A
:10163C00FB6803F00703FB61FB69C3F10703042B91
:10164C0028BF0423BB61FB690433062B02D9FB6959
:10165C00033B00E000237B614FF0FF32BB6902FAD1
:10166C0003F3DA43BB681A407B699A404FF0FF31B1
:10167C007B6901FA03F3D9437B680B40134318468B
:10168C002437BD4680BC704780B582B000AF78600F
:10169C007B68013BB3F1807F01D301230FE00A4A41
:1016AC007B68013B53600F214FF0FF30FFF790FF39
:1016BC00054B00229A60044B07221A60002318463F
:1016CC000837BD4680BD00BF10E000E080B582B099
:1016DC0000AF78607868FFF72DFF00BF0837BD4674
:1016EC0080BD80B586B000AF0346B9607A60FB73ED
:1016FC0000237B61FFF742FF78617A68B9687869EB
:10170C00FFF790FF024697F90F3011461846FFF786
:10171C005FFF00BF1837BD4680BD80B582B000AFFB
:10172C000346FB7197F907301846FFF735FF00BFEA
:10173C000837BD4680BD80B582B000AF7860786850
:10174C00FFF7A2FF034618460837BD4680BD80B49C
:10175C0085B000AF78600023FB737B6893F8213071
:10176C00DBB2022B08D07B6804229A637B680022D0
:10177C0083F82020012320E07B681B681A687B68B3
:10178C001B6822F00E021A607B681B681A687B6863
:10179C001B6822F001021A607B681A6C7B68DB6B99
:1017AC00012101FA02F25A607B68012283F82120A0
:1017BC007B68002283F82020FB7B18461437BD463B
:1017CC0080BC704780B584B000AF78600023FB7399
:1017DC007B6893F82130DBB2022B05D07B680422A6
:1017EC009A630123FB7351E07B681B681A687B6862
:1017FC001B6822F00E021A607B681B681A687B68F3
:10180C001B6822F001021A607B681B68224A934213
:10181C0029D07B681B68214A934222D07B681B68C5
:10182C001F4A93421AD07B681B681E4A934212D0FF
:10183C007B681B681C4A93420AD07B681B681B4A56
:10184C00934202D14FF480130EE04FF080730BE003
:10185C004FF4803308E04FF4805305E04FF480736D
:10186C0002E0102300E00123114A53607B6801223F
:10187C0083F821207B68002283F820207B685B6B37
:10188C00002B03D07B685B6B78689847FB7B184612
:10189C001037BD4680BD00BF080002401C0002404E
:1018AC003000024044000240580002406C000240EC
:1018BC000000024080B48BB000AF78603960002328
:1018CC007B6200233B6269E101227B6A02FA03F32B
:1018DC00FB613B681B68FA691340BB61BA69FB6921
:1018EC009A4240F058813B685B689A4A93425ED0BA
:1018FC00984A934275D8984A934258D0964A934244
:10190C006FD8964A934252D0944A934269D8944ADB
:10191C0093424CD0924A934263D8924A934246D017
:10192C00904A93425DD8122B2AD8122B59D801A277
:10193C0052F823F0BB19000895190008A7190008E4
:10194C00E9190008EF190008EF190008EF19000851
:10195C00EF190008EF190008EF190008EF1900083B
:10196C00EF190008EF190008EF190008EF1900082B
:10197C00EF190008EF1900089D190008B1190008AB
:10198C00794A934213D02CE03B68DB683B6229E038
:10199C003B68DB6804333B6224E03B68DB6808335C
:1019AC003B621FE03B68DB680C333B621AE03B6830
:1019BC009B68002B02D104233B6213E03B689B68BD
:1019CC00012B05D108233B627B68FA691A6109E097
:1019DC0008233B627B68FA695A6103E000233B628F
:1019EC0000E000BFBB69FF2B01D87B6801E07B687E
:1019FC0004337B61BB69FF2B02D87B6A9B0002E03E
:101A0C007B6A083B9B003B617B691A680F213B6931
:101A1C0001FA03F3DB431A40396A3B6901FA03F319
:101A2C001A437B691A603B685B6803F08053002B98
:101A3C0000F0B1804D4B9B694C4A43F0010393611C
:101A4C004A4B9B6903F00103BB60BB68484A7B6A45
:101A5C009B08023352F82330FB607B6A03F00303CC
:101A6C009B000F2202FA03F3DB43FA681340FB607E
:101A7C007B68404A934213D07B683F4A93420DD017
:101A8C007B683E4A934207D07B683D4A934201D122
:101A9C00032306E0042304E0022302E0012300E018
:101AAC0000237A6A02F0030292009340FA6813430F
:101ABC00FB602F497B6A9B080233FA6841F82320AC
:101ACC003B685B6803F48013002B06D02D4B9A689F
:101ADC002C49BB6913438B6006E02A4B9A68BB699F
:101AEC00DB43284913408B603B685B6803F40013AD
:101AFC00002B06D0234BDA682249BB691343CB6019
:101B0C0006E0204BDA68BB69DB431E491340CB600F
:101B1C003B685B6803F40033002B06D0194B5A6802
:101B2C001849BB6913434B6006E0164B5A68BB69F6
:101B3C00DB43144913404B603B685B6803F4803310
:101B4C00002B21D00F4B1A680E49BB6913430B6055
:101B5C0021E000BF00003210000031100000221004
:101B6C0000002110000012100000111000100240A3
:101B7C000000014000080140000C01400010014031
:101B8C0000140140000401400B4B1A68BB69DB4395
:101B9C00094913400B607B6A01337B623B681A680E
:101BAC007B6A22FA03F3002B7FF48EAE00BF00BFDA
:101BBC002C37BD4680BC70470004014080B485B012
:101BCC0000AF78600B467B807B689A687B881340FB
:101BDC00002B02D00123FB7301E00023FB73FB7B82
:101BEC0018461437BD4680BC704780B483B000AF34
:101BFC0078600B467B8013467B707B78002B03D080
:101C0C007A887B681A6103E07B881A047B681A6106
:101C1C0000BF0C37BD4680BC7047000080B584B057
:101C2C0000AF78607B68002B01D101232BE17B682E
:101C3C0093F83D30DBB2002B06D17B68002283F891
:101C4C003C207868FFF7E8F97B68242283F83D2074
:101C5C007B681B681A687B681B6822F001021A609B
:101C6C007B681B681A687B681B6842F400421A6028
:101C7C007B681B681A687B681B6822F400421A6038
:101C8C0001F032F8F8607B685B68814A934207D8B0
:101C9C00FB68804A934294BF01230023DBB206E029
:101CAC00FB687D4A934294BF01230023DBB2002BD7
:101CBC0001D00123E7E0FB68784AA2FB03239B0CCD
:101CCC00BB607B681B685B6823F03F017B681B680B
:101CDC00BA680A435A607B681B681B6A23F03F0191
:101CEC007B685B686A4A934202D8BB68013309E09F
:101CFC00BB684FF4967202FB03F3694AA2FB032301
:101D0C009B0901337A6812680B4313627B681B686A
:101D1C00DB6923F44F4222F0FF027B685B685C496D
:101D2C008B4219D8FB68591E7B685B685B00B1FB62
:101D3C00F3F3591C40F6FC730B40002B0AD0FB68E4
:101D4C00591E7B685B685B00B1FBF3F30133C3F393
:101D5C000B0351E004234FE07B689B68002B11D1EF
:101D6C00FB68581E7B6859680B465B000B44B0FB44
:101D7C00F3F30133C3F30B03002B0CBF012300233C
:101D8C00DBB212E0FB68581E7B6859680B469B005F
:101D9C000B4499000B44B0FBF3F30133C3F30B0377
:101DAC00002B0CBF01230023DBB2002B01D001233D
:101DBC0022E07B689B68002B0ED1FB68581E7B6869
:101DCC0059680B465B000B44B0FBF3F30133C3F3D0
:101DDC000B0343F400430FE0FB68581E7B68596803
:101DEC000B469B000B4499000B44B0FBF3F30133FF
:101DFC00C3F30B0343F44043796809681343CB6185
:101E0C007B681B681B6823F0C0017B68DA697B6800
:101E1C001B6A1A437B681B680A431A607B681B6841
:101E2C009B6823F4034323F0FF037A6811697A68F3
:101E3C00D26811437A6812680B4393607B681B6805
:101E4C00DB6823F0FF017B685A697B689B691A4346
:101E5C007B681B680A43DA607B681B681A687B68BE
:101E6C001B6842F001021A607B6800221A647B68CE
:101E7C00202283F83D207B6800221A637B680022B5
:101E8C0083F83E20002318461037BD4680BD00BFA6
:101E9C00A08601007F841E00FF083D0083DE1B43EB
:101EAC00D34D621080B588B002AFF8607A601A46E4
:101EBC000B467B8113463B81FFF70EFB7861FB6879
:101ECC0093F83D30DBB2202B40F0E0807B6900932F
:101EDC00192301227049F86800F064F90346002BBD
:101EEC0001D00223D3E0FB6893F83C30012B01D1E5
:101EFC000223CCE0FB68012283F83C20FB681B68C2
:101F0C001B6803F00103012B07D0FB681B681A68E0
:101F1C00FB681B6842F001021A60FB681B681A68B8
:101F2C00FB681B6822F400621A60FB68212283F8AC
:101F3C003D20FB68102283F83E20FB6800221A64C7
:101F4C00FB687A685A62FB683A895A85FB685B8D34
:101F5C009AB2FB681A85FB68504ADA6279897B6908
:101F6C003A6AF86800F09CF80346002B01D0012374
:101F7C008DE000233B61FB681B685B693B61FB6880
:101F8C001B689B693B613B6966E07A69396AF86852
:101F9C0000F022FA0346002B0DD0FB681B6C042BBF
:101FAC0007D1FB681B681A68FB681B6842F4007257
:101FBC001A6001236BE0FB685B6A1A78FB681B688C
:101FCC001A61FB685B6A5A1CFB685A62FB685B8D82
:101FDC009BB2013B9AB2FB685A85FB681B8D013B97
:101FEC009AB2FB681A85FB681B685B6903F00403F3
:101FFC00042B1BD1FB681B8D002B17D0FB685B6A75
:10200C001A78FB681B681A61FB685B6A5A1CFB68D0
:10201C005A62FB685B8D9BB2013B9AB2FB685A8596
:10202C00FB681B8D013B9AB2FB681A857A69396A89
:10203C00F86800F019FA0346002B0DD0FB681B6CF6
:10204C00042B07D1FB681B681A68FB681B6842F4F9
:10205C0000721A6001231AE0FB681B8D002B94D1CF
:10206C00FB681B681A68FB681B6842F400721A60F4
:10207C00FB68202283F83D20FB68002283F83E2079
:10208C00FB68002283F83C20002300E00223184662
:10209C001837BD4680BD00BF020010000000FFFFD6
:1020AC0080B588B002AFF8607A603B600B467B81EC
:1020BC00FB68DB6A7B617B69082B06D07B69012B93
:1020CC0003D07B6913F5803F08D1FB681B681A6845
:1020DC00FB681B6842F480721A600BE0FB681B6B98
:1020EC00122B07D1FB681B681A68FB681B6842F44B
:1020FC0080721A603B6800937B6800224FF00111DC
:10210C00F86800F04FF80346002B0DD0FB681B68F5
:10211C001B6803F48073B3F5807F03D1FB684FF425
:10212C0000721A64032335E0FB681B69B3F5804F1A
:10213C0008D17B89DBB21A46FB681B6802F0FE02F1
:10214C001A611BE07B89DB11DBB203F00603DBB207
:10215C0063F00F03DAB2FB681B681A613B687A689C
:10216C000E49F86800F098F80346002B01D00123C3
:10217C0010E07B89DAB2FB681B681A613B687A68ED
:10218C000749F86800F088F80346002B01D00123BA
:10219C0000E0002318461837BD4680BD080001003A
:1021AC000200010080B584B000AFF860B9603B60FC
:1021BC001346FB7148E03B68B3F1FF3F44D0FFF797
:1021CC008BF90246BB69D31A3A689A4202D33B6830
:1021DC00002B39D1BB681B0CDBB2012B0DD1FB687A
:1021EC001B685B69DA43BB6813409BB2002B0CBFC6
:1021FC0001230023DBB21A460CE0FB681B689B69C9
:10220C00DA43BB6813409BB2002B0CBF01230023A5
:10221C00DBB21A46FB799A4216D1FB6800221A638C
:10222C00FB68202283F83D20FB68002283F83E20C7
:10223C00FB681B6C43F02002FB681A64FB680022ED
:10224C0083F83C20012323E0BB681B0CDBB2012B81
:10225C000DD1FB681B685B69DA43BB6813409BB20A
:10226C00002B0CBF01230023DBB21A460CE0FB68E9
:10227C001B689B69DA43BB6813409BB2002B0CBFF5
:10228C0001230023DBB21A46FB799A4293D0002338
:10229C0018461037BD4680BD80B584B000AFF860DD
:1022AC00B9607A603B6071E0FB681B685B6903F4A2
:1022BC008063B3F5806F23D1FB681B681A68FB68D9
:1022CC001B6842F400721A60FB681B686FF4806232
:1022DC005A61FB6800221A63FB68202283F83D20B8
:1022EC00FB68002283F83E20FB681B6C43F0040261
:1022FC00FB681A64FB68002283F83C20012367E02A
:10230C007B68B3F1FF3F41D0FFF7E6F802463B682C
:10231C00D31A7A689A4202D37B68002B36D1BB68F9
:10232C001B0CDBB2012B0CD1FB681B685B69DA431D
:10233C00BB6813409BB2002B14BF01230023DBB2FC
:10234C000BE0FB681B689B69DA43BB6813409BB2CC
:10235C00002B14BF01230023DBB2002B16D0FB682B
:10236C0000221A63FB68202283F83D20FB680022C0
:10237C0083F83E20FB681B6C43F02002FB681A6458
:10238C00FB68002283F83C20012321E0BB681B0C76
:10239C00DBB2012B0CD1FB681B685B69DA43BB68B1
:1023AC0013409BB2002B14BF01230023DBB20BE0C4
:1023BC00FB681B689B69DA43BB6813409BB2002B1C
:1023CC0014BF01230023DBB2002B7FF46DAF00237D
:1023DC0018461037BD4680BD80B584B000AFF8609C
:1023EC00B9607A6034E0F86800F086F80346002B98
:1023FC0001D0012334E0BB68B3F1FF3F28D0FFF7D5
:10240C006BF802467B68D31ABA689A4202D3BB684F
:10241C00002B1DD1FB681B685B6903F08003802BCC
:10242C0016D0FB6800221A63FB68202283F83D203B
:10243C00FB68002283F83E20FB681B6C43F02002F3
:10244C00FB681A64FB68002283F83C20012307E038
:10245C00FB681B685B6903F08003802BC3D10023EE
:10246C0018461037BD4680BD80B584B000AFF8600B
:10247C00B9607A6034E0F86800F03EF80346002B4F
:10248C0001D0012334E0BB68B3F1FF3F28D0FFF744
:10249C0023F802467B68D31ABA689A4202D3BB6807
:1024AC00002B1DD1FB681B685B6903F00403042B34
:1024BC0016D0FB6800221A63FB68202283F83D20AB
:1024CC00FB68002283F83E20FB681B6C43F0200263
:1024DC00FB681A64FB68002283F83C20012307E0A8
:1024EC00FB681B685B6903F00403042BC3D1002356
:1024FC0018461037BD4680BD80B483B000AF7860FD
:10250C007B681B685B6903F48063B3F5806F1BD138
:10251C007B681B686FF480625A617B6800221A63C7
:10252C007B68202283F83D207B68002283F83E20C4
:10253C007B681B6C43F004027B681A647B68002286
:10254C0083F83C20012300E0002318460C37BD46DD
:10255C0080BC704780B586B000AF78607B68002B7C
:10256C0001D1012372E27B681B6803F00103002B8D
:10257C0000F08780924B5B6803F00C03042B0CD0AB
:10258C008F4B5B6803F00C03082B12D18C4B5B68F0
:10259C0003F48033B3F5803F0BD1894B1B6803F4F4
:1025AC000033002B6CD07B685B68002B68D1012357
:1025BC004CE27B685B68B3F5803F06D1804B1B68AF
:1025CC007F4A43F4803313602EE07B685B68002BFA
:1025DC000CD17B4B1B687A4A23F480331360784B05
:1025EC001B68774A23F4802313601DE07B685B68CB
:1025FC00B3F5A02F0CD1724B1B68714A43F48023A6
:10260C0013606F4B1B686E4A43F4803313600BE00E
:10261C006B4B1B686A4A23F480331360684B1B684E
:10262C00674A23F4802313607B685B68002B13D00C
:10263C00FEF752FF386108E0FEF74EFF02463B6999
:10264C00D31A642B01D9032300E25D4B1B6803F4FE
:10265C000033002BF0D014E0FEF73EFF386108E0A9
:10266C00FEF73AFF02463B69D31A642B01D90323C8
:10267C00ECE1534B1B6803F40033002BF0D100E06A
:10268C0000BF7B681B6803F00203002B63D04C4B2C
:10269C005B6803F00C03002B0BD0494B5B6803F019
:1026AC000C03082B1CD1464B5B6803F48033002BC6
:1026BC0016D1434B1B6803F00203002B05D07B683B
:1026CC001B69012B01D00123C0E13D4B1B6823F09A
:1026DC00F8027B685B69DB00394913430B603AE015
:1026EC007B681B69002B20D0364B01221A60FEF749
:1026FC00F3FE386108E0FEF7EFFE02463B69D31AA1
:10270C00022B01D90323A1E12D4B1B6803F002031B
:10271C00002BF0D02A4B1B6823F0F8027B685B6916
:10272C00DB00274913430B6015E0264B00221A608F
:10273C00FEF7D2FE386108E0FEF7CEFE02463B699A
:10274C00D31A022B01D9032380E11D4B1B6803F024
:10275C000203002BF0D17B681B6803F00803002BED
:10276C003AD07B689B69002B19D0174B01221A6059
:10277C00FEF7B2FE386108E0FEF7AEFE02463B699A
:10278C00D31A022B01D9032360E10D4B5B6A03F0D2
:10279C000203002BF0D0012000F0CEFA1CE00A4B13
:1027AC0000221A60FEF798FE38610FE0FEF794FEE7
:1027BC0002463B69D31A022B08D9032346E100BF1A
:1027CC00001002400000424280044242924B5B6A7D
:1027DC0003F00203002BE9D17B681B6803F00403B0
:1027EC00002B00F0A6800023FB758B4BDB6903F0FC
:1027FC008053002B0DD1884BDB69874A43F0805303
:10280C00D361854BDB6903F08053BB60BB6801234C
:10281C00FB75824B1B6803F48073002B18D17F4B24
:10282C001B687E4A43F480731360FEF755FE3861D3
:10283C0008E0FEF751FE02463B69D31A642B01D91E
:10284C00032303E1754B1B6803F48073002BF0D05A
:10285C007B68DB68012B06D16F4B1B6A6E4A43F019
:10286C00010313622DE07B68DB68002B0CD16A4BF3
:10287C001B6A694A23F001031362674B1B6A664AA1
:10288C0023F0040313621CE07B68DB68052B0CD17E
:10289C00614B1B6A604A43F0040313625E4B1B6A74
:1028AC005D4A43F0010313620BE05B4B1B6A5A4A0F
:1028BC0023F001031362584B1B6A574A23F004039D
:1028CC0013627B68DB68002B15D0FEF705FE3861C0
:1028DC000AE0FEF701FE02463B69D31A41F2883248
:1028EC00934201D90323B1E04B4B1B6A03F0020363
:1028FC00002BEED014E0FEF7EFFD38610AE0FEF796
:10290C00EBFD02463B69D31A41F28832934201D95E
:10291C0003239BE0404B1B6A03F00203002BEED118
:10292C00FB7D012B05D13C4BDB693B4A23F08053EB
:10293C00D3617B68DB69002B00F08780364B5B68CA
:10294C0003F00C03082B61D07B68DB69022B46D1AA
:10295C00334B00221A60FEF7BFFD386108E0FEF72A
:10296C00BBFD02463B69D31A022B01D903236DE050
:10297C00294B1B6803F00073002BF0D17B681B6A9A
:10298C00B3F5803F08D1244B5B6823F400327B689D
:10299C009B68214913434B601F4B5B6823F47412F3
:1029AC007B68196A7B685B6A0B431B4913434B605A
:1029BC001B4B01221A60FEF78FFD386108E0FEF711
:1029CC008BFD02463B69D31A022B01D903233DE050
:1029DC00114B1B6803F00073002BF0D035E0104B4B
:1029EC0000221A60FEF778FD386108E0FEF774FDEE
:1029FC0002463B69D31A022B01D9032326E0064B6E
:102A0C001B6803F00073002BF0D11EE07B68DB69C0
:102A1C00012B07D1012319E0001002400070004087
:102A2C00600042420B4B5B68FB60FB6803F4803236
:102A3C007B681B6A9A4206D1FB6803F470127B68B0
:102A4C005B6A9A4201D0012300E000231846183734
:102A5C00BD4680BD0010024080B584B000AF7860E8
:102A6C0039607B68002B01D10123D0E06A4B1B68D5
:102A7C0003F007033A689A4210D9674B1B6823F09E
:102A8C00070265493B6813430B60634B1B6803F0FB
:102A9C0007033A689A4201D00123B8E07B681B68AF
:102AAC0003F00203002B20D07B681B6803F00403A7
:102ABC00002B05D0594B5B68584A43F4E0635360D4
:102ACC007B681B6803F00803002B05D0534B5B6835
:102ADC00524A43F460535360504B5B6823F0F0024E
:102AEC007B689B684D4913434B607B681B6803F004
:102AFC000103002B40D07B685B68012B07D1474B4F
:102B0C001B6803F40033002B15D101237FE07B6895
:102B1C005B68022B07D1414B1B6803F00073002B41
:102B2C0009D1012373E03D4B1B6803F00203002B1A
:102B3C0001D101236BE0394B5B6823F003027B6806
:102B4C005B68364913434B60FEF7C6FCF8600AE03D
:102B5C00FEF7C2FC0246FB68D31A41F2883293425C
:102B6C0001D9032353E02D4B5B6803F00C027B6807
:102B7C005B689B009A42EBD1274B1B6803F0070361
:102B8C003A689A4210D2244B1B6823F00702224960
:102B9C003B6813430B60204B1B6803F007033A6838
:102BAC009A4201D0012332E07B681B6803F00403D6
:102BBC00002B08D0194B5B6823F4E0627B68DB6860
:102BCC00164913434B607B681B6803F00803002B0A
:102BDC0009D0124B5B6823F460527B681B69DB00E5
:102BEC000E4913434B6000F021F802460B4B5B6817
:102BFC001B0903F00F030A49CB5C22FA03F3094AC1
:102C0C001360094B1B681846FEF724FC002318467A
:102C1C001037BD4680BD00BF0020024000100240AE
:102C2C00785E0008000000200400002080B487B00B
:102C3C0000AF0023FB600023BB6000237B610023FB
:102C4C007B6000233B611E4B5B68FB60FB6803F001
:102C5C000C03042B02D0082B03D027E0194B3B614B
:102C6C0027E0FB689B0C03F00F03174AD35C7B60D7
:102C7C00FB6803F48033002B10D0114B5B685B0CAA
:102C8C0003F00103114AD35CBB607B680D4A03FB64
:102C9C0002F2BB68B2FBF3F37B6104E07B680C4A85
:102CAC0002FB03F37B617B693B6102E0054B3B61FB
:102CBC0000BF3B6918461C37BD4680BC704700BF3F
:102CCC000010024000127A00905E0008A05E00081E
:102CDC0000093D0080B400AF024B1B681846BD468E
:102CEC0080BC70470000002080B500AFFFF7F2FFFA
:102CFC000246054B5B681B0A03F007030349CB5CD8
:102D0C0022FA03F3184680BD00100240885E0008CA
:102D1C0080B500AFFFF7DEFF0246054B5B68DB0AB0
:102D2C0003F007030349CB5C22FA03F3184680BD7A
:102D3C0000100240885E000880B485B000AF786057
:102D4C000A4B1B680A4AA2FB03235B0A7A6802FB44
:102D5C0003F3FB6000BFFB685A1EFA60002BF9D12D
:102D6C0000BF00BF1437BD4680BC70470000002078
:102D7C00D34D621080B582B000AF78607B68002BB9
:102D8C0001D1012341E07B6893F83D30DBB2002B8D
:102D9C0006D17B68002283F83C207868FEF77AF92C
:102DAC007B68022283F83D207B681A687B680433B9
:102DBC001946104600F040F97B68012283F8462042
:102DCC007B68012283F83E207B68012283F83F2038
:102DDC007B68012283F840207B68012283F8412024
:102DEC007B68012283F842207B68012283F8432010
:102DFC007B68012283F844207B68012283F84520FC
:102E0C007B68012283F83D20002318460837BD4615
:102E1C0080BD000080B485B000AF78607B6893F80B
:102E2C003D30DBB2012B01D0012332E07B68022262
:102E3C0083F83D207B681B68184A93420ED07B6850
:102E4C001B68B3F1804F09D07B681B68144A93420E
:102E5C0004D07B681B68134A934211D17B681B68B2
:102E6C009B6803F00703FB60FB68062B10D07B68A4
:102E7C001B681A687B681B6842F001021A6007E045
:102E8C007B681B681A687B681B6842F001021A6039
:102E9C00002318461437BD4680BC7047002C0140F7
:102EAC00000400400008004080B584B000AF78609A
:102EBC0039600023FB737B6893F83C30012B01D104
:102ECC000223B4E07B68012283F83C207B68022259
:102EDC0083F83D207B681B689B68BB60BB6823F054
:102EEC007703BB60BB6823F47F43BB607B681B68C4
:102EFC00BA689A603B681B68B3F5005F3ED0B3F5C7
:102F0C00005F00F28780B3F5805F00F08680B3F538
:102F1C00805F7FD8702B1AD0702B7BD8602B50D051
:102F2C00602B77D8502B3CD0502B73D8402B58D0DB
:102F3C00402B6FD8302B64D0302B6BD8202B60D02B
:102F4C00202B67D8002B5CD0102B5AD062E07B680A
:102F5C0018683B6899683B685A683B68DB6800F006
:102F6C0050F97B681B689B68BB60BB6843F07703B8
:102F7C00BB607B681B68BA689A604FE07B68186816
:102F8C003B6899683B685A683B68DB6800F039F924
:102F9C007B681B689A687B681B6842F480429A6065
:102FAC003CE07B6818683B6859683B68DB681A46EC
:102FBC0000F0B0F87B681B685021184600F007F948
:102FCC002CE07B6818683B6859683B68DB681A46DC
:102FDC0000F0CEF87B681B686021184600F0F7F80B
:102FEC001CE07B6818683B6859683B68DB681A46CC
:102FFC0000F090F87B681B684021184600F0E7F859
:10300C000CE07B681A683B681B681946104600F098
:10301C00DEF803E00123FB7300E000BF7B680122B4
:10302C0083F83D207B68002283F83C20FB7B18460C
:10303C001037BD4680BD000080B485B000AF78600D
:10304C0039607B681B68FB607B682F4A93420BD00E
:10305C007B68B3F1804F07D07B682C4A934203D036
:10306C007B682B4A934208D1FB6823F07003FB600A
:10307C003B685B68FA681343FB607B68224A9342A7
:10308C000BD07B68B3F1804F07D07B681F4A93420B
:10309C0003D07B681E4A934208D1FB6823F440732B
:1030AC00FB603B68DB68FA681343FB60FB6823F04A
:1030BC0080023B685B691343FB607B68FA681A60AB
:1030CC003B689A687B68DA623B681A687B689A622C
:1030DC007B680D4A934203D13B681A697B681A637B
:1030EC007B6801225A617B681B6903F00103002B8A
:1030FC0005D07B681B6923F001027B681A6100BF55
:10310C001437BD4680BC7047002C014000040040C1
:10311C000008004080B487B000AFF860B9607A60F6
:10312C00FB681B6A7B61FB681B6A23F00102FB686E
:10313C001A62FB689B693B613B6923F0F0033B61BE
:10314C007B681B013A6913433B617B6923F00A03DB
:10315C007B617A69BB6813437B61FB683A699A614E
:10316C00FB687A691A6200BF1C37BD4680BC704789
:10317C0080B487B000AFF860B9607A60FB681B6AF6
:10318C007B61FB681B6A23F01002FB681A62FB6808
:10319C009B693B613B6923F470433B617B681B0378
:1031AC003A6913433B617B6923F0A0037B61BB68E5
:1031BC001B017A6913437B61FB683A699A61FB686E
:1031CC007A691A6200BF1C37BD4680BC704780B458
:1031DC0085B000AF786039607B689B68FB60FB68EA
:1031EC0023F07003FB603A68FB68134343F007035A
:1031FC00FB607B68FA689A6000BF1437BD4680BCE0
:10320C00704780B487B000AFF860B9607A603B60FB
:10321C00FB689B687B617B6923F47F437B613B6824
:10322C001A027B681A43BB6813437A6913437B61A8
:10323C00FB687A699A6000BF1C37BD4680BC70473A
:10324C0080B485B000AF786039607B6893F83C300F
:10325C00012B01D1022346E07B68012283F83C203C
:10326C007B68022283F83D207B681B685B68FB60EF
:10327C007B681B689B68BB60FB6823F07003FB607A
:10328C003B681B68FA681343FB607B681B68FA6831
:10329C005A607B681B68164A93420ED07B681B6889
:1032AC00B3F1804F09D07B681B68124A934204D05B
:1032BC007B681B68104A93420CD1BB6823F08003D7
:1032CC00BB603B685B68BA681343BB607B681B6878
:1032DC00BA689A607B68012283F83D207B680022E3
:1032EC0083F83C20002318461437BD4680BC704739
:1032FC00002C0140000400400008004080B582B062
:10330C0000AF78607B68002B01D1012342E07B6821
:10331C0093F84130DBB2002B06D17B68002283F896
:10332C0040207868FDF7D2FE7B68242283F8412088
:10333C007B681B68DA687B681B6822F40052DA60D1
:10334C00786800F0B7FD7B681B681A697B681B689E
:10335C0022F490421A617B681B685A697B681B686F
:10336C0022F02A025A617B681B68DA687B681B684A
:10337C0042F40052DA607B6800225A647B68202297
:10338C0083F841207B68202283F842207B6800224E
:10339C005A63002318460837BD4680BD80B58AB0F5
:1033AC0002AFF860B9603B601346FB8000237B6181
:1033BC00FB6893F84130DBB2202B75D1BB68002B36
:1033CC0002D0FB88002B01D101236EE0FB680022A8
:1033DC005A64FB68212283F84120FEF77DF878615E
:1033EC00FB68FA889A84FB68FA88DA84FB689B6825
:1033FC00B3F5805F08D1FB681B69002B04D1002357
:10340C00FB61BB68BB6103E0BB68FB610023BB6174
:10341C002EE03B6800937B6900228021F86800F065
:10342C001CFB0346002B05D0FB68202283F84120AF
:10343C0003233AE0FB69002B0BD1BB691B881A46AE
:10344C00FB681B68C2F308025A60BB690233BB619C
:10345C0007E0FB691A78FB681B685A60FB6901334B
:10346C00FB61FB68DB8C9BB2013B9AB2FB68DA8494
:10347C00FB68DB8C9BB2002BCBD13B6800937B6948
:10348C0000224021F86800F0E8FA0346002B05D032
:10349C00FB68202283F84120032306E0FB682022EE
:1034AC0083F84120002300E0022318462037BD4654
:1034BC0080BD80B584B000AFF860B9601346FB8066
:1034CC00FB6893F84230DBB2202B12D1BB68002B87
:1034DC0002D0FB88002B01D101230BE0FB680022FA
:1034EC001A63FB881A46B968F86800F00FFB0346AC
:1034FC0000E0022318461037BD4680BD80B5BAB037
:10350C0000AF78607B681B681B68C7F8E4307B6889
:10351C001B68DB68C7F8E0307B681B685B69C7F821
:10352C00DC300023C7F8D8300023C7F8D430D7F8E4
:10353C00E43003F00F03C7F8D830D7F8D830002B9D
:10354C000FD1D7F8E43003F02003002B09D0D7F8C3
:10355C00E03003F02003002B03D0786800F0ECFB84
:10356C005BE2D7F8D830002B00F0DE80D7F8DC30E7
:10357C0003F00103002B06D1D7F8E03003F490736D
:10358C00002B00F0D180D7F8E43003F00103002BBE
:10359C000BD0D7F8E03003F48073002B05D07B6898
:1035AC005B6C43F001027B685A64D7F8E43003F09B
:1035BC000403002B0BD0D7F8DC3003F00103002BF5
:1035CC0005D07B685B6C43F002027B685A64D7F8C9
:1035DC00E43003F00203002B0BD0D7F8DC3003F0FF
:1035EC000103002B05D07B685B6C43F004027B6805
:1035FC005A64D7F8E43003F00803002B11D0D7F845
:10360C00E03003F02003002B05D1D7F8DC3003F0B9
:10361C000103002B05D07B685B6C43F008027B68D0
:10362C005A647B685B6C002B00F0F281D7F8E430B5
:10363C0003F02003002B08D0D7F8E03003F0200370
:10364C00002B02D0786800F077FB7B681B685B6905
:10365C0003F04003002B14BF01230023DBB2C7F897
:10366C00D4307B685B6C03F00803002B03D1D7F8D4
:10367C00D430002B4FD0786800F081FA7B681B683F
:10368C005B6903F04003002B41D07B681B6814334B
:10369C00C7F89C30D7F89C3053E8003FC7F89830F7
:1036AC00D7F8983023F04003C7F8D0307B681B68FC
:1036BC001433D7F8D020C7F8A820C7F8A430D7F80F
:1036CC00A410D7F8A82041E80023C7F8A030D7F8F9
:1036DC00A030002BD9D17B68DB6B002B13D07B681F
:1036EC00DB6B7E4A5A637B68DB6B1846FEF76AF825
:1036FC000346002B16D07B68DB6B5B6B7A68D26B56
:10370C00104698470EE0786800F093F90AE0786864
:10371C0000F08FF906E0786800F08BF97B680022E6
:10372C005A6475E100BF73E17B681B6B012B40F0A1
:10373C004F81D7F8E43003F01003002B00F04881E0
:10374C00D7F8E03003F01003002B00F04181002388
:10375C00BB607B681B681B68BB607B681B685B6815
:10376C00BB60BB687B681B685B6903F04003002B84
:10377C0000F0B6807B68DB6B1B685B68A7F8BE301B
:10378C00B7F8BE30002B00F045817B689B8DB7F8F5
:10379C00BE209A4280F03E817B68B7F8BE20DA8565
:1037AC007B68DB6B9B69202B00F088807B681B6837
:1037BC000C33C7F88830D7F8883053E8003FC7F887
:1037CC008430D7F8843023F48073C7F8B8307B6822
:1037DC001B680C33D7F8B820C7F89420C7F8903082
:1037EC00D7F89010D7F8942041E80023C7F88C3014
:1037FC00D7F88C30002BD9D17B681B6814337B67CE
:10380C007B6F53E8003F3B673B6F23F00103C7F826
:10381C00B4307B681B681433D7F8B420C7F8802009
:10382C00FB67F96FD7F8802041E80023BB67BB6FBB
:10383C00002BE1D17B681B6814333B663B6E53E86D
:10384C00003FFB65FB6D23F04003C7F8B0307B688D
:10385C001B681433D7F8B020FA66BB66B96EFA6EE3
:10386C0041E800237B667B6E002BE3D17B68202232
:10387C0083F842207B6800221A637B681B680C3338
:10388C00FB64FB6C53E8003FBB64BB6C23F0100380
:10389C00C7F8AC307B681B680C33D7F8AC20BA6522
:1038AC007B65796DBA6D41E800233B653B6D002B60
:1038BC00E3D17B68DB6B1846FDF749FF7B6802227E
:1038CC005A637B689A8D7B68DB8D9BB2D31A9BB253
:1038DC001946786800F0B6F89CE000BF4F3C000831
:1038EC007B689A8D7B68DB8D9BB2D31AA7F8CE30A0
:1038FC007B68DB8D9BB2002B00F08E80B7F8CE304E
:10390C00002B00F089807B681B680C33BB63BB6B9E
:10391C0053E8003F7B637B6B23F49073C7F8C8308C
:10392C007B681B680C33D7F8C8207A643B64396C0D
:10393C007A6C41E80023FB63FB6B002BE3D17B68C3
:10394C001B6814337B627B6A53E8003F3B623B6A23
:10395C0023F00103C7F8C4307B681B681433D7F815
:10396C00C4203A63FB62F96A3A6B41E80023BB62FC
:10397C00BB6A002BE3D17B68202283F842207B6852
:10398C0000221A637B681B680C333B613B6953E86C
:10399C00003FFB60FB6823F01003C7F8C0307B6866
:1039AC001B680C33D7F8C020FA61BB61B969FA699E
:1039BC0041E800237B617B69002BE3D17B68022209
:1039CC005A63B7F8CE301946786800F03BF823E01C
:1039DC00D7F8E43003F08003002B09D0D7F8E0309F
:1039EC0003F08003002B03D0786800F03EF914E05C
:1039FC00D7F8E43003F04003002B0ED0D7F8E030BA
:103A0C0003F04003002B08D0786800F07DF904E047
:103A1C0000BF02E000BF00E000BFE837BD4680BD3C
:103A2C0080B483B000AF786000BF0C37BD4680BC5B
:103A3C00704780B483B000AF786000BF0C37BD46D0
:103A4C0080BC704780B483B000AF78600B467B803D
:103A5C0000BF0C37BD4680BC704780B586B000AF48
:103A6C00F860B9603B601346FB713BE03B6AB3F115
:103A7C00FF3F37D0FDF730FD02463B68D31A3A6A58
:103A8C009A4202D33B6A002B01D103233AE0FB6834
:103A9C001B68DB6803F00403002B23D0BB68802B6E
:103AAC0020D0BB68402B1DD0FB681B681B6803F043
:103ABC000803082B16D100237B61FB681B681B686D
:103ACC007B61FB681B685B687B617B69F86800F055
:103ADC0056F8FB6808225A64FB68002283F84020E1
:103AEC0001230FE0FB681B681A68BB681340BA68B7
:103AFC009A420CBF01230023DBB21A46FB799A428F
:103B0C00B4D0002318461837BD4680BD80B485B0AC
:103B1C0000AFF860B9601346FB80FB68BA689A6224
:103B2C00FB68FA889A85FB68FA88DA85FB680022BC
:103B3C005A64FB68222283F84220FB681B69002B25
:103B4C0007D0FB681B68DA68FB681B6842F480725C
:103B5C00DA60FB681B685A69FB681B6842F001025B
:103B6C005A61FB681B68DA68FB681B6842F020022C
:103B7C00DA60002318461437BD4680BC704780B409
:103B8C0095B000AF78607B681B680C337B637B6BF4
:103B9C0053E8003F3B633B6B23F49073FB647B68FF
:103BAC001B680C33FA6C3A64FB63F96B3A6C41E8B2
:103BBC000023BB63BB6B002BE5D17B681B68143304
:103BCC003B623B6A53E8003FFB61FB6923F0010356
:103BDC00BB647B681B681433BA6CFA62BB62B96A4B
:103BEC00FA6A41E800237B627B6A002BE5D17B6893
:103BFC001B6B012B19D17B681B680C33FB60FB68BA
:103C0C0053E8003FBB60BB6823F010037B647B6808
:103C1C001B680C337A6CBA617B617969BA6941E8CB
:103C2C0000233B613B69002BE5D17B68202283F8A4
:103C3C0042207B6800221A6300BF5437BD4680BC0B
:103C4C00704780B584B000AF78607B685B6AFB60BE
:103C5C00FB680022DA85FB680022DA84F868FFF73B
:103C6C00E8FE00BF1037BD4680BD80B485B000AF04
:103C7C0078607B6893F84130DBB2212B3ED17B68B6
:103C8C009B68B3F5805F14D17B681B69002B10D146
:103C9C007B681B6AFB60FB681B881A467B681B6889
:103CAC00C2F308025A607B681B6A9A1C7B681A6212
:103CBC0008E07B681B6A591C7A6811621A787B6869
:103CCC001B685A607B68DB8C9BB2013B9BB27A68A9
:103CDC001946D184002B0FD17B681B68DA687B688E
:103CEC001B6822F08002DA607B681B68DA687B68EC
:103CFC001B6842F04002DA60002300E00223184601
:103D0C001437BD4680BC704780B582B000AF786078
:103D1C007B681B68DA687B681B6822F04002DA60FB
:103D2C007B68202283F841207868FFF779FE002316
:103D3C0018460837BD4680BD80B58CB000AF7860A2
:103D4C007B6893F84230DBB2222B40F0AE807B686C
:103D5C009B68B3F5805F17D17B681B69002B13D16F
:103D6C000023FB627B689B6ABB627B681B685B6899
:103D7C009BB2C3F308039AB2BB6A1A807B689B6A36
:103D8C009A1C7B689A6226E07B689B6AFB62002324
:103D9C00BB627B689B68B3F5805F07D07B689B68D0
:103DAC00002B0AD17B681B69002B06D17B681B6832
:103DBC005B68DAB2FB6A1A7008E07B681B685B68A8
:103DCC00DBB203F07F03DAB2FB6A1A707B689B6A82
:103DDC005A1C7B689A627B68DB8D9BB2013B9BB261
:103DEC007A681946D185002B5DD17B681B68DA682F
:103DFC007B681B6822F02002DA607B681B68DA683B
:103E0C007B681B6822F48072DA607B681B685A69D5
:103E1C007B681B6822F001025A617B68202283F8C0
:103E2C0042207B6800225A637B681B6B012B35D1C7
:103E3C007B6800221A637B681B680C337B617B698F
:103E4C0053E8003F3B613B6923F010037B627B68C6
:103E5C001B680C337A6A3A62FB61F9693A6A41E889
:103E6C000023BB61BB69002BE5D17B681B681B6819
:103E7C0003F01003102B0AD10023FB607B681B6836
:103E8C001B68FB607B681B685B68FB60FB687B687E
:103E9C009B8D19467868FFF7D5FD02E07868FDF731
:103EAC002FF8002302E0002300E0022318463037ED
:103EBC00BD4680BD80B584B000AF78607B681B6860
:103ECC001B6923F440517B68DA687B681B680A43E2
:103EDC001A617B689A687B681B691A437B685B690B
:103EEC001343BB607B681B68DB6823F4B05323F07F
:103EFC000C037A681268B9680B43D3607B681B6843
:103F0C005B6923F440717B689A697B681B680A4380
:103F1C005A617B681B682C4A934203D1FEF7F8FE6A
:103F2C00F86002E0FEF7E0FEF860FA6813469B00CA
:103F3C0013449A001A447B685B689B00B2FBF3F352
:103F4C00224AA2FB03235B091901FA6813469B0062
:103F5C0013449A001A447B685B689B00B2FBF3F233
:103F6C001A4BA3FB02035B09642000FB03F3D31A77
:103F7C001B013233154AA2FB03235B0903F0F00348
:103F8C001944FA6813469B0013449A001A447B6840
:103F9C005B689B00B2FBF3F20C4BA3FB02035B09C7
:103FAC00642000FB03F3D31A1B013233074AA2FB34
:103FBC0003235B0903F00F027B681B680A449A60B9
:103FCC0000BF1037BD4680BD003801401F85EB5146
:103FDC00002310B50446C0E90033C0E90433836004
:103FEC0081814366C2818361194608225C3000F0EE
:103FFC0054F90D4B246263620C4BA3620C4BE362CD
:10400C000C4B23630C4B9C4206D003F16802944288
:10401C0002D0D0339C4205D104F15800BDE81040C9
:10402C0000F022BA10BD00BF1D4200084342000838
:10403C007B4200089F420008DC010020024A034931
:10404C00034800F069B800BF0C000020B55300080D
:10405C001C00002041680C4B10B59942044601D05D
:10406C0001F0A2F9A168094B994202D0204601F057
:10407C009BF9E168064B994204D02046BDE81040FC
:10408C0001F092B910BD00BFDC01002044020020F9
:10409C00AC02002010B50B4B0B4C0C4A20461A609E
:1040AC0004210022FFF794FF04F16800012209218A
:1040BC00FFF78EFF04F1D0000222BDE81040122160
:1040CC00FFF786BF14030020DC01002049400008E4
:1040DC00014800F0CAB900BF1D030020014800F0E0
:1040EC00C5B900BF1D03002010B50446FFF7F0FF53
:1040FC00236A1BB1BDE81040FFF7F0BF044B2362ED
:10410C00044B1B68002BF5D1FFF7C4FFF2E700BF8F
:10411C0061400008140300202DE9F8430746884647
:10412C0014460026D4E90195B9F1010905D5246896
:10413C00002CF7D13046BDE8F883AB89012B07D9A9
:10414C00B5F90E30013303D029463846C047064333
:10415C006835E9E70CB430B5174B0C1E1D689DB0E3
:10416C0008DA8B234FF0FF302B601DB0BDE83040D8
:10417C0002B070474FF40273ADF814300CBF2346F5
:10418C0004F1FF33049307934FF6FF7302900690EC
:10419C00ADF81630284621AB209A02A9019300F005
:1041AC00DFFA431CBCBF8B232B60002CDDD000221C
:1041BC00029B1A70D9E700BF180000200EB44FF410
:1041CC00017230B59CB01FAC54F8045BADF81420F0
:1041DC0002900690FBF7B4FF0B4B03900B9300235C
:1041EC000F9314934FF6FF7307900848ADF81630F1
:1041FC002A46234602A90068019400F005FC1CB075
:10420C00BDE8304003B070473F4200081800002062
:10421C0010B50C46B1F90E1000F0D8F80028ABBF61
:10422C00636DA3891B1823F48053ACBF6365A38112
:10423C0010BD002070472DE9F0411F468B890546C3
:10424C00DB050C46164605D502230022B1F90E10EB
:10425C0000F0AAF8A389324623F48053A3812846A0
:10426C003B46B4F90E10BDE8F04100F0C1B810B5F2
:10427C000C46B1F90E1000F097F8431CA38915BF3A
:10428C00606523F4805343F48053A38118BFA3814A
:10429C0010BDB1F90E1000F077B8034602449342FA
:1042AC0000D1704703F8011BF9E7034610B501393B
:1042BC0032B111F8014F013A03F8014B002CF7D140
:1042CC0000211A44934200D110BD03F8011BF9E7F9
:1042DC00164B2DE9F0411F6805467C6C0E46ECB977
:1042EC00502000F02BF90246786420B95B21104B6A
:1042FC00104800F0BDF8C0E90044C0E90244C0E930
:10430C000444C0E90A44C0E90C44C0E90E44C0E9C5
:10431C001044C0E912448461047744623146284653
:10432C007A6C0123BDE8F04100F006B818000020BB
:10433C00A25E0008B95E0008F0B5044608B914681E
:10434C0044B10F46204614F8015B17F8016B1EB9F7
:10435C0065B91560002005E0B542F6D1002BF0D10F
:10436C0014600370F0BD1C460CE015B90E4614F831
:10437C00013B16F8015BAB42F7D1002BF3D00023C5
:10438C0004F8013C1460EDE738B50023054D0446F4
:10439C0008462B60FCF77FFF431C02D12B6803B14E
:1043AC00236038BD1803002038B504460846114672
:1043BC000022054D2A601A46FCF791FF431C02D1DE
:1043CC002B6803B1236038BD1803002038B50446B0
:1043DC00084611460022054D2A601A46FCF722FFBA
:1043EC00431C02D12B6803B1236038BD1803002095
:1043FC0038B50446084611460022054D2A601A4677
:10440C00FCF72DFF431C02D12B6803B1236038BD90
:10441C0018030020014B1868704700BF18000020DB
:10442C0070B500260C4D0D4C641BA410A64209D18E
:10443C0001F072FC00260A4D0A4C641BA410A64223
:10444C0005D170BD55F8043B98470136EEE755F899
:10445C00043B98470136F2E7A8600008A860000802
:10446C00A8600008AC6000087047704770470000F7
:10447C001FB514461A46094B05461B68D86854B933
:10448C00074B1C46CDE9013400912B46054900F041
:10449C00B3FF01F07BF8044BF4E700BF18000020D9
:1044AC004E5F0008205F0008135F000838B5054612
:1044BC00002940D051F8043C0C1F002BB8BFE41865
:1044CC0000F0E6F81C4A136833B9636014602846A0
:1044DC00BDE8384000F0E2B8A34208D920682118A2
:1044EC008B4201BF19685B6809182160EDE71A4619
:1044FC005B680BB1A342FAD911685018A0420BD1DA
:10450C0020680144501883421160E0D118685B6840
:10451C00084410605360DAE702D90C232B60D6E70D
:10452C00206821188B4201BF19685B68091821604B
:10453C0063605460CBE738BD24030020024B014676
:10454C00186800F025B800BF1800002070B50F4E99
:10455C000C463168054611B900F0ECFF306021467D
:10456C00284600F0E7FF431C03D14FF0FF342046F0
:10457C0070BDC41C24F00304A042F8D0211A2846B4
:10458C0000F0D8FF0130F2D1EFE700BF200300208C
:10459C002DE9F843CD1C25F0030508350C2D38BF4B
:1045AC000C25002D064601DBA94204D90C233360EF
:1045BC000020BDE8F883DFF8D48000F069F8D8F863
:1045CC0000301C4644BB29463046FFF7BFFF431C56
:1045DC00044658D1D8F800402746002F43D1002C70
:1045EC004BD023683946304604EB030900F0A2FF98
:1045FC00814542D1216830466D1A2946FFF7A6FF46
:10460C0001303AD023682B442360D8F800305A6824
:10461C0062BBC8F800700FE02268521B20D40B2A32
:10462C0017D96119A342256018BF5960636808BF88
:10463C00C8F8001062514B60304600F02FF804F1BE
:10464C000B00231D20F00700C21A1CBF1B1AA3501D
:10465C00AFE76268A3420CBFC8F800205A60EBE7D2
:10466C0023466468AEE73C467F68B6E71A465B684B
:10467C00A342FBD100235360DEE70C2330463360AA
:10468C0000F00CF894E70560D6E700BF2403002087
:10469C000148FFF7EABE00BF1C0300200148FFF7EA
:1046AC00E5BE00BF1C0300202DE9F0471F468E68B5
:1046BC008246BE420C4690460B682DD8B1F90C20B0
:1046CC0012F4906F26D06569096905EB4505A3EBDB
:1046DC00010905EBD5757B1C4B446D109D4238BF11
:1046EC001D46530527D52946FFF752FF064660B3F2
:1046FC004A46216900F03CFFA38923F4906343F000
:10470C008003A38126614E4426603E466561A5EB7D
:10471C000905A560BE4200D93E4632464146206896
:10472C0000F0EDFE0020A3689B1BA36023683344BC
:10473C002360BDE8F0872A4600F02FFF06460028CC
:10474C00E0D150462169FFF7B1FE0C23CAF80030C6
:10475C00A3894FF0FF3043F04003A381E9E7000049
:10476C002DE9F04F98468B8907461B060D461446DB
:10477C009DB010D50B6973B94021FFF709FF286074
:10478C00286130B90C233B604FF0FF301DB0BDE801
:10479C00F08F40236B610023099320238DF829307F
:1047AC0030234FF00109CDF80C80DFF898818DF89B
:1047BC002A3023469A4613F8012B0AB1252AF9D13F
:1047CC00BAEB040B0BD05B46224629463846FFF762
:1047DC006BFF013000F0A780099A5A4409929AF8AD
:1047EC000030002B00F09F8000234FF0FF32CDE90A
:1047FC0005230AF1010A049307938DF853301A9399
:10480C005446052214F8011B4E4800F0A3FE049AEE
:10481C00D8B9D00644BF20238DF85330110744BFBC
:10482C002B238DF853309AF800302A2B15D0544690
:10483C0000204FF00A0C079A214611F8013B303B3F
:10484C00092B4BD9B0B1079214E0A0EB080309FA7D
:10485C0003F31343A2460493D2E7039B191D1B6871
:10486C000391002BBBBF5B4242F0020207930793FC
:10487C00B8BF049223782E2B0AD163782A2B32D11D
:10488C00039B02341A1D1B68039243EAE3730593DE
:10489C00DFF8B4A003225046217800F05BFE38B15B
:1048AC004022049BA0EB0A00824013430134049382
:1048BC0014F8011B062225488DF8281000F04AFE3A
:1048CC00002836D0224B1BBB039B073323F0070376
:1048DC0008330393099B334409936AE70C46012080
:1048EC000CFB0232A8E700234FF00A0C19460134E6
:1048FC000593204610F8012B303A092A03D9002BD6
:10490C00C6D00591C4E7044601230CFB0121F0E756
:10491C0003AB00932A4638460E4B04A9AFF3008034
:10492C00421C0646D6D1AB895B063FF52DAF0998E4
:10493C002CE703AB00932A463846064B04A900F03B
:10494C0047FAEDE74F5F0008555F0008595F000814
:10495C0000000000B546000838B54B1C144603D1C6
:10496C004FF0FF35284638BD9389CDB223F0200394
:10497C0093815368526B8AB1A26B9A4208DD23680B
:10498C005A1E226003F8015C636801336360E9E737
:10499C00214600F07CFD0028F1D0E1E72169226876
:1049AC0041B1914206D212F8011CA94202D1013A3E
:1049BC002260EAE7C4E90F2304F144036363032391
:1049CC00A363234603F8465F23600123DEE710B59B
:1049DC000C46496B69B104F14403994201D0FFF7CD
:1049EC0065FD0020236C6063636013B1E36B23608F
:1049FC0010BD23694FF0FF30236000236360A3894F
:104A0C0043F02003A381F3E72DE9F0470C46002186
:104A1C000646ADF5227DCDE94411AA490DF10408F5
:104A2C00A091A949A94FCDF81881A19100931378B1
:104A3C00002B00F05981F95C551C11F0080119D0BC
:104A4C006368002B0FDD23681A78BA5C120701D457
:104A5C002A46ECE7459A013301324592626823609D
:104A6C00013A6260ECE721463046A19B984700284A
:104A7C00E9D0EDE7252B12D099466368002B40F363
:104A8C009480226813784B4540F02E816368013284
:104A9C00013B6360459B226001334593D8E741910C
:104AAC00439153782A2B04BF1023951C4FF00A0214
:104ABC0008BF4193A94619F8011BA1F13003092B3A
:104ACC001ED9DFF80CA20322504600F043FD38B18A
:104ADC0001234D46419AA0EB0A00834013434193B6
:104AEC0015F8013B782B06D8572B10D8252BC3D0A3
:104AFC0056D8002B64D0032347930A23429377E0C4
:104B0C00439B4D4602FB031130394391D2E7A3F18D
:104B1C005802202AEFD801A151F822F0DB4B0008F3
:104B2C00034B0008034B0008354C0008034B0008EE
:104B3C00034B0008034B0008034B0008034B000811
:104B4C00034B0008034B00084B4C0008314C000889
:104B5C00B34B0008B34B0008B34B0008034B0008E1
:104B6C00ED4B0008034B0008034B0008034B0008F7
:104B7C00034B00085B4C0008F54B0008D34B0008B6
:104B8C00034B0008034B0008574C0008034B00086C
:104B9C00314C0008034B0008034B0008DB4B0008AA
:104BAC00453B022BA7D8052321E021463046A19B8B
:104BBC00984700283FF465AF4498002840F08C805B
:104BCC004FF0FF308CE0419A42F020024192419A22
:104BDC0042F40072419210226E2B429202D905E0EF
:104BEC0000234293032302E00823429304234793B8
:104BFC006368002B39DD419B590604D423681A786D
:104C0C00BA5C120738D4479B022B47DC6B46224612
:104C1C00304641A900F0FCF9012865D002287FF448
:104C2C0017AFC9E70A22D7E72946404600F0F6FB42
:104C3C00419B054643F0400341930123D7E7419B39
:104C4C0043F0400341930023D1E70223CFE741987F
:104C5C00C3063FF5FDAE009B459A191D00911B68DC
:104C6C00C0074CBF1A801A60F2E621463046A19B61
:104C7C0098470028BFD09FE7459A01324592626859
:104C8C00013A002A626002DD01332360B6E7214657
:104C9C003046A19B98470028B0D08DE7042B06DC4A
:104CAC006B462246304641A900F00CFAB4E7094B9A
:104CBC00002B3FF4CDAE6B462246304641A9AFF3F4
:104CCC000080A9E765490008DB4900089E5F0008E1
:104CDC00555F000800000000A3895B063FF570AF2C
:104CEC000DF5227DBDE8F0874498F9E72DE9F047F2
:104CFC00164698468A680B6907469342B8BF134616
:104D0C00336091F843200C46DDF820900AB1013352
:104D1C0033602368990642BF3368023333602568D9
:104D2C0015F0060506D104F1190AE36832689B1ADE
:104D3C00AB422BDC94F843302268003B18BF0123B4
:104D4C00920630D44146384604F14302C84701303C
:104D5C0023D02368226903F00603042B14BF00251B
:104D6C0033684FF0000608BFE56804F11A0408BF69
:104D7C00ED1A54F8123C08BF25EAE5759342C4BFFE
:104D8C009B1AED18B5421AD1002008E001235246B7
:104D9C0041463846C847013003D14FF0FF30BDE8DB
:104DAC00F0870135C1E73020E11881F843005A1C27
:104DBC0094F845102244023382F84310C2E70123D1
:104DCC00224641463846C8470130E6D00136D9E77D
:104DDC002DE9FF470F7E9146782F80460C469A4668
:104DEC000C9E01F1430207D8622F0AD8002F00F065
:104DFC00D380582F00F0BA8004F1420684F8427038
:104E0C003AE0A7F16303152BF6D801A151F823F072
:104E1C00754E0008894E0008054E0008054E000826
:104E2C00054E0008054E0008894E0008054E000886
:104E3C00054E0008054E0008054E00088B4F000873
:104E4C00B34E0008454F0008054E0008054E0008FB
:104E5C00AD4F0008054E0008B34E0008054E000883
:104E6C00054E00084D4F000833681A1D1B68326050
:104E7C0004F1420684F8423001239EE03368206836
:104E8C00191D3160060601D51D6803E04506FBD5EA
:104E9C00B3F90050002D03DA2D236D4284F8433012
:104EAC000A23594811E021683368080653F8045B5B
:104EBC0002D4490648BFADB26F2F336014BF0A232A
:104ECC0008235148002184F843106668002EA8BFBF
:104EDC002168A660A4BF21F0040121600DB9002E49
:104EEC004BD01646B5FBF3F103FB1157C75D06F823
:104EFC00017D2F46BB420D46F4D9082B0BD12368FC
:104F0C00DF0708D5236961689942DEBF302306F8B4
:104F1C00013C06F1FF36921B22614B46214640466E
:104F2C00CDF800A003AAFFF7E1FE01304AD14FF003
:104F3C00FF3004B0BDE8F087236843F02003236002
:104F4C007827324884F84570236831681F0651F879
:104F5C00045B02D45F0648BFADB23160D90744BFD1
:104F6C0043F0200323601DB11023ABE72648E9E78B
:104F7C00236823F020032360F6E71646BDE7336869
:104F8C002568181D616930602E061B6801D51960F3
:104F9C0002E06806FBD51980002316462361BCE7A6
:104FAC00336800211A1D32601E686268304600F0BA
:104FBC00D1FA08B1801B606063682361002384F818
:104FCC004330AAE73246494640462369D047013070
:104FDC00ADD023689B0713D4E068039B9842B8BFFD
:104FEC001846A6E70123324649464046D0470130D1
:104FFC009DD00135E36803995B1AAB42F2DCEBE719
:10500C00002504F11906F5E7605F0008715F0008E0
:10501C002DE9F84315468A6880460C4632B98A69F0
:10502C00002A14BF4FF0FF3201228A600027226849
:10503C00DFF88C90D1065FBF1A68111D19601668D5
:10504C00A06988B1012807D12B681A7863699B5C29
:10505C0053B9002F31D022E0022820D12B681B78C5
:10506C0019F803301B071AD423680137DA065EBF20
:10507C002B681B7806F8013B2A686B6801322A60A2
:10508C00A268013B013A6B60A26042B1002BD7DCF5
:10509C0029464046D4F8803198470028D0D0236860
:1050AC0013F0100305D1E2680132E260A26902B18B
:1050BC003370002023693B442361BDE8F88300BFB3
:1050CC009E5F00082DE9F04F0C469846724B87B056
:1050DC008246164693E8070003AB83E807006F4B44
:1050EC00A1696F4A2746032908BF1A46A368019293
:1050FC005A1EB2F5AE7F81BF6FF4AE7503EB050996
:10510C0040F25D13A36057F81C3B98BF4FF00009A9
:10511C003D464FF0000B43F450632360316803AB02
:10512C000222097853F82B0000F014FA28B3BBF1D3
:10513C00010F59D162682AB908212268616042F4D2
:10514C0000722260226822F4A0622260A268511EC2
:10515C00A16092B13268511C3160127805F8012BB4
:10516C007268013A002A726007DC31465046D4F866
:10517C0080219047002840F085800BF1010BBBF19A
:10518C00030FCBD163680BB90A236360636845498D
:10519C006069C91A00F042F94FF0000BA36822684D
:1051AC00002B3DD03168606991F800C010F80C00FC
:1051BC00002835D0BCF1300F24D1100522D50BF1CD
:1051CC00010BB9F1000F03D0013309F1FF39A360D2
:1051DC007368013B002B73601BDD33680133336054
:1051EC00A368013BA360D9E7BBF1020FAED12268E3
:1051FC0002F4C061B1F5007FBFD1102142F480727E
:10520C006160A2E722F4106222600B7805F8013B82
:10521C00DEE731465046D4F8803198470028DFD07D
:10522C002368D9050DD5BD4209D915F8011C3246A4
:10523C005046D4F87C3105F1FF3998474D46BD42B4
:10524C0028D0226812F0100213D12A7039466368F4
:10525C005046019EB047D8F8003021681A1DC8F896
:10526C00002011F0200F1B680FD01860E368013389
:10527C00E36000202369ED1B5D442B44236107B0E0
:10528C00BDE8F08F4FF0000BCAE7CA074CBF18807F
:10529C001860EBE70120F2E76C5E0008F956000895
:1052AC00D9570008925F0008B1F90C20F8B5160721
:1052BC0005460C4654D44B68002B02DC0B6C002BBF
:1052CC0048DDE66A002E45D0002312F480522F6888
:1052DC00216A2B6030D0626DA389590705D56368AC
:1052EC00D21A636B0BB1236CD21A00232846E66AE0
:1052FC00216AB047431CA38906D129681D292BD8E4
:10530C00284A0A41D60727D4002262602269D904B0
:10531C00226004D5421C01D12B6803B96065616B16
:10532C002F60B9B104F14403994202D02846FFF72B
:10533C00BDF8002363630DE001232846B047024605
:10534C00501CC9D12B68002BC6D01D2B01D0162B9D
:10535C001DD12F60002021E043F040031BB21AE066
:10536C000F69002FF6D0930718BF00230E6808BFF3
:10537C004B69F61B0F608B60002EEBDD33463A4613
:10538C002846216AD4F828C0E047002807DCB4F985
:10539C000C3043F040034FF0FF30A381F8BD0744BD
:1053AC00361AE9E7FEFFBFDF38B50B6905460C4638
:1053BC0013B90025284638BD18B1036A0BB9FEF79E
:1053CC0093FEB4F90C30002BF3D0626ED00704D4EA
:1053DC00990502D4A06DFFF748F828462146FFF73F
:1053EC0063FF636E0546DA07E4D4A3899B05E1D419
:1053FC00A06DFFF73BF8DDE70EB403B5014603AB38
:10540C00054853F8042B0068019300F009FA02B028
:10541C005DF804EB03B070471800002070B50B78F2
:10542C0004465E2B0BBF4B784A1C8A1C002108BF1C
:10543C000121013804F1FF0500F8011FA842FBD13E
:10544C000BB9501E70BD81F001011046E1540246AB
:10545C0012F8015B2D2D05D05D2D16D0002DF1D04D
:10546C002B46F2E746785D2EFAD0B342F8DC1A46AA
:10547C00023001329642A154FBDCF21A013AB342DB
:10548C00A8BF00225D1CAB18E1E71046DAE72DE956
:10549C00F0410C46496B04F1440399421BD14FF483
:1054AC008061FFF775F818B94FF0FF30BDE8F08157
:1054BC004FF48063A36394F84630606380F8FF3345
:1054CC0094F8453000F2FD30437094F8443003708A
:1054DC0020600020EAE7A66B77003A4600F05DF802
:1054EC0005460028E0D000EB06080146324640464F
:1054FC0000F03EF8C4E90D57C4F80080E9E7884293
:10550C0010B501EB020402D98442234607D8431E8E
:10551C00A14208D011F8012B03F8012FF8E701463E
:10552C0002448A4200D110BD13F8014D02F8014D1E
:10553C00F7E7000038B50023054D044608462B60FC
:10554C00FBF7DAFE431C02D12B6803B1236038BD94
:10555C0018030020034610B5C9B202449342184602
:10556C0001D1002003E0047801338C42F6D110BD48
:10557C000A44914200F1FF3300D1704710B511F885
:10558C00014B914203F8014FF9D110BD062008B52B
:10559C0000F01AFB0120FBF73AFE2DE9F0418046A2
:1055AC0015460C4621B91146BDE8F041FEF7F0BF97
:1055BC002AB9FEF77BFF00242046BDE8F08100F0FD
:1055CC001FFB8542064602D8B5EB500FF4D829468E
:1055DC004046FEF7DDFF07460028ECD0B5422A46D0
:1055EC00214628BF3246FFF7C3FF21464046FEF74F
:1055FC005DFF3C46E0E70000242B2DE9F047864692
:10560C00904601D8012B06D1FEF704FF1623036048
:10561C000020BDE8F0870D4633482A4615F8014BAB
:10562C00065D16F00806F8D12D2C2DD101262C780C
:10563C00951C33F0100209D1302C2AD12A7802F0B3
:10564C00DF02582A25D110236C780235002206F18E
:10565C00004C0CF1FF3CBCFBF3F9104603FB19CAE0
:10566C00A4F13007092F1BD83C46A34227DD571C59
:10567C0007D0814520D301D1A2451DDB012200FBBF
:10568C00034015F8014BEBE72B2C04BF2C78951C31
:10569C00CFE7002BDAD1302C0CBF08230A23D5E737
:1056AC00A4F14107192F01D8373CDEE7A4F16107BB
:1056BC00192F04D8573CD8E74FF0FF32E1E7531CC1
:1056CC0008D122236046CEF80030B8F1000FA0D0EC
:1056DC00691E06E006B14042B8F1000F99D0002ACD
:1056EC00F6D1C8F8001094E79E5F0008FFF784BF5E
:1056FC002DE9F04386460D46334E284615F8014BEE
:10570C00375D17F00807F8D12D2C2FD101272C78F5
:10571C00851C33F0100009D1302C2CD1287800F0E6
:10572C00DF00582827D110236C7802354FF0FF3852
:10573C00B8FBF3F8002603FB08F930466FEA0909B9
:10574C00A4F1300CBCF1090F1CD86446A3422ADD2D
:10575C00B6F1FF3F07D0804522D301D1A1451FDB15
:10576C00012600FB034015F8014BE9E72B2C04BF85
:10577C002C78851CCDE7002BD8D1302C0CBF0823FE
:10578C000A23D3E7A4F1410CBCF1190F01D8373C23
:10579C00DCE7A4F1610CBCF1190F04D8573CD5E738
:1057AC004FF0FF36DFE7731C06D122233046CEF8CC
:1057BC00003032B9BDE8F08307B14042002AF9D07D
:1057CC0006B1691E1160F5E79E5F0008FFF790BFF8
:1057DC00936810B4013B002B936007DA9469A342E1
:1057EC0001DB0A2902D110BC00F032B91368581C35
:1057FC0010601970084610BC7047F8B506460F4685
:10580C001446D518AC4201D1002007E03A46304688
:10581C0014F8011BFFF7DCFF431CF3D1F8BD0000AB
:10582C002DE9F04F0D461446984606469DB018B12A
:10583C00036A0BB9FEF758FC6B6ED90705D4AB891C
:10584C009A0502D4A86DFEF710FEAB891B0701D593
:10585C002B699BB92946304600F038F970B16B6E54
:10586C00DC0704D54FF0FF301DB0BDE8F08FAB89DD
:10587C009805F7D4A86DFEF7F9FDF3E7002309931B
:10588C0020238DF8293030234FF00109CDF80C80FE
:10589C00DFF8A8818DF82A3023469A4613F8012B9D
:1058AC000AB1252AF9D1BAEB040B0BD05B46224680
:1058BC0029463046FFF7A1FF013000F0A780099A76
:1058CC005A4409929AF80030002B00F09F80002374
:1058DC004FF0FF32CDE905230AF1010A0493079337
:1058EC008DF853301A935446052214F8011B534873
:1058FC00FFF730FE049AD8B9D10644BF20238DF8A7
:10590C005330130744BF2B238DF853309AF80030D3
:10591C002A2B15D0544600204FF00A0C079A21462A
:10592C0011F8013B303B092B4BD9B0B1079214E075
:10593C00A0EB080309FA03F31343A2460493D2E73E
:10594C00039B191D1B680391002BBBBF5B4242F0EC
:10595C00020207930793B8BF049223782E2B0AD127
:10596C0063782A2B32D1039B02341A1D1B680392D5
:10597C0043EAE3730593DFF8C8A00322504621786D
:10598C00FFF7E8FD38B14022049BA0EB0A008240EF
:10599C0013430134049314F8011B062229488DF893
:1059AC002810FFF7D7FD00283FD0274B1BBB039BCC
:1059BC00073323F0070308330393099B3B440993F4
:1059CC006AE70C4601200CFB0232A8E700234FF0DB
:1059DC000A0C194601340593204610F8012B303A75
:1059EC00092A03D9002BC6D00591C4E7044601232C
:1059FC000CFB0121F0E703AB00932A463046134B16
:105A0C0004A9AFF300800746781CD6D16B6ED9077A
:105A1C0005D4AB899A0502D4A86DFEF727FDAB8996
:105A2C005B063FF51FAF09981EE703AB00932A46B0
:105A3C003046064B04A9FFF7CBF9E4E74F5F0008AB
:105A4C00555F0008595F0008000000000758000867
:105A5C00F8B50E461446054618B1036A0BB9FEF7A5
:105A6C0043FBA369A360A3891A0701D5236943B932
:105A7C002146284600F02AF818B14FF0FF37384677
:105A8C00F8BD23682269F6B2981A636937468342D7
:105A9C0005DC21462846FFF787FC0028EDD1A368DA
:105AAC00013BA36023685A1C22601E706269431C70
:105ABC009A4204D0A389DB07E1D50A2EDFD1214617
:105ACC002846FFF771FC0028D9D0D6E738B5294B0A
